:020000040800F2
:10000000800D0020490100080902000809020008CB
:100010000902000809020008090200080902000894
:10002000090200080902000809020008CD050008BD
:1000300009020008090200082D06000869060008E8
:100040000902000809020008090200080902000864
:100050000902000809020008090200080902000854
:100060000902000809020008090200080902000844
:100070000902000809020008050A00080902000830
:100080000902000809020008090200080902000824
:100090000902000809020008090200080902000814
:1000A0000902000809020008090200080902000804
:1000B00009020008090200080902000809020008F4
:1000C00009020008090200080902000809020008E4
:1000D00009020008410A0008090200080902000894
:1000E0000902000809020008090200089108000836
:1000F0000902000810B5054C237833B9044810B143
:100100000448AFF300800121217010BD5408002085
:10011000000000004416000808B5064B1BB1064855
:100120000649AFF300800648016811B1054A02B1E3
:10013000904708BD00000000441600085808002041
:1001400054080020000000001B4880F309880220AA
:1001500080F31488BFF36F8F18488047184C194DEF
:10016000AC423DBF54F8041B54F8042B54F8043B34
:1001700007E09A423EBF51F8040B42F8040BF8E73F
:10018000EEE70020104B114CA3423ABF53F8041B7A
:1001900053F8042B05E091423CBF41F8040BFAE709
:1001A000F2E70B4880470B4880470B4880470B48D5
:1001B0008047FEE77047000080110020B50100086D
:1001C000441600085016000850160008581600087B
:1001D000F90B0008B5010008C1060008A90B0008CA
:1001E000064B074A18684118914205D9054B0C2067
:1001F00018604FF0FF30704719607047040000200E
:100200000040002078090020684620F007018D4654
:10021000FEE743685A688B604A605A68916059608B
:100220004160086101684B1C036070474368826845
:100230009A608268536003695968814208BF5A60B6
:10024000002202611868411E1960704738B51346D4
:10025000026C044632B9056805BB406800F092F9AB
:1002600065601BE063B9806800F0B8FFA068216C8E
:10027000626843189342A36010D32068A0600DE029
:10028000C06800F0ABFF206CE26843422168D018E0
:100290008842E06002D26268D318E360A16B4B1C15
:1002A000A36338BD38B5044615464FF0500080F3BF
:1002B0001188A26BE06B824216D21A462046FFF7E5
:1002C000C5FFA16C4B1C0AD1636A5BB104F1240029
:1002D00000F026F930B12DB101232B6005E0A26CAE
:1002E000501CA064012300E000234FF0000080F3C5
:1002F0001188184638BD0000024B1A68501C18605F
:10030000704700BF0809002038B52B4B186800283B
:100310004CD12A4801684A1C02600368ABB9284BDB
:10032000284A1968106818601160274A1168481C2B
:1003300010601A682548116811B94FF0FF3303E0C7
:100340001B68DA68D1684B6803601C481F49026863
:100350000B689A422ED31A480268116819B94FF0F7
:10036000FF331A4925E00468144AE368DC68116821
:100370006068814202D2154B186038BD251D2846A1
:10038000FFF754FFA36A1BB104F11800FFF74EFFFB
:100390000F48E36A0268934288BF03600D48142146
:1003A00001FB03002946FFF734FFD4E70A490A6836
:1003B000531C0B6038BD00BF0809002074080020E2
:1003C000E0080020DC0800201009002008000020C0
:1003D00070080020780800200C09002070B500F09B
:1003E0000DF9264B1A68501E18601D680DB10024C7
:1003F0003FE023490C68002CF9D0224B1A68F2B177
:10040000DE68F468261D04F11800FFF70FFF304680
:10041000FFF70CFF1C48E36A01681C4A8B4288BF47
:100420000360142000FB03203146FFF7F2FE184B57
:10043000E46A1968C86A844228BF0125DDE71548C7
:10044000016841B1134C22683AB1FFF75DFF2368A0
:100450005A1E2260F6E7012D06D10F4900200860E0
:10046000012400F0C3F804E00B4C2368012BBED13B
:10047000F3E700F0CFF8204670BD00BF0809002068
:10048000E4080020E8080020700800207808002018
:10049000040900200C09002000090020184B10B5A9
:1004A000186810B10121174828E01749174C0A882D
:1004B0001748636A016843EA0242164BCC6C18681D
:1004C0001A60201A8018C864134A1423106813494C
:1004D0005843085818B91368591E1160F4E7126898
:1004E00003FB0213596803F1080248689042586000
:1004F00004BF406858605B680548D968016010BD5A
:1005000008090020000900202009002000100040F8
:1005100004090020FC080020700800207808002052
:1005200038B5C368DC6804F118052846FFF77EFE7D
:100530000F48016871B9251D2846FFF777FE0D4A5F
:10054000E36A1068834288BF13600B4A142101FBE1
:10055000032000E009482946FFF75BFE084BE06AEC
:100560001968CA6A904234BF0020012038BD00BF1C
:10057000080900207008002078080020E808002002
:100580000409002038B50446D0B1C26A836C9A428F
:1005900016D0051D2846FFF749FE0A4AA36C1168CC
:1005A000C3F105008B4288BF1360074AA061142085
:1005B00000FB03202946E362BDE83840FFF729BE6F
:1005C00038BD00BF7008002078080020064B19686D
:1005D0000868B0E8F00F80F309884FF0000080F35E
:1005E00011884EF00D0E704704090020024B4FF0A9
:1005F00080521A60704700BF04ED00E04FF05000D9
:1006000080F31188024B1A68501C1860704700BFB5
:100610000C000020044A1368581E106018B94FF0EF
:10062000000080F3118870470C000020EFF3098070
:100630000C4B1A6820E9F00F10602DE908404FF0CC
:10064000500080F31188FFF729FF4FF0000080F37E
:100650001188BDE8084019680868B0E8F00F80F319
:10066000098870470409002008B5074B4FF08052F5
:100670001A604FF0500080F31188FFF745FE4FF0ED
:10068000000080F3118808BD04ED00E010B50446B9
:10069000FFF732FE204600F0F9FA0446FFF79EFE0F
:1006A000204610BD10B5044640B1FFF725FE204698
:1006B00000F0F4FABDE81040FFF790BE10BD000056
:1006C00008B5104B012210481A60016821F4C0528D
:1006D00042F4006303604168CA06FCD40B4A01205F
:1006E00010600B4B19680029FBD00A490A4A002008
:1006F00000F0EAF800F07AF800F04AF9632000F020
:1007000075F9FBE7F00447420070004000004742E3
:10071000040047420024F4000048E80108B58120A5
:10072000FFF7B4FF014B186008BD00BF140900209B
:10073000FFF7ACBF08B1FFF7B5BF70472DE9F04137
:1007400098460F4B14461D680D48854211D0A96884
:10075000CF68384600F0F4FD08F1FF3282420646C9
:100760000BD320463946324600F038FDA4192D68D7
:10077000EAE700202070BDE8F0811920BDE8F08193
:100780001809002038B504460068A04204D0056866
:10079000FFF7D0FF2846F8E738BD38B50C200C46E7
:1007A0001546FFF7C5FF20B10023036043602968A9
:1007B00081602146BDE8384000F08EB910B5074C85
:1007C000074A2046214624606460FFF7E6FF05499A
:1007D000054A2046BDE8104000F078B9180900200D
:1007E000EC1500088507000800000020024BDA69BC
:1007F00042F0FF00D8617047003802404B00F0B56E
:10080000032404FA03F402F00F0505FA03F5066861
:10081000E443264046EA0507076086880125B7B20B
:1008200005FA01F627EA0607C2F3031606FA01F6EF
:100830003E43B7B2C2F3032606FA03F68780876801
:10084000072907EA040746EA07068660C66804EA3D
:100850000604C2F3033606FA03F343EA0403C36053
:1008600003D90839C9B22B4600E0002389000F24C0
:1008700004FA01F4C2F3034202FA01F1083350F81A
:10088000235025EA040444EA010240F82320F0BD85
:10089000084B68461A8820F007018D4601B5501CA8
:1008A00081B21980044B00221A82BDE801408546BE
:1008B000704700BF2009002000100040014B18685D
:1008C000704700BF100000202DE9F0410024A4462D
:1008D00023462546264E15F80680264E01FB08F8CD
:1008E000B04510D80226B8FBF6F7974206D89F42CB
:1008F00004D997423446AC4609D03B460136052E12
:10090000F1D1934204D00135092DE3D100E0134623
:10091000194A0004116840EA8C4C41F00405156046
:100920001168013C21F0030545F00201134D4CEA2A
:100930008454AB4288BF41F0010111601049A2F517
:1009400080620120946008600E4801680029FBD095
:10095000906840F0030191600B4A906800F00C0130
:100960000C29F9D1094A18461360BDE8F08100BF8F
:100970003016000800D8B805003C02400024F400FE
:1009800060004742640047420038024010000020E7
:1009900038B5114B114D1A6A114C42F400301862EF
:1009A000022128462246FFF729FF22462846032136
:1009B000FFF724FF0B4B01211960FFF77FFF00F5C4
:1009C00061424FF4E130B2FBF0F1074B42F20C0010
:1009D0008AB21A81988138BD003802400000024076
:1009E00002130700C404474200440040034B196847
:1009F0000029FBD0024A9080704700BF1C8008424B
:100A000000440040684620F007018D4601B50A4BBE
:100A100082B00021186801AA0B46FFF743FC074883
:100A200001220260019909B1FFF7E0FD02B0BDE8C3
:100A300001408546704700BF40090020B4004C4289
:100A4000684620F007018D4611B5002383B001935D
:100A50001A4802684AB31A4B98881A4BC2B21968EE
:100A600058184271187901310128196003D10A2AF6
:100A700001D1022204E00D2A01D1012200E000226E
:100A80000F291A7102D81B79022BE1D10D4C0E49A6
:100A900001AA086800232146FFF704FC2279002000
:100AA000022A206008BF2071D2E7019909B1FFF73F
:100AB0009DFD03B0BDE811408546704714002742F4
:100AC0000038014028090020240900200346084678
:100AD000194600F05FB800BF4B68016043604A6888
:100AE00048601060704700BF2DE9F041274C84B08A
:100AF00025680746D5F84841002C41D066681F2E6E
:100B00001CDD234810B94FF0FF301FE04FF4C870D0
:100B100003910292019300F0B9F803990446029AF6
:100B2000019B0028EFD0D5F8486100206060266066
:100B3000C5F84841C4F88801C4F88C01656847B914
:100B4000A81C013544F820106560002004B0BDE801
:100B5000F081012000FA05F0D4F8886104EB8508E3
:100B60000643022FC8F88820C4F88861C8F8083105
:100B7000E6D1D4F88C3143EA0002C4F88C21DFE7D7
:100B800005F5A674C5F84841B8E700BF401600084F
:100B90008D0C000830B405460C4613460220294649
:100BA000224630BCFFF7A0BF114B124A70B5981A0D
:100BB000831018D0591E02EB83040D4654F8042DFF
:100BC00001F00106904775B126B154F8040D804735
:100BD000013D08D054F8043D9847013D54F8041DE8
:100BE0008847013DF6D1BDE8704000F043BD00BF2D
:100BF0008416000880160008F8B5204F204C381BDA
:100C0000871017D07A1E2368012502F00106984745
:100C1000AF420FD02EB154F8041F02258847AF42CF
:100C200008D0606880470235A268261D90470834C6
:100C3000AF42F6D1134F144C00F00EFD3B1B9F103A
:100C400018D07D1E216805F0010601258847AF42B6
:100C500011D02EB154F8040F02258047AF420BD0BB
:100C6000626890470235A368261D98470834AF4252
:100C7000F6D1F8BDF8BDF8BDF8BD00BF6416000898
:100C800064160008741600086416000840F2404319
:100C9000C2F200030146186800F008B840F2404371
:100CA000C2F200030146186800F0D6BB2DE9F04FF0
:100CB00001F10B05162D83B0064627D935F007053F
:100CC00027D4A94225D8304600F036FBB5F5FC7F85
:100CD00023D2B94F4FEAD50C07EBCC02D46894422B
:100CE00000F0D8816368E26823F003016318586854
:100CF000A16840F001005860CA609160304600F081
:100D00001DFB0834204603B0BDE8F08F1025A94232
:100D1000D9D90C2434600024F4E75FEA552C00F0A4
:100D20008980BCF1040F00F253814FEA951707F157
:100D3000380E4FEA4E01A04F07EB8101CC68A1426B
:100D400005D10CE0002A7ADAE468A14207D0636892
:100D500023F00300421B0F2AF4DD0EF1FF3E0EF1DB
:100D6000010C954B3C6903F1080E744500F070814D
:100D7000616821F003014A1B0F2A00F35681002A03
:100D8000C3F814E0C3F810E067DAB1F5007F80F033
:100D90002D81C90888104FF0010808FA00F803EB0C
:100DA000C1015A68886848EA0202E160A0605A609E
:100DB0008C60C46001204FEAAC0400FA04F0904259
:100DC00055D8024206D12CF0030C400002420CF12F
:100DD000040CFAD007EBCC094C46E046E3689C4291
:100DE00007D137E1002A80F25F81DB689C4200F086
:100DF0003181596821F003014A1B0F2AF2DD1C469C
:100E0000D86854F808CF591945F0010842F0010597
:100E1000CCF80C00C0F808C0C3F8048079613961CF
:100E2000C1F80CE0C1F808E04D608A50304600F08F
:100E300085FA67E74FEAD50E4FEA4E017BE72218A5
:100E40005068E368A16840F001005060CB60996091
:100E5000304600F073FA083454E76218536830469D
:100E600043F00101516000F069FA08344AE7BC68B8
:100E7000606820F00309A94504D3C5EB09030F2BD3
:100E800000F38D804D4A4E4B11681868013104EB18
:100E9000090B05EB000300F0518103F580500F3082
:100EA00020F47F6121F00F0C614630468DE804107C
:100EB000FFF796F99DE80410B0F1FF3F804600F07F
:100EC0004681834500F20881DFF800A1C345DAF8C6
:100ED00000306344CAF8003000F03E8112680132ED
:100EE00000F04B81CBEB080B5B44CAF8003018F0E4
:100EF000070100F00481C1F10800C1F5805380446E
:100F000003F1080208EB0C010805030DC3EB020B0B
:100F100030465946FFF764F9431C00F03A81C8EBAC
:100F200000020BEB020141F00100DAF80030BC4294
:100F30005B44C7F80880CAF80030C8F8040015D030
:100F4000B9F10F0F40F2E9806168A9F10C0222F0BB
:100F5000070201F0010C0520A11842EA0C0E0F2A2D
:100F6000C4F804E04860886000F20B81154ABC6850
:100F70001068834288BF1360134A11688B4288BF90
:100F80001360636823F00300A842C5EB000301D39C
:100F90000F2B04DC304600F0D1F90024B2E66219D0
:100FA00043F0010145F00105656030465160BA60CB
:100FB00000F0C4F90834A5E64404002050080020DD
:100FC0004C09002048090020440900205009002055
:100FD000BCF1140F77D9BCF1540F00F286804FEAB0
:100FE000153404F16E0E4FEA4E01A4E6480A0428B7
:100FF0006ED9142800F2A58000F15B02500007EBC7
:1010000080008368DFF8C88183427BD05A6822F071
:101010000302914202D29B689842F7D1D9687A685C
:10102000E160A360DC608C60C4E6611942F00100FD
:1010300045F001056560596119614860C1F80CE02F
:10104000C1F808E08A50304600F078F9083459E6D3
:101050005A68AFE608F10108083418F0030F7FF46E
:10106000BDAE49461CF0030FA1F108040CF1FF3C92
:1010700000F0A2800968A142F4D07C684000A04240
:101080003FF6F5AE00283FF4F2AE044200F099803E
:10109000C4469FE604F108036469A34208BF0CF14B
:1010A000020C3FF45EAE1DE6591848681C4654F821
:1010B000082FDB6840F001004860D3609A6030463A
:1010C00000F03CF91EE60CF15B0E4FEA4E0132E6F1
:1010D0008A093832500092E7BC423FF4F5AE3C4CEE
:1010E000A468626822F003004EE7BCF5AA7F1AD814
:1010F0004FEAD53202F1770E4FEA4E011BE64FF46C
:101100008052FFE69110012000FA01F0D8F8042087
:1011100019460243C8F8042082E70122C8F80420D7
:101120004446002030E740F254539C4521D84FEA12
:10113000954000F17C0E4FEA4E01FCE503F1100CE6
:10114000B2E6542829D80A0B6E32500057E7BC6823
:10115000616821F0030017E74FEA0B50010D0029E9
:101160007FF4BCAEB8680CEB090141F001044460A7
:10117000FCE6FC214FF07E0EDDE51648C0F800804D
:10118000B5E604F10801144C304600F065F9236817
:10119000ECE601204FF0000BC7E6B0F5AA7F03D8BC
:1011A000CA0B773250002AE740F2545398420CD8C9
:1011B0008A0C7C32500022E77C6824EA00047C60C0
:1011C0005CE7400008F104085FE7FC207E2216E798
:1011D0004404002050080020500900200F2A2DE967
:1011E000F00340F2A18041EA00039B0740F09E809B
:1011F0000C68A2F1100504604B68AC4643608C6833
:10120000BCF10F0F8460CC68C5F30015C46000F119
:10121000100301F110042BD975B12568ACF1100C45
:101220001D6065685D60A5689D60E5681034DD60DF
:101230001033BCF10F0F1BD9276804F110061F6093
:10124000676803F110055F60A768ACF1200C9F6030
:10125000E768DF6024691C61776806F110046F603D
:10126000B7682033AF60F668BCF10F0FEE60E3D8CB
:10127000A2F1100828F00F0302F00F0403F1100C84
:10128000032C00EB0C0301EB0C0851D9211F4FEA92
:101290009109444608EB890C54F8046BC8EB0C0127
:1012A0000CF1040C1D46644545F8046BC1F3800144
:1012B00012D029B154F8041B644545F8041B0BD027
:1012C000274657F8041B2E4646F8041B64686C60DA
:1012D0003C1D351D6445F3D109F1010C4FEA8C0921
:1012E00002F0030208EB09014B44D2B10D789A18C1
:1012F000DC4303F8015B1419934204F0010410D09D
:101300002CB111F8014F03F8014B934209D04D78ED
:101310001C4604F8015B8D7802315D70631C9342BA
:10132000F5D1BDE8F00370470346DEE70346DDE78D
:1013300041462246D9E700BF704700BF704700BF53
:1013400020F0030110F00300C0F1000051F8043B4D
:1013500000F1040C4FEACC0C6FF000021CBF22FA23
:101360000CF213434FF0010C4CEA0C2C4CEA0C4CE1
:10137000A3EB0C0222EA030212EACC1204BF51F8DA
:10138000043B0430F4D013F0FF0F1FBF013013F4FF
:101390007F4F013013F47F0F18BF0130704700BF3B
:1013A000024B13B1024800F005B87047000000007E
:1013B000A90B00080146002002460346FFF794BB34
:1013C000F8B5224D0F460446FFF7B6FFAB685E68DE
:1013D00026F0030606F6EF70C11B0A0B571E3F03EB
:1013E000B7F5805F07DB00212046FEF7F9FEAB680A
:1013F0009919884204D02046FFF7A0FF0020F8BDCD
:1014000079422046FEF7ECFE01300DD0104BA86863
:101410001A68F61B46F00106D71B466020461F607F
:10142000FFF78CFF0120F8BD00212046FEF7D8FE13
:10143000AB68C21A0F2ADEDD064942F001020968D4
:101440005A60401A02490860D5E700BF44040020F2
:1014500050090020500800202DE9F0410D460646B5
:10146000002955D0FFF768FF55F8041CDFF86CC160
:10147000A5F1080421F00103E218DCF80800576820
:10148000904227F0030765D011F00101576032D078
:101490000021D0194068C00706D4DB1990680029E4
:1014A0004AD0D268C260906043F001006060E350AF
:1014B000E1B9B3F5007F2DD35A0A042A66D89809FA
:1014C000383042000CEB820EDEF8082043497245AA
:1014D00062D0506820F003018B4202D29268964598
:1014E000F7D1D368E360A260D4609C603046BDE869
:1014F000F041FFF723BF55F8085C0CF10808641BA6
:10150000A0685B1940453FD0E568C560A860C0E7AA
:10151000BDE8F081D9088A10012000FA02F00CEB36
:10152000C103DCF804109A680843E360A260CCF8B9
:1015300004009C60D460D9E7294DA842B1D143F0A2
:101540000101CCF81440CCF81040E060A06061606C
:10155000E350CBE7FF18CB0707D455F8080C241A43
:10156000E368A2683F18D3609A601E4847F0010103
:10157000036861609F42CCF80840B7D31A4A3046EE
:101580001168FFF71DFFB1E7012182E7142A0CD88B
:1015900002F15B00420095E78010012505FA00F595
:1015A00048681346284348609CE7542A03D8180B20
:1015B0006E30420086E7B2F5AA7F03D8D80B7730A9
:1015C00042007FE740F254518A4203D8980C7C30A5
:1015D000420077E7FC227E2074E700BF440400202D
:1015E0004C0400204C0800204C0900202016000864
:1015F00020090D0A0068656C700068656C703A20FF
:101600006C6973747320616C6C20617661696C61C4
:10161000626C6520636F6D6D616E64730D0A00000E
:10162000F5150008000000003D070008FA15000845
:10163000030406080C1018203000000043000000CE
:10164000180000208C16000800000020540800201C
:10165000540800207C090020F8B500BFF8BC08BC85
:101660009E467047A1130008190100081D070008D5
:10167000BD070008F8B500BFF8BC08BC9E4670471F
:04168000F500000869
:0816840048F4FF7F01000000A3
:10168C000000000080110020FFFFFFFFAAAAAAAAF9
:10169C0068FF1F0000000000000000000403002091
:1016AC006C030020D40300200000000000000000A8
:1016BC00000000000000000000000000000000001E
:1016CC000000000000000000000000003C160008B4
:1016DC0000000000000000000000000000000000FE
:1016EC0000000000000000000000000000000000EE
:1016FC0000000000000000000000000000000000DE
:10170C0000000000000000000000000000000000CD
:10171C0000000000000000000000000000000000BD
:10172C0000000000000000000000000000000000AD
:10173C00000000000000000000000000000000009D
:10174C0001000000000000000E33CDAB34126DE63A
:10175C00ECDE05000B0000000000000000000000A3
:10176C00000000000000000000000000000000006D
:10177C00000000000000000000000000000000005D
:10178C00000000000000000000000000000000004D
:10179C00000000000000000000000000000000003D
:101ACC00180000200000000000000000440400206A
:101ADC00440400204C0400204C040020540400203A
:101AEC00540400205C0400205C04002064040020EA
:101AFC00640400206C0400206C040020740400209A
:101B0C00740400207C0400207C0400208404002049
:101B1C00840400208C0400208C04002094040020F9
:101B2C00940400209C0400209C040020A4040020A9
:101B3C00A4040020AC040020AC040020B404002059
:101B4C00B4040020BC040020BC040020C404002009
:101B5C00C4040020CC040020CC040020D4040020B9
:101B6C00D4040020DC040020DC040020E404002069
:101B7C00E4040020EC040020EC040020F404002019
:101B8C00F4040020FC040020FC04002004050020C8
:101B9C00040500200C0500200C0500201405002075
:101BAC00140500201C0500201C0500202405002025
:101BBC00240500202C0500202C05002034050020D5
:101BCC00340500203C0500203C0500204405002085
:101BDC00440500204C0500204C0500205405002035
:101BEC00540500205C0500205C05002064050020E5
:101BFC00640500206C0500206C0500207405002095
:101C0C00740500207C0500207C0500208405002044
:101C1C00840500208C0500208C05002094050020F4
:101C2C00940500209C0500209C050020A4050020A4
:101C3C00A4050020AC050020AC050020B405002054
:101C4C00B4050020BC050020BC050020C405002004
:101C5C00C4050020CC050020CC050020D4050020B4
:101C6C00D4050020DC050020DC050020E405002064
:101C7C00E4050020EC050020EC050020F405002014
:101C8C00F4050020FC050020FC05002004060020C3
:101C9C00040600200C0600200C0600201406002070
:101CAC00140600201C0600201C0600202406002020
:101CBC00240600202C0600202C06002034060020D0
:101CCC00340600203C0600203C0600204406002080
:101CDC00440600204C0600204C0600205406002030
:101CEC00540600205C0600205C06002064060020E0
:101CFC00640600206C0600206C0600207406002090
:101D0C00740600207C0600207C060020840600203F
:101D1C00840600208C0600208C06002094060020EF
:101D2C00940600209C0600209C060020A40600209F
:101D3C00A4060020AC060020AC060020B40600204F
:101D4C00B4060020BC060020BC060020C4060020FF
:101D5C00C4060020CC060020CC060020D4060020AF
:101D6C00D4060020DC060020DC060020E40600205F
:101D7C00E4060020EC060020EC060020F40600200F
:101D8C00F4060020FC060020FC06002004070020BE
:101D9C00040700200C0700200C070020140700206B
:101DAC00140700201C0700201C070020240700201B
:101DBC00240700202C0700202C07002034070020CB
:101DCC00340700203C0700203C070020440700207B
:101DDC00440700204C0700204C070020540700202B
:101DEC00540700205C0700205C07002064070020DB
:101DFC00640700206C0700206C070020740700208B
:101E0C00740700207C0700207C070020840700203A
:101E1C00840700208C0700208C07002094070020EA
:101E2C00940700209C0700209C070020A40700209A
:101E3C00A4070020AC070020AC070020B40700204A
:101E4C00B4070020BC070020BC070020C4070020FA
:101E5C00C4070020CC070020CC070020D4070020AA
:101E6C00D4070020DC070020DC070020E40700205A
:101E7C00E4070020EC070020EC070020F40700200A
:101E8C00F4070020FC070020FC07002004080020B9
:101E9C00040800200C0800200C0800201408002066
:101EAC00140800201C0800201C0800202408002016
:101EBC00240800202C0800202C08002034080020C6
:101ECC00340800203C0800203C08002000000200E0
:041EDC00FFFFFFFF06
:0400000508000149A5
:00000001FF
