:020000040800F2
:100000000813002049010008C5040008C5040008C1
:10001000C5040008C5040008C5040008C50400089C
:10002000C5040008C5040008C5040008351300080D
:10003000C5040008C5040008DD13000819140008F1
:10004000C5040008C5040008C5040008C50400086C
:10005000C5040008C5040008C5040008C50400085C
:10006000C5040008C5040008C5040008C50400084C
:10007000C5040008C5040008552F0008C504000881
:10008000C5040008C5040008C5040008C50400082C
:10009000C5040008C5040008C5040008C50400081C
:1000A000C5040008C5040008C5040008C50400080C
:1000B000C5040008C5040008C5040008C5040008FC
:1000C000C5040008C5040008C5040008C5040008EC
:1000D000C5040008912F0008C5040008C5040008E5
:1000E000C5040008C5040008C50400080D2A00085E
:1000F000C504000810B5054C237833B9044810B185
:100100000448AFF300800121217010BD5808002081
:1001100000000000A440000808B5064B1BB10648CB
:100120000649AFF300800648016811B1054B03B1E1
:10013000984708BD00000000A44000085C080020AB
:1001400058080020000000001B4880F309880220A6
:1001500080F31488BFF36F8F18488047184C194DEF
:10016000AC423DBF54F8041B54F8042B54F8043B34
:1001700007E09A423EBF51F8040B42F8040BF8E73F
:10018000EEE70020104B114CA3423ABF53F8041B7A
:1001900053F8042B05E091423CBF41F8040BFAE709
:1001A000F2E70B4880470B4880470B4880470B48D5
:1001B0008047FEE77047000008170020B5010008DF
:1001C000A4400008B0400008B0400008B840000853
:1001D00089300008B50100080D2200085D300008D4
:1001E00028B1026811700268013202607047084647
:1001F00002F00EBE002A2DE9F04104460D461646D7
:1002000004DC4FF0200811E0013200E00022A95C7C
:100210000029F9D1B242B4BFC2EB06060E4613F074
:10022000020F0CBF4FF020084FF03008DB070CD452
:10023000374604E020464146FFF7D2FF013F002F3A
:10024000F8DC26EAE677F61B05E0002703E0204607
:10025000FFF7C6FF013715F8011B0029F7D1354616
:1002600004E020464146FFF7BBFF013D002DF8DCCE
:10027000002EACBFB819381CBDE8F0812DE9FF4154
:100280000A9F05460B9E084659B930238DF8043065
:100290008DF80510284601A93A463346FFF7AAFF14
:1002A00038E033B10A2A06D1002904DA4842012491
:1002B00002E01C4600E00024002304A901F8013DEF
:1002C0000C9BA3F13A0E0AE0B0FBF2F302FB130021
:1002D0000928C8BF7044303001F8010D184688461F
:1002E0000028F1D17CB147B1B20706D528462D21AF
:1002F000FFF776FF013F012405E02D2301F1FF38D0
:1003000001F8013C0024284641463A463346FFF7AF
:1003100071FF201804B0BDE8F08100002DE9F04124
:1003200088B006460D46059200240A2784E0252B56
:100330007CD16B78002B00F083806A1C252B74D055
:100340002D2B02D1AA1C012303E0002301E043F07E
:1003500002031146087801323028F8D0002201E06B
:1003600007FB02C208780D46A0F1300C5FFA8CF84A
:100370000131B8F1090FF3D92A2804D1059A0D46A5
:10038000111D126805912978732909D10599081D55
:10039000059009682E48002908BF0146304641E013
:1003A00064290ED18DE80C00059961230293081D84
:1003B000096805900A2230460123FFF75FFF2418E1
:1003C00039E0782906D105998DE80C00081D0590C3
:1003D000612307E058290AD105998DE80C00081D12
:1003E0000590412302933046096810220BE07529DD
:1003F0000BD18DE80C00059961230293081D096853
:1004000005900A2230460023D7E7632913D10599C6
:10041000081D096805908DF81C1000218DF81D102D
:10042000304607A9FFF7E6FEC9E7154629783046AA
:10043000FFF7D6FE013401352B78002B7FF477AF20
:1004400016B1336800221A70204608B0BDE8F0816A
:10045000483D00080FB407B504AA52F8041B002059
:100460000192FFF75BFFBDE80E4004B070470EB489
:100470000FB505AA52F8041B019001A80392FFF7DB
:100480004DFF04B05DF804EB03B0704707B502AB55
:1004900043F8040D1846FFF741FF0EBD064B074A0F
:1004A00018684118914205D9054B0C221A604FF08B
:1004B000FF307047196070470400002000400020A2
:1004C000000F0020684620F007018D46FEE700F18E
:1004D00008034FF0FF3282604360C3600361002372
:1004E0000360704700230361704743685A688B605C
:1004F0004A605A689160596041600861036801333D
:10050000036070470A6810B5531C01D1036907E006
:1005100000F1080300E05B685C6824689442FAD943
:100520005A68086191604A608B60596003680133C2
:10053000036010BD436882689A60826853600369F3
:100540005968814208BF5A60002202611A68013A64
:100550001A60704730B50468034674B1C568026C10
:10056000AD18C5604068854228BFDC60DB6808467E
:100570001946BDE8304003F04DB830BD38B50446EB
:1005800004F1240500F012FF0AE0636A5BB128461B
:1005900000F0EEFD08B100F053FEA36C013BA36434
:1005A000A36C002BF1DC4FF0FF33A36400F00AFFD3
:1005B00004F1100500F0FAFE0AE023695BB1284659
:1005C00000F0D6FD08B100F03BFE636C013B6364B4
:1005D000636C002BF1DC4FF0FF336364BDE83840FF
:1005E00000F0F0BE38B51346026C044632B9056817
:1005F00005BB406800F064FE65601BE063B980687D
:1006000003F008F8A268236CD3186268A3609342D1
:1006100010D32368A3600DE0C06802F0FBFF236CD9
:10062000E2685B422168D2188A42E26002D26268C4
:10063000D318E360A36B0133A36338BD38B5044618
:100640000D4600F0B3FE2368E16B226CA36001FB52
:100650000230013902FB01336060E36000204FF09B
:10066000FF33A0636364A36455B9236983B104F1C4
:10067000100000F07DFD01280AD100F08FFE07E098
:1006800004F11000FFF723FF04F12400FFF71FFF20
:1006900000F098FE012038BD2DE9F04104460E46D9
:1006A0001746D0B1502000F0C9FE0546B0B104FB9A
:1006B00006F0013000F0C2FE8046286040B1EC63D5
:1006C0002E6428460121FFF7B9FF85F84D7005E03B
:1006D000284600F0BFFE454600E005462846BDE836
:1006E000F0812DE9F0434FF0000885B004460D4637
:1006F00001921F46464601E04FF0010800F056FE09
:10070000A26BE36B9A4212D2204629463A46FFF783
:1007100069FF636A3BB104F1240000F029FD012860
:1007200001D100F03BFE00F04DFE012048E0DDF875
:100730000490B9F1000F03D100F044FE48463FE0B9
:10074000B8F1000F02D102A800F044FD00F03AFE1B
:1007500000F0C8FA00F02AFE636C013308BF66643B
:10076000A36C013308BFA66400F02CFE02A801A907
:1007700000F03CFDF0B900F019FED4F83890D4F840
:100780003C8000F01FFEC1450ED104F1100001991C
:1007900000F0CCFC2046FFF7F1FE00F025FB00281E
:1007A000AAD100F0FBFDA7E72046FFF7E7FE00F027
:1007B0001BFBA1E72046FFF7E1FE00F015FB002040
:1007C00005B0BDE8F08370B50646502000F036FE57
:1007D0000446E0B101230025C3634FF0FF33856376
:1007E00045604364056083648560C560056480F886
:1007F0004D6000F11000FFF76AFE04F12400FFF7DE
:1008000066FE204629462A462B46FFF76AFF204609
:1008100070BD38B5044615464FF0500080F311887E
:10082000A06BE26B904215D21A462046FFF7DAFE23
:10083000A36C01330AD1636A73B104F1240000F0A0
:1008400097FC012348B145B12B6006E0A36C01334E
:10085000A36401E0002300E001234FF0000080F3D7
:100860001188184638BD2DE9F0434FF0000885B0D7
:1008700004460D4601921F46464601E04FF001082E
:1008800000F094FDA36B23B320462946E668FFF7EA
:1008900061FE87B9A36B013BA363236813B900F022
:1008A000D5FC6060236983B104F1100000F060FCA6
:1008B00001280AD107E0636AE66033B104F124003D
:1008C00000F056FC08B100F069FD00F07BFD01204E
:1008D00050E0DDF80490B9F1000F03D100F072FD93
:1008E000484647E0B8F1000F02D102A800F072FCC0
:1008F00000F068FD00F0F6F900F058FD636C01337C
:1009000008BF6664A36C013308BFA66400F05AFDFB
:1009100002A801A900F06AFC30BB00F047FDD4F842
:10092000388000F04FFDB8F1000F17D1236833B9BC
:1009300000F03CFD606800F08FFC00F043FD04F126
:100940002400019900F0F2FB2046FFF717FE00F0AB
:100950004BFA002892D100F021FD8FE72046FFF7E7
:100960000DFE00F041FA89E72046FFF707FE00F090
:100970003BFA002005B0BDE8F08300002DE9F74305
:100980004B6817465B6801F108024B60934208BF51
:100990005B68804608BF4B604B680C46D3F80C90F0
:1009A00001F1080663685B686360B34204BF736863
:1009B00063606368DD6807B3EB6C3BB905F1340332
:1009C00010490C221048FFF752FD12E0EA6C05F1C5
:1009D0003403B2FBF7F22AB1E96C0B488DE806004C
:1009E0000A4903E0EA6C0848094900920C22FFF723
:1009F0003EFD4046044902F0C7FE4D45D2D1BDE858
:100A0000FE8300BF4F3D000854090020663D0008EA
:100A1000783D00082DE9F0434B6817465B6801F10B
:100A200008024B60934208BF5B6885B008BF4B600B
:100A30004B688046D3F80C900C4601F108066368B9
:100A40005B686360B34204BF736863606368DD68BA
:100A500000232A6B99B20133D01810F8010CA52895
:100A6000F8D0E86A2A6C890805F1340301900291F4
:100A7000039207490C2207480097FFF7F8FC40460D
:100A8000044902F081FE4D45D9D105B0BDE8F0839F
:100A90008A3D0008880800200E4B10B51A680446ED
:100AA00050600D4A1268904207D20C4A10681968CB
:100AB0000431BDE81040FFF725BD094A10681968E8
:100AC0000431FFF71FFD074B1A68944238BF1C60C2
:100AD00010BD00BF50090020BC08002024090020E0
:100AE0003C090020080000202DE9F74F82460CAF9A
:100AF00050200D461446994697E8800900F09EFC68
:100B00000646002800F0A480BBF1000F03D1A0002E
:100B100000F094FC8346C6F830B0BBF1000F03D15F
:100B2000304600F097FC93E0A2005846A52102F061
:100B3000B3FD336B29460C22013C06F1340003EB74
:100B40008404042F34BFBB464FF0040B02F022FF95
:100B5000351D002386F83F30C6F82CB0C6F848B0E3
:100B600028460193FFF7BEFC06F11800FFF7BAFC18
:100B7000019BCBF1050224F00704B2613661766275
:100B8000F364204651464A4600F0C8FB3060B8F195
:100B9000000F01D0C8F8006000F008FC2F4A13686D
:100BA000013313602E4B1C6834BB1E601368012B8D
:100BB0002AD1DFF8D8904FF0140808FB04900134D4
:100BC000FFF785FC052CF8D1DFF8C480254C4046A2
:100BD000FFF77DFC2046FFF77AFC2348FFF777FC00
:100BE0002248FFF774FC2248FFF771FC214BC3F841
:100BF0000080214B1C6007E0204A126822B91A6865
:100C0000D26ABA4298BF1E601D4AF36A11688B42CD
:100C100088BF13601B4A11683164013111601A4AA0
:100C200011688B4288BF1360184A142000FB032010
:100C30002946FFF75AFC00F0C5FB104B1B6853B167
:100C4000074B1B68DB6ABB4205D200F0A7FB02E042
:100C50004FF0FF3000E00120BDE8FE8F400900208A
:100C600050090020B0090020740800202809002045
:100C7000880900203C0900202409002044090020A4
:100C8000D4090020C4090020B8080020C0080020B2
:100C90009C0900201FB50024402223460D480E4920
:100CA0000094019402940394FFF71EFF0128034669
:100CB0000ED14FF0500080F31188084A1360084BA2
:100CC0001C6001F079FE04B0BDE8104000F042BBAA
:100CD00004B010BD09100008A33D0008440900201D
:100CE000BC080020024B1A6801321A60704700BF2E
:100CF000C809002010B500F059FB034B1C6800F038
:100D000061FB204610BD00BFBC0800202D4B2DE923
:100D1000F0411B68002B4FD12B4B1A6801321A602F
:100D20001B68ABB9294B2A4A196810681860116012
:100D3000284A1168013111601A681168264A11B9F0
:100D40004FF0FF3303E01B68DB68DB685B68136010
:100D50001D4E214B32681B689A4231D31B4D1F4CEC
:100D60002B681B682BB91C4B4FF0FF321A60BDE893
:100D7000F0812B68DB68DF6832687B689A4203D2B7
:100D8000154A1360BDE8F08107F104084046FFF7FB
:100D9000D1FBBB6A1BB107F11800FFF7CBFBFB6A65
:100DA0002268414693420E4A88BF2360142000FB0C
:100DB0000320FFF79AFBD3E70A4B1A6801321A6047
:100DC000BDE8F081C8090020BC0800203C090020D3
:100DD00024090020D009002008000020B8080020C5
:100DE000C0080020CC0900202DE9F84300F0DEFA0D
:100DF000284B1A68013A1A601D68002D42D1264B13
:100E00001C68F4B941E0FB68DC6804F1180004F1E7
:100E10000409FFF78FFB4846FFF78CFBE36A326853
:100E20004946934288BF3360142000FB0380FFF7DC
:100E30005CFB1A4BE26A1B68DB6A9A4228BF0125F9
:100E400003E0174F174EDFF868803B68002BDAD1BC
:100E5000154C23682BB908E0FFF758FF2368013BC6
:100E600023602368002BF7D105E0012D03D00F4A42
:100E70001268012A08D10D4B00221A6000F08EFA88
:100E8000012402E0002400E01C4600F09BFA20460A
:100E9000BDE8F883C809002040090020500900205F
:100EA00074080020B8080020CC0900204C0900205C
:100EB000C00800202DE9F0410446FFF713FF224B44
:100EC00020461D88214B22495B6A224F43EA054593
:100ED0006423B5FBF3F50023237002F055FC1E4B91
:100EE0004FF014081E680136013E08FB06F3F9189E
:100EF000FB581BB120462A46FFF740FD002EF3D1D8
:100F0000164B1A68126822B1196820462A46FFF764
:100F100035FD134B1A68126822B1196820462A461B
:100F2000FFF72CFD0F490B681BB120462A46FFF73F
:100F300025FD0D490B681BB120462A46FFF71EFD13
:100F4000BDE8F041FFF750BF240C00200010004026
:100F5000A63F0008C0080020D40900203C0900205A
:100F6000240900202809002088090020F8B504463B
:100F7000FFF7B8FE0023237020461C4902F004FC52
:100F80001B4B1C4E1D6814270135013D07FB05F363
:100F9000F118F3581BB120465222FFF73BFD002DFC
:100FA000F3D1154B1A68126822B119682046422203
:100FB000FFF730FD114B1A68126822B119682046FC
:100FC0004222FFF727FD0E490B681BB12046442241
:100FD000FFF720FD0B490B681BB120465322FFF79A
:100FE00019FDBDE8F840FFF7FFBE00BFA63F0008AF
:100FF000D4090020C00800203C090020240900205A
:101000002809002088090020F8B5134C134F144E0E
:101010002368D3B1FFF766FE3D68FFF7E5FEA5B193
:1010200000F0C4F9FB68DD68281DFFF783FA336818
:10103000013B33602368013B236000F0C3F9286B58
:1010400000F008FA284600F005FA064B1B68012B51
:10105000DED900F0A3F9DBE7B4080020280900205E
:1010600040090020C008002010B5044678B1FFF701
:1010700039FE094B1B68E418084B18680430FFF769
:1010800059FA2046FFF708FDFFF7AEFE18B9BDE894
:10109000104000F083B910BDBC08002050090020AA
:1010A0001A4B10B51B6813B10122194B2CE0194BD8
:1010B0001A88194B5B6A43EA0242184B1968184BAD
:1010C000CC6C18681A60201A8018C864154B164931
:1010D000142202E018680138186018685043085854
:1010E0000028F7D00F4B104A1B68142101FB032383
:1010F0005A6803F1080152685A608A4204BF526874
:101100005A605B68DA68054B1A6010BDC809002098
:101110004C090020240C0020001000405009002041
:1011200048090020B8080020C008002038B50D4C40
:101130000D4621681831FFF7E5F920680430FFF704
:10114000F9F96B1C06D1216807480431BDE8384025
:10115000FFF7CBB9054B18682818BDE83840FFF7F2
:101160009BBC00BF5009002088090020BC0800205B
:1011700038B5C368DC6804F118052846FFF7DAF9CA
:101180000F4B1B6873B9251D2846FFF7D3F90D4A8D
:10119000E36A11688B4288BF13600B4A142000FB7E
:1011A000032000E009482946FFF79FF9084BE06A51
:1011B0001B68DB6A984234BF0020012038BD00BFA5
:1011C000C8090020B8080020C008002074080020CA
:1011D00050090020034B1B680360034B1B684360EE
:1011E000704700BFD0090020BC08002038B50D466C
:1011F000044600F0DBF82B685A1C16D00E4A116822
:10120000226891420D4A03D01068616888420ED26C
:1012100011686268891A994209D20849204609680A
:10122000521AD3182B60FFF7D5FF002400E00124E9
:1012300000F0C8F8204638BDD0090020BC080020C6
:10124000014B01221A6070474C090020014B1868BD
:10125000704700BF5009002070B5164DC36A2A6858
:101260000446D26A934223D22A681421D26AC2F178
:1012700005028261104A01FB032342699A4214D19C
:10128000061D3046FFF756F92B680C4ADB6A1168D9
:10129000E3628B4288BF1360074A142000FB0320DF
:1012A0003146BDE87040FFF720B92B68DB6AC362A6
:1012B00070BD00BF50090020C0080020B808002001
:1012C00038B50446D0B1C26A836C9A4216D0051D67
:1012D0002846FFF72FF9A36CC3F10502A261084A63
:1012E000E36211688B4288BF1360064A142000FB3A
:1012F00003202946BDE83840FFF7F7B838BD00BFE6
:10130000B8080020C008002003480068006880F387
:10131000088862B600DF00BF08ED00E04FF0807380
:1013200000E90A00002340F80C3C40F8202C40382B
:1013300070470000064B19680868B0E8F00F80F3AA
:1013400009884FF0000080F311884EF00D0E7047B1
:10135000500900200E4B10B51A68002442F47002A8
:101360001A601A6842F070421A6001F0D7FB4FF41D
:101370007A73B0FBF3F0074B01380722186043F88B
:10138000042C054B1C60FFF7BFFF204610BD00BFBB
:1013900020ED00E014E000E00C000020024B4FF0D4
:1013A00080521A60704700BF04ED00E04FF050001B
:1013B00080F31188024B1A6801321A60704700BF2F
:1013C0000C000020044A1368013B13601BB94FF066
:1013D000000080F3118870470C000020EFF30980B3
:1013E0000C4B1A6820E9F00F10602DE908404FF00F
:1013F000500080F31188FFF753FE4FF0000080F398
:101400001188BDE8084019680868B0E8F00F80F35B
:10141000098870475009002008B5074B4FF08052EB
:101420001A604FF0500080F31188FFF76FFC4FF007
:10143000000080F3118808BD04ED00E010B50446FB
:10144000FFF750FC204601F043FE0446FFF7CCFCBA
:10145000204610BD10B5044640B1FFF743FC2046BE
:1014600001F040FEBDE81040FFF7BEBC10BD0369AF
:1014700030B501F10902002B37D043690025104631
:101480005C5D0246202C08D0052C08BFE524013500
:1014900000F8014B082D0246F2D11C7A202C0DD009
:1014A0002E2200F8012B08241D5D0246202D05D0B8
:1014B000013400F8015B0B2C0246F5D1D87A087292
:1014C000987FDC7F000440EA04601C7F20435C7F3F
:1014D00040EA042008605C7E187E40EA0420888090
:1014E000D87D9B7D43EA0023CB800023137030BD61
:1014F0002DE9F041056B04468D420E462AD0037952
:10150000E3B100F13408414640782A46012301F056
:10151000FDF810BB226A636A2071D3189D420DD278
:10152000E77809E0236A6078ED1841462A460123EE
:1015300001F0ECF8013FFFB2012FF3D886B16078DB
:1015400004F134013246012301F09CF858B92663B6
:10155000BDE8F0810020BDE8F0810120BDE8F08108
:101560003046BDE8F0810120BDE8F08103468A7E67
:10157000C87E032B42EA002005D14A7D0B7D43EA59
:10158000022340EA0340704710B504460A464078FB
:1015900004F13401012301F075F880BB94F8323274
:1015A00094F8332243EA0222174B12B29A4228D10E
:1015B00094F86C2094F86D30120442EA036294F8B7
:1015C0006A301A4394F86B3042EA03220F4B22F040
:1015D0007F429A4216D094F8880094F8892000043B
:1015E00040EA026094F88620104394F8872040EA8D
:1015F000022020F07F40C01A18BF012010BD032038
:1016000010BD022010BD00BF55AAFFFF4641540087
:101610002DE9F041164602680D461378303B092B40
:1016200005D851783A2902D10232026000E0002345
:1016300000222A60002B40F06281BD4B1C68002C08
:1016400000F06081E06800F01FFD002800F05D817F
:101650002C60237873B1607801F008F8C30709D4CF
:10166000002E00F0558110F0040F0CBF00200A205E
:10167000BDE8F08100202070607000F049FFC107D4
:1016800000F1498116B1420700F14881002120464E
:10169000FFF77AFF012817D194F8F631002B00F0FC
:1016A000438194F8FC6194F8FD31360446EA036600
:1016B00094F8FA3120461E4394F8FB3146EA03269B
:1016C0003146FFF761FF00E00026032800F0298182
:1016D000002840F0298194F8402094F83F3043EAF4
:1016E0000223B3F5007F40F01F8194F84B0094F87B
:1016F0004A3053EA00200DD194F85A0094F85B3038
:10170000000440EA036094F85830184394F85930C4
:1017100040EA032094F8445020626B1EDBB2012B98
:10172000E57000F2018194F84110A170002900F0E9
:10173000FB804B1E0B4240F0F78094F8453094F844
:10174000462043EA02221307228140F0ED8094F8FC
:10175000487094F8473053EA07230DD194F8563077
:1017600094F857701B0443EA076394F854703B43A2
:1017700094F8557043EA072394F843C094F84270F4
:1017800057EA0C2C00F0D08005FB00F80CEB121788
:101790004744BB42C0F0C880DB1BB3FBF1F3002B16
:1017A00000F0C28040F6F5718B4206D94FF6F57510
:1017B000AB428CBF0325022500E001250233BF198F
:1017C00006EB0C01032DE361E762616213D1002A8D
:1017D00040F0AA8094F8622094F86310120442EA60
:1017E000016294F860109B000A4394F8611042EA89
:1017F0000122A2620EE0002A00F096804144022DF0
:10180000A16201D15B0005E003225A4303F001030A
:1018100003EB520303F5FE730333B0EB532FC0F019
:1018200091804FF0FF3363610023032D23615AD170
:10183000637194F8652094F86430607843EA02227A
:10184000B218A26104F13401012300F01BFF00284B
:1018500049D194F8323294F8332243EA0222354BCC
:1018600012B29A423FD194F8362094F837301204DD
:1018700042EA036294F834301A4394F8353042EA6D
:1018800003222D4B9A422ED194F81A2294F81B323F
:10189000120442EA036294F818321A4394F8193297
:1018A00042EA0322254B9A421DD194F8223294F841
:1018B00023221B0443EA026394F82022134394F882
:1018C000212243EA0223236194F81E3294F81F2256
:1018D0001B0443EA026394F81C22134394F81D226C
:1018E00043EA02236361164A0020138825700133FE
:1018F0009BB21380E38020632071BDE8F0810B2050
:10190000BDE8F0810C20BDE8F0810F20BDE8F0813A
:101910003046BDE8F0810320BDE8F0810A20BDE833
:10192000F0810120BDE8F0810D20BDE8F08100BF0D
:10193000DC09002055AAFFFF5252614172724161D9
:10194000D80900200D20BDE8F08100BF036810B564
:10195000044693B11A7882B1D988828891420CD119
:10196000D86800F091FB50B12368587800F07EFEF3
:1019700010F0010018BF032010BD092010BD0F207A
:1019800010BD50B10C2908D00B2906D0092904D06C
:101990000F2902D0C06800F084BB7047C3690239C8
:1019A000023B994204D28278C36A02FB013070473D
:1019B000002070470129F8B504460D465BD9C3697C
:1019C00099425AD20378022B28D0032B36D0012B10
:1019D0004ED101EB5106416A01EB5621FFF788FD1C
:1019E000002845D1616AF305013604EBD35301EBBE
:1019F0005621204693F83470FFF77AFD002837D13E
:101A0000F60504EBD65494F83400EA0747EA0020C0
:101A100001D50009F8BD0005000DF8BD416A01EBD4
:101A20001521FFF765FD18BB2D0604EBD55494F87E
:101A3000350094F8343043EA0020F8BD416A01EBE8
:101A4000D511FFF755FD98B96D0604EBD55494F800
:101A5000360094F83730000440EA036094F83430DC
:101A600094F83570184340EA072020F07040F8BD24
:101A70004FF0FF30F8BD0120F8BD0120F8BD70B572
:101A800004460D46E1808168012938D00368DA698F
:101A9000914234D271B91A78032A01D1996A49B9AD
:101AA0000022E2601A89AA4229D99B6A03EB151326
:101AB000236119E09E7836010DE02068FFF77AFF78
:101AC0000146013019D0012919D92368DB699942EF
:101AD00017D2AD1BADB2B542EFD2E1602068FFF77F
:101AE0005DFF00EB15102061236805F00F0534330E
:101AF00003EB45156561002070BD012070BD02201B
:101B000070BD022070BD0129F8B504460D46164689
:101B100070D9C36999426FD20378022B3AD0032B54
:101B200048D0012B62D101EB5107416A01EB5721EB
:101B3000FFF7DEFC00285AD1FA05D20D15F0010599
:101B4000F3B207D0A11891F8341001F00F0141EA67
:101B50000313DBB2A218616A82F834300137012323
:101B6000237101EB57212046FFF7C2FC00283ED12C
:101B7000FF05FF0D15B1C6F3071607E0E31993F84B
:101B80003430C6F3032623F00F031E43E71987F80A
:101B900034602CE0416A01EB1521FFF7A9FC30BB52
:101BA0002D0604EBD55585F83460C6F3072685F875
:101BB00035601CE0416A01EBD511FFF799FCB0B923
:101BC0006D0604EBD55595F837301B0603F07043CE
:101BD0001E43C6F3072385F8346085F83530330C8F
:101BE000360E85F8363085F8376000E00220012394
:101BF0002371F8BD0220F8BD0220F8BDF8B50446F7
:101C00000E4631B907696FB1C3699F4228BF0127EA
:101C100009E0FFF7CFFE012837D9E369984239D3AD
:101C2000374600E001273D46E36901359D4202D376
:101C3000012F2CD9022520462946FFF7BBFE30B1E3
:101C4000411C27D0012825D0BD42EDD11FE0204600
:101C500029466FF07042FFF756FF80B92EB120463B
:101C600031462A46FFF74FFF48B9636925615A1C80
:101C70000FD0013B6361012363712846F8BD012841
:101C800014BF01204FF0FF30F8BD0120F8BD002047
:101C9000F8BD2846F8BD2DE9F041C6880446013656
:101CA000B6B20F46002E67D00369002B64D032070E
:101CB00057D1C16801330361006819B90389B34280
:101CC0005AD94EE08378013B13EA161349D1FFF746
:101CD00071FE0128054655D9431C56D02068C369BA
:101CE0009D4238D3002F47D0E168FFF787FF0546B4
:101CF000002844D0012845D0013046D0206800217A
:101D0000FFF7F6FB002840D1226803463432135413
:101D10000130B0F5007FFAD1276829463846FFF731
:101D20003DFE4FF00108386300270DE083F8048082
:101D300020680021FFF7DCFB002829D12368013748
:101D40001A6BFFB201321A6323689A78BA42EDD84F
:101D50001A6BD71B1F63E56020682946FFF71EFE3C
:101D600020612368E680343306F00F0603EB461645
:101D700066610020BDE8F0810420BDE8F081072005
:101D8000BDE8F0810220BDE8F0810120BDE8F081CE
:101D90000120BDE8F08100002DE9F8430B780446EE
:101DA0002F2B0D4601D05C2B00D101350026A660FB
:101DB0002B781F2B06D820463146FFF760FE666160
:101DC000BDE8F88320272B782E4601352F2BFAD03B
:101DD0005C2BF8D0A0690023C75401330B2BFBD137
:101DE00000210D464FF0080C0A46735D0135202B8B
:101DF00039D92F2B39D05C2B37D02E2B01D0614510
:101E00000CD3BCF1080F40F085802E2B40F082806F
:101E100092006146D2B24FF00B0CE6E713F0800F50
:101E200078D1DFF8FC8018F8019BB9F1000F02D0DF
:101E30009945F8D16EE0A3F141085FFA88F8B8F14E
:101E4000190F02D842F002020AE0A3F161085FFA1A
:101E500088F8B8F1190F03D8203B42F00102DBB239
:101E600043540131C1E7042300E00023002951D08D
:101E70000178E52901D105210170BCF1080F01D1DC
:101E80009200D2B202F00301012902F00C0208BF55
:101E900043F01003042A08BF43F00803C372002173
:101EA0002046FFF7ECFDE0B920682169FFF720FB31
:101EB000B8B9626913789BB1D37A19070BD4A169B9
:101EC000034601E00B2B0CD012F8038011F803C07D
:101ED0000133E045F6D020460021FFF7DCFEE2E7C3
:101EE0000420A369DB7A40B1042817D113F0040F52
:101EF00014BF04200520BDE8F8835B070ED4616998
:101F0000CB7AD80609D5236875191878FFF72EFB08
:101F1000A06058E70620BDE8F8830520BDE8F883F7
:101F2000A83D000810B50423044613E02068FFF71D
:101F3000DFFAC8B962691378ABB1E52B04D02E2B58
:101F400002D0D37A1B070DD520460021FFF7A3FE50
:101F5000034648B921690029E8D1184613B1002287
:101F60002261184610BD04200346F8E770B5054607
:101F70000C4698B90C4B1E6826B1F06800F082F848
:101F800070B1357034B10020214601F80C0B00F01F
:101F90006FF838B1044B00201C6070BD0B2070BD81
:101FA000022070BD022070BDDC09002070B586B033
:101FB0000446019100282BD001A821460022FFF7FA
:101FC00027FB26680546E0B903ABA36120460199CB
:101FD000FFF7E2FE054678B9616931B1CB7AD806E0
:101FE0000ED53078FFF7C2FAA060F3882046A380B0
:101FF0000021FFF744FD0546042D01D01DB100E08E
:1020000005250023236030462946FFF7BAFC00E08F
:102010000925284606B070BD7FB504460E46FFF779
:1020200095FC0546E8B926B920462946FFF727FD65
:1020300016E001ABA3612046FFF774FF042801D12D
:10204000256100E060B920463146FFF710FA002113
:102050002046FFF720FE042802D10023236100E080
:10206000054620682946FFF78CFC284604B070BD61
:1020700010B501200C46FEF7A6FB2060003018BF0B
:10208000012010BD01207047002108B54FF47A727D
:102090000B46FEF7E8FBA0F10103584240EB0300BA
:1020A00008BD00210A460B46FEF71BBBF8B54FF4EE
:1020B000806014461F46FFF7C1F90546D8B1FEF708
:1020C00055FF284601F0E4FB00F14603BB420646FB
:1020D0000CD220460949452201F09CFA04F1450042
:1020E000721C294601F096FA002400E019242846C3
:1020F000FFF7B0F900E0FE2460B2F8BD363F0008FB
:10210000F8B54FF4806014461F46FFF797F905466F
:10211000D8B1FEF7CFFE284601F0BAFB00F13E032E
:10212000BB4206460CD2204609493D2201F072FA14
:1021300004F13D00721C294601F06CFA002400E015
:1021400019242846FFF786F900E0FE2460B2F8BDA6
:10215000B73D00082DE9F0418EB0012901AE8CBFDA
:1021600041681C49304614461D46FFF71FFF5FFAC1
:1021700080F8B8F1000F19D027E0304601F088FB55
:1021800018B303306B1E98421DD82D1A31462046D5
:1021900001F0CEFA9DF82830DB0602D50D4901F09A
:1021A000C7FA0D4901F0C4FA044602E037460DF1C2
:1021B0002906384608A9FFF72FFF5FFA80F8B8F123
:1021C000000FDAD001E04FF019084FFA88F00EB096
:1021D000BDE8F081083E0008A63F000813B5FEF7F1
:1021E00089FD02AC672304F8013D21460122482005
:1021F00000F05AFC6420FEF737FF65234820214693
:1022000001228DF8073000F04FFCFEE71FB5294B87
:1022100001221A60284B1A6822F4C05242F400626C
:102220001A605A68D206FCD4244B01221A60043387
:102230001A68002AFCD02249224A002000F074FCCF
:1022400000F072FB00F0F8FB00F05EFD00201E497C
:10225000FFF78CFE044630B11C481D4979221D4B06
:10226000FEF7F8F8FEE707211B4840F2011200F0E4
:1022700063FB402219481A492346009401940294B2
:102280000394FEF731FC013810F0FF0F06D00F4821
:1022900014497C220F4BFEF7DDF8FEE7124800F0F0
:1022A00021FB124800F01EFB114800F01BFBFEF75B
:1022B000F1FCFEE7F0044742007000400000474296
:1022C0000024F4000048E801E40900200A3E000868
:1022D000323E00083C3E000800040240DD210008B8
:1022E000453E00084F3E0008F83D00088C3F0008BE
:1022F0007C3F000808B58120FFF7A0F8014B18606B
:1023000008BD00BFE0090020FFF798B808B1FFF74B
:10231000A1B8704707B5044B01221A6000200DF1E7
:10232000070100F0A1FC0EBDB002414273B5FEF7FB
:10233000E1FC0DF10704064621460020012200F0D1
:1023400093FC40F2E73500200122214600F08CFC8E
:102350009DF80730FF2B04D0FEF7CCFC801BA84271
:10236000F1D99DF807007CBD37B50D460021030665
:1023700004468DF8071006D500F07F047720FFF79C
:10238000F3FF8DF807009DF80730012B46D8FF2397
:102390008DF80730FFF7BEFF224B00221A60FFF7CF
:1023A000C5FFFF2802D0FFF7B5FF37E02B0E8DF8F1
:1023B00001302B0C8DF802302B0A402C8DF8004098
:1023C0008DF803308DF8045001D1952304E0482C9A
:1023D00001D1872300E001230021062268468DF801
:1023E000053000F041FC062818D14C2C05D1002006
:1023F0000DF10701012200F037FC0A240020012220
:102400000DF1070100F030FC012803D19DF90730E0
:10241000002B03DA013CE4B2002CEFD19DF8070059
:102420003EBD00BFB00241427FB502228DF80710C9
:1024300000241F49064603A801F0ECF88DF80F4070
:10244000FFF774FFFF282FD101220DF1070021466D
:1024500000F00AFC0128054626D19DF80730FD2B27
:1024600020D0304621464FF4007200F0FDFBB0F55D
:10247000007F19D1022203A8214600F0F5FB0228B3
:1024800012D120460DF107012A4600F0EDFB01288C
:102490000AD19DF8073003F01F03052B04D18DF8F6
:1024A0000F0001E08DF80F009DF80F0004B070BD23
:1024B0009C3F000837B5002304468DF804308DF8A2
:1024C0000530FEF717FC05460020012201A900F0A7
:1024D000CBFB9DF80430FF2B04D1FEF70BFC401B17
:1024E000C728F1D99DF804300020FE2B0ED12146DB
:1024F0004FF4007200F0B8FBB0F5007F4FF0000021
:1025000004D101A9022200F0AFFB01203EBD000072
:10251000F0B54F4D85B02B7804465BB94D480C2182
:1025200040F2011200F008FA4B4B01261E6000F049
:102530005FFB2E70002C78D1484B1B78DA0776D5DC
:10254000474800F077FB0A2201A9204600F08CFBE7
:1025500040202146FFF708FF012856D1FEF7CAFBAD
:102560004FF4D57105464820FFF7FEFE01282CD117
:102570000422204601A900F077FB9DF80630012BCC
:1025800043D19DF80730AA2B3FD140F2E734FEF744
:10259000B1FB401BA0424DD8E9204FF08041FFF72E
:1025A000E3FE0028F3D145E07A200021FFF7DCFEAE
:1025B00050BB042201A900F057FB9DF8043013F032
:1025C000400F0CBF04240C241FE0E9202146FFF734
:1025D000CBFE01288CBF012402248CBF4127E927B0
:1025E00040F2E736FEF786FB401BB04229D838465A
:1025F0000021FFF7B9FE0028F4D122E050204FF46B
:102600000071FFF7B1FE00B10024164B1C70FFF7FC
:1026100081FE3CB1114B14481A7802F0FE021A7088
:1026200000F008FB0D4B187802E0012000E0204686
:1026300005B0F0BDFEF75EFB451BB5F57A7FE3D232
:10264000B2E7FEF757FB451BB5F57A7FDCD2D5E73D
:10265000180C002000080240B00241421000002087
:10266000A0860100190C002080969800044B1A786F
:1026700002F0FD021A7008B91878704701207047FF
:102680001000002038B50C461D461146002834D1F4
:10269000002B32D01B4B1A78D20730D41A7802F0B4
:1026A000FD021A70184B1B78180758BF4902012DFC
:1026B0000BD15120FFF758FEC8B92046FFF7FAFEAC
:1026C000D0F1010538BF002511E05220FFF74CFE84
:1026D00068B92046FFF7EEFE28B1013DEDB204F5E2
:1026E0000074002DF5D14C200021FFF73DFEFFF7CF
:1026F00011FE281C18BF012038BD042038BD03205E
:1027000038BD00BF10000020190C002070B50C4629
:1027100015461E46002845D1002B43D0244B1A787D
:10272000D20741D41A7802F0FD021A701B785807BC
:102730003CD4204B1B78190758BF6D02012E0DD1D8
:1027400058202946FFF710FE30BBFE212046FFF738
:102750006BFED0F1010638BF00261DE013F0060F16
:1027600003D0D7203146FFF7FFFD59202946FFF758
:10277000FBFD88B92046FC21FFF756FE28B1013E3B
:10278000F6B204F50074002EF4D10020FD21FFF70D
:102790004BFE002808BF0126FFF7BCFD301C18BF08
:1027A000012070BD042070BD032070BD022070BDEB
:1027B00010000020190C00202DE9F84314460F4AA0
:1027C0005F1E156890460FE0AB68D3F80C90484642
:1027D00001F05EF8874206460BD320464946324652
:1027E00000F018FF2D68A4194545EDD10020207098
:1027F00000E0192040B2BDE8F88300BF1C0C0020A7
:1028000038B50446006803E00568FFF77FFD2846F9
:10281000A042F9D138BD00002DE9F04F00230B7024
:10282000254B85B082460F4693461C6898463AE091
:10283000A6683568284601F02BF85146024628461E
:1028400001F056F8054600282CD1736803F1010900
:102850004FEA8900FEF7F2FD0446002827D08046A3
:102860005046AA4611E0154903AA01F0F7F80346BD
:1028700068B1019301F00CF8019B202888BF83F810
:1028800020A048F8043B013500204D45EBD32946F4
:10289000B66820463A465B46B04705462046FEF7F6
:1028A000D9FD05E024684445C2D1182500E0FE2585
:1028B00068B205B0BDE8F08F1C0C0020A43F0008F2
:1028C00038B504460C200D46FFF71EFD20B100234D
:1028D000036043602B6883602146BDE8384000F008
:1028E0009FBB000007B502A941F8040D0148FFF79E
:1028F000E7FF0EBD1C0C002010B5074C0749204611
:1029000024606460FFF7DCFF0549064A2046BDE805
:10291000104000F08DBB00BF1C0C0020A03F000841
:102920000128000800000020024BDA6942F0FF0293
:10293000DA617047003802404B00F0B503249C4038
:1029400002F00F059D400668E443264035430560CC
:10295000012515FA01F68788BFB227EA0607C2F3F8
:1029600003168E403E43B6B28680C2F303269E40D5
:10297000876827403E438660C6683440C2F303360A
:1029800016FA03F3072943EA0403C36003D908399D
:10299000C9B22B4600E0002389000F248C40C2F30B
:1029A000034212FA01F1083350F8235025EA0404D7
:1029B000214340F82310F0BD38B5104B01251D60B0
:1029C0000F4B104C9A6842F010029A600023636229
:1029D00000F0A4F842F21073B0FBF3F001384FF6A8
:1029E000FF7380B22085E362074BA022A58125807A
:1029F00083F82B234FF400625A6038BD900447429D
:102A0000002004E00010004000E100E0084B6846B0
:102A10001A8820F00701013292B28D4601B51A8062
:102A2000044B00221A82BDE801408546704700BF72
:102A3000240C00200010004038B5134C134D2246E2
:102A400028460821FFF778FF224609212846FFF78C
:102A500073FF0F4B01241C6000F060F80D4B002247
:102A60001C601A600C4A0D4BB0FBF2F292B21119C5
:102A700089B219840A49B0FBF1F080B298839A8038
:102A8000084B1C6038BD00BF120304000004024064
:102A9000D40447423C800A4240420F0000540040A8
:102AA000400D030000800A42164B30B501241C6023
:102AB00003F518731C68002CFCD0134B400000F089
:102AC000FE009C8A188211480468002CFCD0988A69
:102AD0000F4C1B8B0C48002305E02568002DFCD013
:102AE000CD5C013305829342F7D1094A094B116845
:102AF0000029FCD019680129F9D0074B01221A607E
:102B000030BD00BF20800A420054004084820A4247
:102B10009C820A4288820A4224800A42014B186839
:102B2000704700BF140000202DE9F0470024DFF8B3
:102B3000B8A0DFF8B890A4462346254615F80A80C9
:102B400001FB08F8C84510D80226B8FBF6F79742F3
:102B500006D89F4204D997423446AC4609D03B463A
:102B60000136052EF1D1934204D00135092DE5D16E
:102B700000E01346174A184D1168000441F00401A3
:102B80001160116840EA8C4C21F0030141F0020110
:102B9000AB4288BF41F001011160013C0F494CEA92
:102BA0008454A2F5806201209460086004310868B2
:102BB0000028FCD0916841F003019160084A9168B7
:102BC00001F00C010C29FAD1064A18461360BDE841
:102BD000F08700BF003C02400024F4006000474240
:102BE0000038024014000020E43F000800D8B80577
:102BF00038B50C4D0C4C28460B212246FFF79CFEA5
:102C000028460C212246FFF797FE2246284605213A
:102C1000FFF792FE054B01221A60054B4FF45172EB
:102C20001A8038BD000002400213050030044742FC
:102C30000030014010B50446FFF770FF0023400844
:102C4000A04204D9072B02D040080133F8E7054A17
:102C5000118889B221F0380141EAC3039BB2138085
:102C600010BD00BF0030014003460E48F0B51446C9
:102C7000FF2507460C4E10E00BB113F8015B858170
:102C8000D6F800C0BCF1000FFAD0B7F80CC01FFA9C
:102C90008CFC09B101F801CB013C002CECD11046B1
:102CA000F0BD00BF003001400001264273B5114E57
:102CB000114D0024002369464FF0FF323068FDF7C4
:102CC000D2FD00210B4628684FF0FF32FDF7CBFD07
:102CD0000A4B9C4202D32046FEF7BCFB084B002265
:102CE0001A60019C074ADC609A60009A5A6093223D
:102CF0001A60DFE7440E0020C80E0020000000200C
:102D000044600240043801401FB534480921344A68
:102D1000FFF712FE0A21324A3048FFF70DFE314B11
:102D200001241C60FFF7FAFE4FF4E13300F5614027
:102D3000B0FBF3F02C4B80B242F22C0218819A8146
:102D400080229A82294BA022202183F825235960D2
:102D5000274920460C6083F80E234FF480421A6006
:102D600000210322FDF798FC224C206020B10021B5
:102D70000A460B46FDF7B5FC236853B31020082123
:102D80000022FDF789FC1C4B186010B3102018219D
:102D90000022FDF781FC194B1860D0B100230124FB
:102DA0001748184980220193029303930094FDF77A
:102DB0009BFE431EDBB26BB9134814494FF480727B
:102DC0000193029303930094FDF78EFE431EDBB242
:102DD00000E0FE2358B204B010BD00BF0000024066
:102DE00002130700380447420038014000E100E0C8
:102DF000E0034742C80E0020440E0020280E0020A9
:102E0000AD2C0008ED3F0008C52E0008F63F000875
:102E1000034B1A68002AFCD0024B9880704700BF11
:102E20001C0027420038014037B505460C4600F02B
:102E30002FFD0090E8B1114B9D4208D3FEF7FEFA3A
:102E40000190C0B12946009A00F0E4FB00E0019532
:102E50000B4B2246186869460023FDF742FC441ECE
:102E6000E4B24CB10198054B984205D3FEF7F2FA53
:102E700002E0044600E0FE2460B23EBD00000020F7
:102E8000440E00200EB477B5079E0546304600F08C
:102E9000FFFC4000FEF7D2FA044668B108AA3146AA
:102EA0000192FDF7F3FA29462046FFF7BDFF0546DC
:102EB0002046FEF7CFFA00E0FE2568B2BDE87E406E
:102EC00003B070472DE9F041002486B00DEB0403F8
:102ED0001B4E5D1D00E03C464FF0FF320023306882
:102EE0006946FDF7C0FC009AA7187F2F05D9154841
:102EF0000021FFF799FF0027EDE7DFF8548029460E
:102F000008EB040000F086FB9DF80430022BE2D1B0
:102F1000002440460C494FF4007208F80740FFF7C0
:102F20007BFC074620B939460748FFF77DFFD2E70B
:102F30003A4620460549FFF7A5FF2746CBE700BFE5
:102F4000280E0020FF3F0008260C00204840000803
:102F5000480E0020684620F007018D4601B50A4B57
:102F600082B00021186801AA0B46FDF752FC074BFE
:102F700001221A60019B0BB1FEF710FA02B0BDE806
:102F800001408546704700BFC80E0020B4004C4287
:102F9000684620F007018D4671B51D4C83B00023B3
:102FA00001931C4E254627E01B4B22689B88A118E5
:102FB000DBB24B71217901320129226004D10A2B45
:102FC00002D10223237105E00D2B01D1012300E082
:102FD00000232B710F2A02D82B79022B0CD10F4B17
:102FE00001AA18680A490023FDF713FC227900237F
:102FF000022A236008BF23713368002BD4D1019BC0
:103000000BB1FEF7CBF903B0BDE8714085467047C0
:103010002C0E00201400274200380140280E00200A
:103020004A68016042604B6848601860704700BFA2
:1030300003460846194600F007B800BF01460020C5
:103040000246034600F00CBD10B40C461346014680
:103050002246022010BC00F003BD00BF38B5084D69
:10306000084C641BA41006D005EB840555F8043DFC
:103070009847013CFAD1BDE8384001F02BB800BFB9
:10308000E0400008E440000870B50D4D0D4E761B81
:10309000B61006D0002455F8043B01349847A642E8
:1030A000F9D1094D094E01F007F8761BB61006D08C
:1030B000002455F8043B01349847A642F9D170BD6D
:1030C000C4400008C4400008C4400008D4400008C0
:1030D00040F21803C2F200031B680146184600F0D4
:1030E0000BB800BF40F21803C2F200031B68014690
:1030F000184600F063BD00BF2DE9F84F01F10B0445
:10310000162C054626D934F0070426D4A14224D82B
:10311000284600F009FBB4F5FC7F24D2B24E4FEAFA
:10312000D40E06EBCE03DF689F4200F0D2817B68AD
:10313000FA6823F00303FB185868B96840F00100EF
:103140005860CA609160284600F0F0FA08373846A7
:10315000BDE8F88F1024A142DAD90C2300272B6098
:103160003846BDE8F88F5FEA542E00F08780BEF144
:10317000040F00F24C814FEA941E0EF1380E4FEA14
:10318000CE01994E7118CF68B94205D10CE0002BE1
:1031900079DAFF68B94207D07A6822F00302131B7C
:1031A0000F2BF4DD0EF1FF3E0EF1010E8E4A376952
:1031B00002F1080C674500F06A817B6823F0030385
:1031C000191B0F2900F350810029C2F814C0C2F85E
:1031D00010C068DAB3F5007F80F02781DB08991012
:1031E0004FF0010808FA01F802EBC3035168986830
:1031F00048EA0101FB60B86051609F60C760012030
:103200004FEAAE039840884259D8014206D12EF0C9
:10321000030E400001420EF1040EFAD006EBCE0977
:103220004F46F046FB689F4207D132E1002A80F208
:103230005981DB689F4200F02C81596821F003011D
:103240000A1B0F2AF2DD1F46D86857F808EF191934
:1032500042F0010844F00104CEF80C00C0F808E088
:103260005C6071613161C1F80CC0C1F808C0C1F87F
:1032700004808A50284600F059FA68E74FEAD40ED5
:103280004FEACE017DE7BA185068FB68B96840F094
:1032900001005060CB6028469960083700F046FA7C
:1032A0003846BDE8F88FFB185A68284642F00102FC
:1032B0005A60083700F03AFA3846BDE8F88FB76828
:1032C0007B6823F003094C4504D8C4EB09020F2A9C
:1032D00000F38E80DFF814A1D6F80824DAF8003065
:1032E0000132234400F0478103F580530F3323F468
:1032F0007E6323F01F0B28465946FDF7CFF8B0F147
:10330000FF3F804600F0408107EB0902824200F255
:103310000181DAF8043042455B44CAF8043000F019
:103320003881D6F80814013100F04481C2EB08025C
:103330009B18CAF8043018F0070300F0FE80C3F1B0
:103340000802C3F58053904403F1080208EB0B0315
:103350001B051B0DC3EB020B28465946FDF79EF8D3
:10336000431C00F03381C8EB00025A4442F00102D2
:10337000DAF80430B7425B44C6F80880CAF8043073
:10338000C8F8042015D0B9F10F0F40F2E380796836
:10339000A9F10C0222F0070201F0010E0520B91874
:1033A00042EA0E0E0F2AC7F804E04860886000F277
:1033B0000581DAF82C20B768934284BF0B4AD362A8
:1033C000DAF83020934284BF084A13637A6822F007
:1033D0000302944202D8121B0F2A09DC284600F08F
:1033E000A5F90027B3E600BF48040020CC0E00205A
:1033F0003B1942F0010244F001047C6028465A6007
:103400000837B36000F092F93846BDE8F88FBEF196
:10341000140F76D9BEF1540F00F285804FEA143EA6
:103420000EF16E0E4FEACE01ABE65A0A042A6DD9B0
:10343000142A00F2A38002F15B01C80030188268F0
:10344000DFF8C881824203D17AE09268904204D0CA
:10345000516821F003018B42F7D3D3687168FB6098
:10346000BA60D7609F60CAE63B1941F0010044F0A2
:1034700001047C60536113615860C3F80CC0C3F849
:1034800008C05950284600F051F908375FE65168E6
:10349000B5E608F10108083718F0030F7FF4C2AE53
:1034A0004B461EF0030FA3F108020EF1FF3E00F0A1
:1034B000A0801B689342F4D07368400098423FF6A6
:1034C000FEAE00283FF4FBAE184200F09780C646DF
:1034D000A4E607F108037F69BB427FF428AE0EF132
:1034E000020E63E6591848681F4657F8082FDB6834
:1034F00040F001004860D3609A60284600F016F959
:1035000025E60EF15B0E4FEACE013AE69909383115
:10351000C80093E7B7423FF4FCAE3C4B9F687A6823
:1035200022F0030255E7BEF5AA7F19D84FEAD43E30
:103530000EF1770E4FEACE0123E64FF4805205E7F5
:10354000891001208840D8F8041013460143C8F8B8
:10355000041084E70123C8F804304746002238E706
:1035600040F254539E4520D84FEA944E0EF17C0E03
:103570004FEACE0105E603F1100BBCE6542A29D828
:10358000190B6E31C80059E7B7687A6822F0030258
:103590001FE71105090D00297FF4C3AEB2680BEBDC
:1035A000090141F00101516003E74FF47C714FF0D4
:1035B0007E0EE6E5154BC3F80884BCE607F108016A
:1035C000284600F0FBFA124B5B68F2E601224FF04E
:1035D000000BCDE6B2F5AA7F03D8D90B7731C8002E
:1035E0002CE740F254518A420CD8990C7C31C80027
:1035F00024E7736823EA000373605EE7400008F184
:10360000040861E74FF47C707E2117E7480400202E
:10361000CC0E00200F2AF0B43AD941EA00039B07F0
:1036200038D10C46034615462668103D1E60666874
:103630005E60A6689E60E6681034DE6010330F2D71
:10364000F2D8A2F1100424F00F0402F00F0210349B
:10365000032A00EB0403214411D90E461D461446EB
:1036600056F8047B043C032C45F8047BF8D8141F5F
:1036700024F00304043402F0030209191B192AB1CF
:1036800011F8014B013A03F8014BF9D1F0BC704736
:103690000346F4E70346F3E710F0030F70B4034664
:1036A0003FD0002A3BD0CDB201E0002A37D003F84A
:1036B000015B013A13F0030F1C46F6D1032A28D907
:1036C000CDB245EA05250F2A45EA054513D923461B
:1036D0001646103E1D605D609D60DD6010330F2E4C
:1036E000F7D8A2F1100323F00F0302F00F021033FA
:1036F000032A1C440DD926461346043B032B46F8E7
:10370000045BFAD8131F23F00303043302F003020F
:10371000E41822B1C9B2013A04F8011BFBD170BC14
:1037200070470446CAE700BF704700BF704700BF3C
:1037300041EA00039B0710B402461CD10B68A3F1B9
:10374000013424EA030414F0803F14D1084642F8FF
:10375000043B50F8043F0431A3F1013424EA03048C
:1037600014F0803FF3D0104611F8012B034603F804
:10377000012B3AB1184611F8012B034603F8012B2F
:10378000002AF7D110BC704738B58307044613D11F
:103790000368A3F1013222EA030313F0803F0BD147
:1037A000024652F8043F0430A3F1013525EA030331
:1037B00013F0803FF5D000E0204603782BB103469C
:1037C00013F8012F0130002AFAD100F003F8204647
:1037D00038BD00BF80EA0102844612F0030F4FD1CA
:1037E00011F0030F32D14DF8044D11F0040F51F8D0
:1037F000043B0BD0A3F101329A4312F0803F04BF87
:103800004CF8043B51F8043B16D100BF51F8044B6F
:10381000A3F101329A4312F0803FA4F101320BD19F
:103820004CF8043BA24312F0803F04BF51F8043B24
:103830004CF8044BEAD023460CF8013B13F0FF0F81
:103840004FEA3323F8D15DF8044B704711F0010FB4
:1038500006D011F8012B0CF8012B002A08BF704785
:1038600011F0020FBFD031F8022B12F0FF0F16BF7C
:103870002CF8022B8CF8002012F47F4FB3D1704744
:1038800011F8012B0CF8012B002AF9D1704700BF69
:1038900020F0030110F00300C0F1000051F8043BD8
:1038A00000F1040C4FEACC0C6FF000021CBF22FAAE
:1038B0000CF213434FF0010C4CEA0C2C4CEA0C4C6C
:1038C000A3EB0C0222EA030212EACC1204BF51F865
:1038D000043B0430F4D013F0FF0F1FBF013013F48A
:1038E0007F4F013013F47F0F18BF0130704700BFC6
:1038F000F0B4002A44D041EA000313F003032BD1B3
:10390000032A29D904680D68AC4225D1043A37D07E
:10391000A4F1013525EA040414F0803F2ED10C46B1
:10392000034610E050F8043F51F8044FA3F101376B
:10393000A34227EA030734462B4609D1043A1FD095
:1039400017F0803F23D11D1D261D032AEAD8D2B1CE
:10395000013A3146284600E0013A03780C78A34248
:1039600013D16AB153B110F8013F11F8014FA342CE
:103970000BD1012A0BD0013A002BF4D1184600E0FC
:103980001046F0BC70471B792479181BF9E700201A
:10399000F7E700BF41EA00039B0770B40D460446F9
:1039A0002AD1032A17D8A2B10E78531E04F8016B4E
:1039B0004EB122466BB111F8015F013B02F8015B89
:1039C0001446002DF6D123B10022013B04F8012B4F
:1039D000FBD170BC7047294655F8043BA3F1013672
:1039E00026EA030616F0803FDDD1043A032A44F8A4
:1039F000043BF0D82946D6E70446D4E7F0B40028C3
:103A000024D0074606780D46013015F8014B3CB12D
:103A1000A642FAD1002BF4D1106038463B7011E079
:103A20000EB917E023B906460578013084460C46E6
:103A300014F8013B9D42F5D135B100233370C2F833
:103A400000C03846F0BC7047AC46F8E71068002864
:103A5000D7D1F7E716603046F4E700BF0123CDE782
:103A60002DE9F0410546264884B00468D4F84801A1
:103A7000002840D046681F2E1CDD224810B94FF0A8
:103A8000FF301EE04FF4C870039102920193FFF7DC
:103A90001FFB0399029A019B0028F0D0D4F84861DB
:103AA000002780E8C000C4F848013E46C0F888718D
:103AB000C0F88C7145B9B31C013640F8231046603C
:103AC000002004B0BDE8F0810124B440D0F8887132
:103AD00000EB860847EA040C022D4746C8F8882008
:103AE000C0F888C1C8F80831E5D1D0F88C311C4342
:103AF000C0F88C41DFE704F5A670C4F84801B9E7C7
:103B00009C400008D1300008024B13B10248FFF777
:103B100095BA7047000000005D300008F8B5244DEC
:103B200004460F46FFF700FEAB6820465E6826F0AD
:103B3000030606F57E630F33DF1B3F0B013F3F0398
:103B4000B7F5805F1CDB0021FCF7A8FCAB689B1974
:103B5000984219D02046FFF7E9FD0020F8BD00216A
:103B60002046FCF79BFCAB68C21A0F2A07DD1149FF
:103B700042F0010209685A60401A0F490860204665
:103B8000FFF7D4FD0020F8BD79422046FCF786FC03
:103B90000130E4D0084BAA681968F61B46F001060C
:103BA000CF1B204656601F60FFF7C0FD0120F8BD07
:103BB0004804002050080020D00E00202DE9F041DC
:103BC0000D460446002958D0FFF7AEFD55F8040C09
:103BD000594EA5F1080120F00103CA18D6F808C013
:103BE0005768944527F0030764D010F00100576030
:103BF00032D00020D5196D6815F0010F06D1DB1900
:103C0000956800284AD0D268EA60956043F00102C6
:103C10004A60CB50D8B9B3F5007F30D35A0A042A92
:103C200063D89D093835E8008619B2684248B24227
:103C300003D160E09268964204D0506820F00300FF
:103C40008342F7D3D368CB608A60D1609960204605
:103C5000BDE8F041FFF76ABD55F808CC06F1080849
:103C6000CCEB01018D68634445453CD0D1F80CC0D4
:103C7000C5F80CC0CCF80850BCE7BDE8F081DB0803
:103C80009A100120904006EBC30375689A68284398
:103C9000CB608A6070609960D160D8E7274FBD42E1
:103CA000B1D143F0010271613161CD608D604A6034
:103CB000CB50CCE7C2073B4407D455F8085C491BFE
:103CC000CA6888685B19C26090601D4A43F00100B1
:103CD000126848609342B160B9D31A4B2046196804
:103CE000FFF71CFFB3E7012084E7142A0BD802F189
:103CF0005B05E80098E7AD100126AE404568134625
:103D0000354345609FE7542A03D81D0B6E35E80004
:103D10008AE7B2F5AA7F03D8DD0B7735E80083E7A1
:103D200040F25450824203D89D0C7C35E8007BE77A
:103D30004FF47C707E2577E7480400205004002073
:103D400054080020CC0E0020286E756C6C290025CC
:103D50002D2A730930202020202020202020200917
:103D60003025250D0A00252D2A7309252D313175A1
:103D700009257525250D0A00252D2A7309252D31C4
:103D80003175093C3125250D0A00252D2A73092599
:103D90002D376309252D377509252D3775092575AB
:103DA0000D0A0049444C4500222A2B2C3A3B3C3D4D
:103DB0003E3F5B5D7C7F005461736B090941627318
:103DC0002054696D6509252054696D650D0A2D2DF6
:103DD0002D2D2D2D2D2D2D2D2D2D2D2D2D2D2D2D13
:103DE0002D2D2D2D2D2D2D2D2D2D2D2D2D2D2D2D03
:103DF0002D2D2D2D000000006A3E0008010000005E
:103E0000552100086E3E00082F00417373657274DF
:103E1000696F6E2022257322206661696C656420BB
:103E20006174206C696E6520256420696E2025739D
:103E30000A00665F6D6F756E742829006D61696E8A
:103E40002E63707000686561727462656174005FF2
:103E5000696E697469616C697A65486561727462DA
:103E60006561745461736B28290064697200646928
:103E7000723A207072696E747320636F6E74656E2F
:103E80007473206F662073656C6563746564206469
:103E900069726563746F7279206F6E20534420637A
:103EA0006172640D0A090975736167653A20646976
:103EB00072205B706174685D0D0A0072756E7469C2
:103EC0006D6573746174730072756E74696D65737A
:103ED000746174733A206C6973747320616C6C2024
:103EE0007461736B73207769746820746865697294
:103EF0002072756E74696D652073746174730D0A38
:103F0000007461736B6C697374007461736B6C69BA
:103F100073743A206C6973747320616C6C207461E3
:103F2000736B73207769746820746865697220699F
:103F30006E666F0D0A005461736B090953746174E6
:103F400065095072692E09537461636B0923230D4F
:103F50000A2D2D2D2D2D2D2D2D2D2D2D2D2D2D2DB4
:103F60002D2D2D2D2D2D2D2D2D2D2D2D2D2D2D2D81
:103F70002D2D2D2D2D2D2D2D2D2D2D00013F00080A
:103F800000000000AD2000080A3F0008BB3E00080A
:103F90000000000001210008C83E0008FFFF0000EB
:103FA000D43F000820090D0A0068656C7000686540
:103FB0006C703A206C6973747320616C6C2061764C
:103FC00061696C61626C6520636F6D6D616E6473B5
:103FD0000D0A0000A93F000800000000B9270008F2
:103FE000AE3F0008030406080C101820305553415A
:103FF00052542054580055534152542052580045B1
:1040000052524F523A20696E707574206973206C59
:104010006F6E676572207468616E20627566666592
:1040200072206C656E6774682120287065726970F3
:10403000686572616C732F75736172742E63707032
:104040003A323731290D0A004552524F523A206315
:104050006F6D6D616E642068616E646C6572206561
:104060007865637574696F6E206661696C6564203C
:104070007769746820636F64652025642120287047
:1040800065726970686572616C732F7573617274A3
:104090002E6370703A323838290D0A002000002053
:1040A00043000000F04000080000002058080020F5
:1040B00058080020040F0020F8B500BFF8BC08BC69
:1040C0009E467047093B000819010008F5220008C8
:1040D000F9280008F8B500BFF8BC08BC9E46704738
:0440E000F5000008DF
:0840E4003CEFFF7F010000002A
:1040F0000000000008170020FFFFFFFFAAAAAAAADD
:104100000100000068FF1F002000002000000000E8
:10411000000000000C03002074030020DC030020DA
:10412000000000000000000000000000000000008F
:10413000000000000000000000000000000000007F
:1041400000000000A0400008000000000000000087
:10415000000000000000000000000000000000005F
:10416000000000000000000000000000000000004F
:10417000000000000000000000000000000000003F
:10418000000000000000000000000000000000002F
:10419000000000000000000000000000000000001F
:1041A000000000000000000000000000000000000F
:1041B00000000000000000000100000000000000FE
:1041C0000E33CDAB34126DE6ECDE05000B000000C3
:1041D00000000000000000000000000000000000DF
:1041E00000000000000000000000000000000000CF
:1041F00000000000000000000000000000000000BF
:1042000000000000000000000000000000000000AE
:1045400048040020480400205004002050040020AB
:10455000580400205804002060040020600400205B
:10456000680400206804002070040020700400200B
:1045700078040020780400208004002080040020BB
:10458000880400208804002090040020900400206B
:104590009804002098040020A0040020A00400201B
:1045A000A8040020A8040020B0040020B0040020CB
:1045B000B8040020B8040020C0040020C00400207B
:1045C000C8040020C8040020D0040020D00400202B
:1045D000D8040020D8040020E0040020E0040020DB
:1045E000E8040020E8040020F0040020F00400208B
:1045F000F8040020F8040020000500200005002039
:1046000008050020080500201005002010050020E6
:104610001805002018050020200500202005002096
:104620002805002028050020300500203005002046
:1046300038050020380500204005002040050020F6
:1046400048050020480500205005002050050020A6
:104650005805002058050020600500206005002056
:104660006805002068050020700500207005002006
:1046700078050020780500208005002080050020B6
:104680008805002088050020900500209005002066
:104690009805002098050020A0050020A005002016
:1046A000A8050020A8050020B0050020B0050020C6
:1046B000B8050020B8050020C0050020C005002076
:1046C000C8050020C8050020D0050020D005002026
:1046D000D8050020D8050020E0050020E0050020D6
:1046E000E8050020E8050020F0050020F005002086
:1046F000F8050020F8050020000600200006002034
:1047000008060020080600201006002010060020E1
:104710001806002018060020200600202006002091
:104720002806002028060020300600203006002041
:1047300038060020380600204006002040060020F1
:1047400048060020480600205006002050060020A1
:104750005806002058060020600600206006002051
:104760006806002068060020700600207006002001
:1047700078060020780600208006002080060020B1
:104780008806002088060020900600209006002061
:104790009806002098060020A0060020A006002011
:1047A000A8060020A8060020B0060020B0060020C1
:1047B000B8060020B8060020C0060020C006002071
:1047C000C8060020C8060020D0060020D006002021
:1047D000D8060020D8060020E0060020E0060020D1
:1047E000E8060020E8060020F0060020F006002081
:1047F000F8060020F806002000070020000700202F
:1048000008070020080700201007002010070020DC
:10481000180700201807002020070020200700208C
:10482000280700202807002030070020300700203C
:1048300038070020380700204007002040070020EC
:10484000480700204807002050070020500700209C
:10485000580700205807002060070020600700204C
:1048600068070020680700207007002070070020FC
:1048700078070020780700208007002080070020AC
:10488000880700208807002090070020900700205C
:104890009807002098070020A0070020A00700200C
:1048A000A8070020A8070020B0070020B0070020BC
:1048B000B8070020B8070020C0070020C00700206C
:1048C000C8070020C8070020D0070020D00700201C
:1048D000D8070020D8070020E0070020E0070020CC
:1048E000E8070020E8070020F0070020F00700207C
:1048F000F8070020F807002000080020000800202A
:1049000008080020080800201008002010080020D7
:104910001808002018080020200800202008002087
:104920002808002028080020300800203008002037
:1049300038080020380800204008002040080020E7
:08494000FFFFFFFF0000020071
:0400000508000149A5
:00000001FF
