:020000040800F2
:10000000B015002049010008610E0008610E0008CB
:10001000610E0008610E0008610E0008610E000804
:10002000610E0008610E0008610E0008E10700087B
:10003000610E0008610E000869080008A5080008A4
:10004000610E0008610E0008610E0008610E0008D4
:10005000610E0008610E0008BD210008610E000855
:10006000610E0008610E0008610E0008610E0008B4
:10007000610E0008610E0008B11F0008610E000843
:10008000610E0008610E0008610E0008610E000894
:10009000610E0008610E0008610E0008610E000884
:1000A000610E0008610E0008610E0008610E000874
:1000B000610E0008610E0008610E0008610E000864
:1000C000610E0008610E0008610E0008610E000854
:1000D000610E0008F51F0008610E0008610E00089F
:1000E000610E0008610E0008610E00087516000818
:1000F000610E000810B5054C237833B9044B13B1D9
:100100000448AFF300800123237010BD6008002075
:100110000000000034DD000808B5064B1BB106489E
:100120000649AFF300800648036813B1054B03B1DD
:10013000984708BD0000000034DD00086408002076
:100140005C080020000000001B4880F309880220A2
:1001500080F31488BFF36F8F18488047184C194DEF
:10016000AC423DBF54F8041B54F8042B54F8043B34
:1001700007E09A423EBF51F8040B42F8040BF8E73F
:10018000EEE70020104B114CA3423ABF53F8041B7A
:1001900053F8042B05E091423CBF41F8040BFAE709
:1001A000F2E70B4880470B4880470B4880470B48D5
:1001B0008047FEE770470000B0190020B501000835
:1001C00034DD000840DD000840DD000848DD00089F
:1001D000FDA10008B5010008BD200008A99D000888
:1001E00080B485B000AF786039607B685B68FB6085
:1001F000FB685A683B685A607B685A683B689A603B
:10020000FB685B683A689A60FB683A685A607B688A
:100210003A685A603B687A681A617B681B685A1CA6
:100220007B681A601437BD465DF8047B704700BFD9
:1002300080B485B000AF78607B685B687A6892684C
:100240009A607B689B687A6852685A607B681B6911
:10025000FB60FB685A687B689A4203D17B689A68A6
:10026000FB685A607B6800221A61FB681B685A1E93
:10027000FB681A601437BD465DF8047B704700BF09
:1002800080B586B000AFF860B9607A603B6000234B
:100290003B614FF0500080F31188FB689A6BFB685C
:1002A000DB6B9A4224D2F868B9683A6800F02CF8FF
:1002B000FB689B6CB3F1FF3F12D1FB685B6A002BBC
:1002C00013D0FB682433184600F0FCF90346002BDA
:1002D0000BD07B68002B08D07B6801221A6004E0F9
:1002E000FB689B6C5A1CFB689A6401237B6101E0EC
:1002F00000237B614FF0000080F311887B69184672
:100300001837BD4680BD00BF80B584B000AFF8602F
:10031000B9607A60FB681B6C002B0CD1FB681B6812
:10032000002B45D1FB685B68184600F01BFAFB68A0
:1003300000225A603CE07B68002B1AD1FB689A6867
:10034000FB681B6C1046B9681A460AF0A9FAFB68EC
:100350009A68FB681B6C1A44FB689A60FB689A6891
:10036000FB685B689A4223D3FB681A68FB689A6053
:100370001EE0FB68DA68FB681B6C1046B9681A4619
:100380000AF08EFAFB68DA68FB681B6C5B421A4461
:10039000FB68DA60FB68DA68FB681B689A4207D280
:1003A000FB685A68FB681B6C5B421A44FB68DA60A6
:1003B000FB689B6B5A1CFB689A631037BD4680BD77
:1003C00080B400AF044B1B685A1C034B1A60BD4637
:1003D0005DF8047B704700BF0C09002090B583B026
:1003E00000AF00237B6000F017FA314B1B685A1EE8
:1003F0002F4B1A602E4B1B68002B52D12D4B1B68C4
:10040000002B4ED000233B6027E02B4BDB68DC68E1
:1004100004F118031846FFF70BFF231D1846FFF7DA
:1004200007FFE26A254B1B689A4202D9E26A234B16
:100430001A60E26A13469B0013449B00204A1A4448
:10044000231D10461946FFF7CBFEE26A1D4B1B68C1
:10045000DB6A9A4201D301233B60174B1B68002BD8
:10046000D3D1194B1B68002B0DD006E000F030F8FB
:10047000154B1B685A1E144B1A60134B1B68002B3C
:10048000F4D101233B603B68012B03D00F4B1B6869
:10049000012B06D101237B600C4B00221A6000F077
:1004A000AFF900F0CBF97B6818460C37BD4690BD1C
:1004B0000C09002000090020EC0800200809002099
:1004C000800800207C08002010090020140900206A
:1004D00080B584B000AF404B1B68002B73D13F4BFD
:1004E0001B685A1C3D4B1A603C4B1B68002B21D1EA
:1004F0003B4B1B68FB603B4B1A68394B1A60394B0E
:10050000FA681A60384B1B685A1C374B1A60344B18
:100510001B681B68002B04D1344B4FF0FF321A606C
:1005200008E02F4B1B68DB68DB68BB60BB685A6860
:100530002E4B1A60294B1A682C4B1B689A4241D3E8
:10054000274B1B681B68002B04D1284B4FF0FF3250
:100550001A6037E0224B1B68DB68DB68BB60BB6856
:100560005B687B601D4B1A687B689A4203D21F4B05
:100570007A681A6026E0BB6804331846FFF758FE15
:10058000BB689B6A002B04D0BB6818331846FFF782
:100590004FFEBB68DA6A164B1B689A4203D9BB68E8
:1005A000DA6A134B1A60BB68DA6A13469B0013447D
:1005B0009B00104A1A44BB68043310461946FFF7E3
:1005C0000FFEBDE704E00C4B1B685A1C0A4B1A6077
:1005D0001037BD4680BD00BF0C0900200409002073
:1005E000E4080020E808002018090020040000208A
:1005F00008090020800800201009002080B483B082
:1006000000AF284B1B68002B03D0274B01221A6038
:1006100043E0264B1B889BB21B041A46244B5B6AA3
:1006200013437B60234B1B68D96C234A126878689C
:10063000821A0A44DA64204B7A681A6004E01F4B7D
:100640001B685A1E1D4B1A601C4B1A681C49134626
:100650009B0013449B000B441B68002BEFD0174BEF
:100660001A6813469B0013449B00154A13443B60D1
:100670003B685B685A683B685A603B685A683B68ED
:1006800008339A4204D13B685B685A683B685A60F9
:100690003B685B68DA68074B1A600C37BD465DF84B
:1006A000047B70470C090020140900202809002051
:1006B000001000407C0800201C09002008090020D0
:1006C0008008002080B584B000AF78607B68DB686C
:1006D000DB68BB60BB6818331846FFF7A9FD1C4BED
:1006E0001B68002B1DD1BB6804331846FFF7A0FD23
:1006F000BB68DA6A174B1B689A4203D9BB68DA6A8F
:10070000144B1A60BB68DA6A13469B0013449B00C3
:10071000114A1A44BB68043310461946FFF760FDBE
:1007200005E0BB6818330D481946FFF759FDBB6853
:10073000DA6A0B4B1B68DB6A9A4202D30123FB6027
:1007400001E00023FB60FB6818461037BD4680BD02
:100750000C0900200809002080080020EC08002077
:100760007C08002080B584B000AF78607B68FB60B7
:100770007B68002B2CD0FB68DA6AFB689B6C9A4282
:1007800026D0FB6804331846FFF752FDFB689A6CCD
:10079000FB68DA62FB68DB6AC3F10502FB689A61F9
:1007A000FB68DA6A0C4B1B689A4203D9FB68DA6A69
:1007B000094B1A60FB68DA6A13469B0013449B00DE
:1007C000064A1A44FB68043310461946FFF708FD31
:1007D0001037BD4680BD00BF0809002080080020FA
:1007E000064B19680868B0E8F00F80F309884FF0ED
:1007F000000080F311884EF00D0E70477C08002039
:1008000080B400AF034B4FF080521A60BD465DF8D4
:10081000047B704704ED00E080B400AF4FF050005F
:1008200080F31188044B1B685A1C034B1A60BD46A9
:100830005DF8047B704700BF0800002080B400AF63
:10084000084B1B685A1E074B1A60064B1B68002B8F
:1008500003D14FF0000080F31188BD465DF8047BA2
:10086000704700BF08000020EFF309800C4B1A68A6
:1008700020E9F00F10602DE908404FF0500080F3A0
:100880001188FFF7BBFE4FF0000080F31188BDE830
:10089000084019680868B0E8F00F80F309887047CD
:1008A0007C08002080B582B000AF094B4FF0805229
:1008B0001A6000237B604FF0500080F31188FFF72F
:1008C00007FE4FF0000080F311880837BD4680BD59
:1008D00004ED00E080B584B000AF7860FFF770FDF4
:1008E000786809F0B3FC0346FB60FFF777FDFB680F
:1008F00018461037BD4680BD80B582B000AF786025
:100900007B68002B06D0FFF75BFD786809F0A6FC3A
:10091000FFF764FD0837BD4680BD00BF80B582B0DB
:1009200000AF786039607B68002B0AD07B681B6859
:100930003A68D2B21A707B681B685A1C7B681A60CE
:1009400002E0386801F018FB0837BD4680BD00BFE3
:100950002DE9F04184B000AFF860B9607A603B6087
:10096000002420267B68002B19DD0025D7F808809D
:1009700002E0013508F1010898F80030002BF8D1A9
:100980007B689D4202DB00237B6002E07B685B1B8F
:100990007B603B6803F00203002B00D030263B68ED
:1009A00003F00103002B0BD107E0F8683146FFF795
:1009B000B5FF01347B68013B7B607B68002BF4DC76
:1009C00009E0BB681B78F8681946FFF7A7FF0134F8
:1009D000BB680133BB60BB681B78002BF1D107E01B
:1009E000F8683146FFF79AFF01347B68013B7B6072
:1009F0007B68002BF4DC234618461037BD46BDE863
:100A0000F08100BF2DE9F04389B000AFF860B96014
:100A10007A603B604FF000094FF00008BD68BB688A
:100A2000002B0DD130233B7500237B7507F1140398
:100A3000F86819463A6C7B6CFFF78AFF034649E079
:100A40003B68002B0AD07B680A2B07D1BB68002BC0
:100A500004DA4FF00109BB685B421D4607F114043C
:100A60000B340023237013E07B68B5FBF3F203FB28
:100A700002F3EB1A1E46092E02DDBB6C3A3B1E4404
:100A8000013CF3B23033DBB223707B68B5FBF3F586
:100A9000002DE9D1B9F1000F14D03B6C002B0ED022
:100AA0007B6C03F00203002B09D0F8682D21FFF7BF
:100AB00035FF08F101083B6C013B3B6402E0013C5F
:100AC0002D232370F86821463A6C7B6CFFF740FFBA
:100AD0000346434418462437BD46BDE8F08300BFB3
:100AE0002DE9F0418AB004AFF860B9607A60002463
:100AF000D3E0BB681B78252B40F0C580BB68013371
:100B0000BB6000263546BB681B78002B00D1C9E0CE
:100B1000BB681B78252B00D1B5E0BB681B782D2B5B
:100B200004D1BB680133BB60012605E004E0BB686B
:100B30000133BB6046F00206BB681B78302BF6D051
:100B40000BE02B469B002B445B001D46BB681B78CB
:100B5000303B1D44BB680133BB60BB681B782F2B47
:100B600003D9BB681B78392BEBD9BB681B782A2BC0
:100B700006D1BB680133BB607B681A1D7A601D68B3
:100B8000BB681B78732B13D17B681A1D7A601B68B6
:100B90009846B8F1000F01D0434600E0484BF86892
:100BA00019462A463346FFF7D3FE03461C4471E03C
:100BB000BB681B78642B10D17B681A1D7A601B6898
:100BC0000095019661220292F86819460A220123D3
:100BD000FFF718FF03461C445CE0BB681B78782BCA
:100BE00010D17B681A1D7A601B68009501966122FE
:100BF0000292F868194610220023FFF703FF03460C
:100C00001C4447E0BB681B78582B10D17B681A1D29
:100C10007A601B680095019641220292F868194695
:100C200010220023FFF7EEFE03461C4432E0BB68AF
:100C30001B78752B10D17B681A1D7A601B68009594
:100C4000019661220292F86819460A220023FFF7F2
:100C5000D9FE03461C441DE0BB681B78632B19D1E9
:100C60007B681A1D7A601B68DBB23B7500237B75BD
:100C700007F11403F86819462A463346FFF768FE61
:100C800003461C4406E0BB681B78F8681946FFF76A
:100C900045FE0134BB680133BB60BB681B78002B89
:100CA0007FF427AFFB68002B03D0FB681B68002292
:100CB0001A70234618461837BD46BDE8F08100BFBC
:100CC000A8BF00080FB480B582B000AF07F11403CD
:100CD0007B60002039697A68FFF702FF03461846F7
:100CE0000837BD46BDE8804004B070470EB480B5FB
:100CF00085B000AF786007F12003FB603B1D18460C
:100D0000F969FA68FFF7ECFE034618461437BD464A
:100D1000BDE8804003B0704780B483B000AF786016
:100D200039604FF0FF3318460C37BD465DF8047B41
:100D3000704700BF80B483B000AF7860FEE700BFAB
:100D400080B485B000AFF860B9607A607B684FF41A
:100D500000525A60002318461437BD465DF8047BE4
:100D6000704700BF80B483B000AF7860012318469D
:100D70000C37BD465DF8047B704700BF80B483B07C
:100D800000AF78603960012318460C37BD465DF826
:100D9000047B704780B485B000AFF860B9607A60BA
:100DA000054B16221A604FF0FF3318461437BD4624
:100DB0005DF8047B704700BFAC11002080B485B0A3
:100DC00000AFF860B9607A603B60002318461437C2
:100DD000BD465DF8047B704780B485B000AFF86015
:100DE000B9607A603B60002318461437BD465DF851
:100DF000047B704780B485B000AF786039600E4BDB
:100E00001B68FB600C4B1A683B681A440B4B9A42F8
:100E100005D90B4B0C221A604FF0FF3306E0064B4E
:100E20001A683B681A44044B1A60FB68184614376A
:100E3000BD465DF8047B70470C0000200040002098
:100E4000AC11002080B485B000AFF860B9607A6062
:100E50003B60002318461437BD465DF8047B70479D
:100E6000684620F007018D4681B400AFFEE700BF61
:100E700080B483B000AF786039603B6818460C37A7
:100E8000BD465DF8047B704780B582B000AF7860E6
:100E90007B68184600F0D4F87B6818460837BD46D2
:100EA00080BD00BF80B58AB000AFF860B9607A60DD
:100EB0003B60234B7B62786A00F0D2F80346BB614B
:100EC000786A00F0DFF803467B6124E007F118033D
:100ED000184600F00BF903461B683B623B6ADB686F
:100EE00018460AF045FBF8613B685A1EFB699A42B6
:100EF00001D219231EE03B6ADB6878681946FA695B
:100F000009F0CEFC7A68FB6913447B6007F1180393
:100F1000184600F0DBF807F1180207F11403104639
:100F2000194600F0BFF80346002BCFD17B680022A2
:100F30001A7000235BB218462837BD4680BD00BF3B
:100F40002009002080B582B000AF7860786800F09A
:100F5000DBF87B6818460837BD4680BD80B582B097
:100F600000AF7860786800F0DBF87B6818460837D7
:100F7000BD4680BD80B483B000AF78607B681B68DD
:100F800018460C37BD465DF8047B704780B483B0CB
:100F900000AF78607B685B6818460C37BD465DF82B
:100FA000047B704790B583B000AF78607868FFF736
:100FB000E1FF04467868FFF7E9FF03469B002344FE
:100FC00018460C37BD4690BDB0B586B000AFF8608E
:100FD000381D80E806003B60FC6807F110031846E6
:100FE000396800F0A9F807F110032046194600F00F
:100FF000BDF807F11003184600F0ACF83B1D184689
:10100000FFF7B8FF04463B1D1846FFF7CBFF03462A
:10101000F86821461A462B4600F0BAF8FB681846D5
:101020001837BD46B0BD00BF80B582B000AF786054
:10103000786800F08FF87B6818460837BD4680BD99
:1010400080B582B000AF7860786800F0B7F87B6850
:101050001846FFF7E9FF7B6818460837BD4680BD94
:1010600080B584B000AF78607B681B6807F10C0224
:101070001046194600F0C2F8FB6818461037BD4606
:1010800080BD00BF80B584B000AF78607B6807F199
:101090000C021046194600F0B1F8FB6818461037EC
:1010A000BD4680BD80B483B000AF786039607B6896
:1010B0001A683B681B689A420CBF00230123DBB20D
:1010C00018460C37BD465DF8047B704780B483B08A
:1010D00000AF78607B681B681A687B681A607B6861
:1010E00018460C37BD465DF8047B704780B483B06A
:1010F00000AF78607B681B68083318460C37BD4624
:101100005DF8047B704700BF80B483B000AF7860A7
:101110007B6818460C37BD465DF8047B704700BFFE
:1011200080B483B000AF78607B6818460C37BD464A
:101130005DF8047B704700BF80B582B000AF786077
:101140003960786800F08EF87B6818460837BD462D
:1011500080BD00BF80B582B000AF7860786800F0D5
:101160008DF87B6818460837BD4680BD80B582B0D3
:1011700000AF786039607B681846396800F08AF8FB
:10118000786800F09BF87B6818460837BD4680BD3C
:1011900080B584B000AFF860B9607A603B7006E05B
:1011A000F868B96800F09AF8BB680433BB60BA68A5
:1011B0007B689A42F4D11037BD4680BD80B584B0BB
:1011C00000AF78607B681B68FB6010E0FB68BB6069
:1011D000FB681B68FB60786800F096F803461846C9
:1011E000B96800F09DF87868B96800F0A3F87A68EB
:1011F000FB689A42EAD11037BD4680BD80B483B007
:1012000000AF786039607B683A681A607B6818467E
:101210000C37BD465DF8047B704700BF80B483B0D7
:1012200000AF78607B6818460C37BD465DF8047BDC
:10123000704700BF80B586B000AFF860B9607A60D3
:101240007868FFF7EBFF0346F868194600F080F86E
:1012500078617A69BB681046194600F0FFFF1837BD
:10126000BD4680BD80B483B000AF78607B6818460F
:101270000C37BD465DF8047B704700BF80B483B077
:1012800000AF78607B6818460C37BD465DF8047B7C
:10129000704700BF80B582B000AF78603960786871
:1012A000396800F073F87B6800221A607B680022BE
:1012B0005A607B6818460837BD4680BD80B483B04D
:1012C00000AF78607A687B681A607A687B685A60D9
:1012D0000C37BD465DF8047B704700BF90B583B006
:1012E00000AF786039607868FFF7CCFE0446386854
:1012F000FFF794FF0346786821461A46FFF79AFFE6
:101300000C37BD4690BD00BF80B483B000AF78609D
:101310007B6818460C37BD465DF8047B704700BFFC
:1013200080B483B000AF786039600C37BD465DF89B
:10133000047B704780B582B000AF786039607B680D
:1013400018463968012200F02FF80837BD4680BDE5
:1013500090B585B000AF786039607B68184600F0C2
:101360002FF8F8607B681846FFF7CEFF0446386810
:10137000FFF754FF03462046F9681A4600F030F89C
:10138000FB6818461437BD4690BD00BF80B582B0DB
:1013900000AF786039607868396800F03BF87B68A6
:1013A00018460837BD4680BD80B584B000AFF860F0
:1013B000B9607A60B86800F01DFF1037BD4680BD87
:1013C00080B582B000AF78607B68184601210022AA
:1013D00000F02CF8034618460837BD4680BD00BF14
:1013E00090B585B000AFF860B9607A607868FFF7B3
:1013F00015FF0446BB680C201946FFF739FD03466C
:10140000002B03D01846214600F032F81437BD46B1
:1014100090BD00BF80B483B000AF786039607B6856
:1014200018460C37BD465DF8047B704780B584B024
:1014300000AFF860B9607A60F86800F031F80246F1
:10144000BB689A422CBF00230123DBB2002B01D0E2
:1014500000F00CFFBA6813465B0013449B0018466B
:1014600000F0BCFE034618461037BD4680BD00BFE5
:1014700080B582B000AF786039607B6800221A6066
:101480007B6800225A603868FFF7C8FE03461A6876
:101490007B689A607B6818460837BD4680BD00BFF0
:1014A00080B483B000AF7860034B18460C37BD465C
:1014B0005DF8047B704700BF5555551580B586B063
:1014C00000AF786039607B68012B22D13A684FF613
:1014D000FF739A421DD1104A07F10C0392E80300F2
:1014E00083E8030007F114031846FFF72BFD07F10B
:1014F00014030A4807F10C0206CAFFF765FD07F15D
:1015000014031846FFF72AFD04480549054A00F070
:101510009FFE1837BD4680BDB8BF000820090020D7
:10152000890E00080000002080B500AF01204FF6B2
:10153000FF71FFF7C3FF80BD80B48BB000AFF860D0
:101540000B467A60FB72FB681B683B62FB7A5B00B0
:10155000032202FA03F3DB433A6A13403B627B68DF
:1015600003F00F02FB7A5B0002FA03F33A6A1343BB
:101570003B62FB683A6A1A60FB689B889BB2FB611E
:10158000FB7A012202FA03F3DB43FA691340FB61A1
:101590007B6803F0F0031A11FB7A02FA03F3FA698D
:1015A0001343FB61FB699AB2FB689A80FB689B68F6
:1015B000BB61FB7A5B00032202FA03F3DB43BA69E7
:1015C0001340BB617B6803F470631A12FB7A5B0003
:1015D00002FA03F3BA691343BB61FB68BA699A6004
:1015E000FB68DB687B61FB7A5B00032202FA03F392
:1015F000DB437A6913407B617B6803F470431A1301
:10160000FB7A5B0002FA03F37A6913437B61FB68A0
:101610007A69DA60FB7A072B02D800237B6204E048
:1016200001237B62FB7A083BFB72FB687A6A083213
:1016300053F822303B61FB7A9B000F2202FA03F33E
:10164000DB433A6913403B617B6803F470231A144F
:10165000FB7A9B0002FA03F33A6913433B61FB6890
:101660007A6A0832396943F822102C37BD465DF892
:10167000047B7047684620F007018D4681B400AFB7
:10168000064B1B889BB201339AB2044B1A80044B61
:1016900000221A82BD4681BC854670472809002079
:1016A0000010004080B500AF6E4B6E4A126842F4E5
:1016B00080721A606C4A6C4B5B6B43F4820343F498
:1016C00080735363684B684AD26942F00702DA615B
:1016D000654B654A526A42F400725A62624B624A32
:1016E000526B42F484025A6360480821604AFFF753
:1016F00023FF5E4809215E4AFFF71EFF5B480A216F
:101700005B4AFFF719FF5B480921594AFFF714FFAD
:1017100056480121564AFFF70FFF54480221544A08
:10172000FFF70AFF51480321514AFFF705FF5148CF
:1017300003214F4AFFF700FF4E4804214C4AFFF7B0
:10174000FBFE4C4805214A4AFFF7F6FE49480A21AC
:10175000474AFFF7F1FE47480B21454AFFF7ECFEE9
:1017600044480C21424AFFF7E7FE42480D21404A17
:10177000FFF7E2FE3F480E213D4AFFF7DDFE3D4800
:101780000F213B4AFFF7D8FE38480F21384AFFF7B0
:10179000D3FE38480821364AFFF7CEFE36480021EE
:1017A000334AFFF7C9FE34480121314AFFF7C4FE2E
:1017B000314802212E4AFFF7BFFE2F4803212C4A51
:1017C000FFF7BAFE2C480621294AFFF7B5FE2A4842
:1017D0000721274AFFF7B0FE27480821244AFFF7D0
:1017E000ABFE25480921224AFFF7A6FE22480A211E
:1017F0001F4AFFF7A1FE20480B211D4AFFF79CFE60
:101800001E4B1E4A126842F080021A601B4B1B4A94
:10181000126842F040021A60184B184A126842F0EF
:101820000C021A60154B154A126842F001021A6048
:10183000124B124A526842F470125A600F4B0F4A10
:10184000526842F480425A600C4B0C4A526842F48F
:1018500080525A60094B094A526842F040025A606D
:1018600080BD00BF00700040003802400000024010
:1018700002030B0000040240000802400024004064
:1018800080B485B000AF3B600346FB710B46BB7173
:1018900013467B710023FB81FB79202B05D0202B85
:1018A0000EDB303B092B0BD802E00023FB8122E04A
:1018B000FB79A3F13002264B33F81230FB811AE09A
:1018C000FB795A2B09D8FB79402B06D9FB79A3F178
:1018D0004102204B33F81230FB81FB797A2B09D877
:1018E000FB79602B06D9FB79A3F16102194B33F820
:1018F0001230FB8100BFBB79002B03D0FB8943F082
:101900000203FB817B79002B03D0FB8943F020038A
:10191000FB810C237B7300233B7311E03B7B3A6814
:101920001344F9897A7B41FA02F2D2B202F00F0233
:10193000D2B21A707B7B043B7B733B7B01333B73DE
:101940003B7B032BEAD91437BD465DF8047B704717
:1019500038C0000804C0000880B584B000AFF8713A
:10196000B9717A713B71F879B9797A7907F10C0319
:10197000FFF786FF00BF994B9B6803F00403002B21
:101980000CBF00230123DBB2002BF4D13B79013BD8
:10199000052B00F2328201A252F823F0B51900089B
:1019A0005F1A0008391B0008E11B0008931C00089F
:1019B000351D0008894A894B5B6923F0405323F0A9
:1019C00003035361854A854BDB6923F0405323F0C1
:1019D0000303D361814A814B5B6A23F0405323F0B8
:1019E000030353627D4A7D4BDB6A23F0405323F0AF
:1019F0000303D362794B794A51693A7B02F00C02B6
:101A000090063A7B02F0030202430A435A61734B89
:101A1000724AD1697A7B02F00C0290067A7B02F05E
:101A2000030202430A43DA616C4B6C4A516ABA7B87
:101A300002F00C029006BA7B02F0030202430A4352
:101A40005A62664B654AD16AFA7B02F00C02900634
:101A5000FA7B02F0030202430A43DA62CEE15F4AF4
:101A60005E4B5B6923F0406323F0FC0353615B4AE8
:101A70005A4BDB6923F0406323F0FC03D361574AE0
:101A8000564B5B6A23F0406323F0FC035362534AD6
:101A9000524BDB6A23F0406323F0FC03D3624F4BCD
:101AA0004E4A51693A7B02F00C0210063A7B02F072
:101AB0000202920110433A7B02F0010292000243BB
:101AC0000A435A61454B454AD1697A7B02F00C02C0
:101AD00010067A7B02F00202920110437A7B02F038
:101AE0000102920002430A43DA613C4B3B4A516ACD
:101AF000BA7B02F00C021006BA7B02F002029201DD
:101B00001043BA7B02F00102920002430A435A6278
:101B1000324B324AD16AFA7B02F00C021006FA7B91
:101B200002F0020292011043FA7B02F001029200DD
:101B300002430A43DA6261E1284B284A526922F0E3
:101B400003225A61254B254AD26922F00322DA6129
:101B5000224B224A526A22F003225A621F4B1F4A2A
:101B6000D26A22F00322DA621C4B1C4A51693A7B8A
:101B700002F00C0290053A7B02F0030212020243CB
:101B80000A435A61154B154AD1697A7B02F00C025F
:101B900090057A7B02F00302120202430A43DA61E3
:101BA0000E4B0E4A516ABA7B02F00C029005BA7BCA
:101BB00002F00302120202430A435A62074B074A29
:101BC000D16AFA7B02F00C029005FA7B02F0030264
:101BD000120202430A43DA6210E100BF002400400F
:101BE0008B4A8B4B5B6923F4401323F440635361AE
:101BF000874A874BDB6923F4401323F44063D361A6
:101C0000834A834B5B6A23F4401323F4406353629B
:101C10007F4A7F4BDB6A23F4401323F44063D36293
:101C20007B4B7B4A51693A7B02F00C0290043A7B71
:101C300002F00302920202430A435A61744B744A4F
:101C4000D1697A7B02F00C0290047A7B02F00302E5
:101C5000920202430A43DA616D4B6D4A516ABA7BC4
:101C600002F00C029004BA7B02F0030292020243DB
:101C70000A435A62664B664AD16AFA7B02F00C024A
:101C80009004FA7B02F00302920202430A43DA62F2
:101C9000B4E05F4B5E4A526922F443225A615C4BC6
:101CA0005B4AD26922F44322DA61594B584A526A9C
:101CB00022F441225A62564B554AD26A22F44122FA
:101CC000DA62534B524A51693A7B02F00C0210041B
:101CD0003A7B02F00302120302430A435A614C4B5F
:101CE0004B4AD1697A7B02F00C0210047A7B02F035
:101CF0000302120302430A43DA61454B444A516A24
:101D0000BA7B02F00C021004BA7B02F0010212034B
:101D100002430A435A623E4B3D4AD16AFA7B02F0C3
:101D20000C021004FA7B02F00102120302430A4380
:101D3000DA6263E0364B364A526922F470325A61F5
:101D4000334B334AD26922F47032DA61304B304A75
:101D5000526A22F470325A622D4B2D4AD26A22F412
:101D60007032DA622A4B2A4A51693A7B02F0040245
:101D7000D0033A7B02F00802520310433A7B9203ED
:101D800092B202430A435A61214B214AD1697A7BBC
:101D900002F00402D0037A7B02F0080252031043DF
:101DA0007A7B920392B202430A43DA61184B184AD3
:101DB000516ABA7B02F00402D003BA7B02F0080237
:101DC00052031043BA7B02F00102920302430A431A
:101DD0005A620F4B0E4AD16AFA7B02F00402D0031A
:101DE000FA7B02F0080252031043FA7B02F0010270
:101DF000920302430A43DA6200E000BF044B044A44
:101E0000926842F004029A601037BD4680BD00BF60
:101E10000024004080B58CB000AF0346B9607A6002
:101E2000FB730023BB6200237B6200233B62002321
:101E3000FB6236E0374AFB6A13441B78BA6802FB40
:101E400003F3BB61BA69344B9A4200D926E00223FE
:101E5000FB611BE0BA69FB69B2FBF3F37B617A6952
:101E60007B689A4200D90EE07A69BB6A9A420AD925
:101E70007B69BB62FB6A7B62FB693B62BA6A7B6817
:101E80009A4200D105E0FB690133FB61FB69042B39
:101E9000E0D9BA6A7B689A4200D106E0FB6A013356
:101EA000FB620922FB6A9A42C4D8B86A00F03EF885
:101EB0001A4B3A6A013A91057A6A92041143FA7B05
:101EC00012040A439A60164B01221A6000BF154B98
:101ED0001B68002B14BF00230123DBB2002BF6D1BB
:101EE0000E4B0E4A926842F003029A6000BF0B4B01
:101EF0009B6803F00C030C2B0CBF00230123DBB207
:101F0000002BF4D1084BBA6A1A60BB6A1846303706
:101F1000BD4680BD4CC0000800D8B805003802405E
:101F200060004742640047421000002080B485B042
:101F300000AF78607A680E4B9A4202D90123FB60A9
:101F400001E00023FB600B4B0A4A126842F00402D6
:101F50001A60084B074A126822F00301FA680A4324
:101F600042F002021A601437BD465DF8047B7047E8
:101F70000024F400003C024080B483B000AF03466C
:101F8000FB7100BF084B1B68002B14BF002301230B
:101F9000DBB2002BF6D1054BFA7992B29A800C375E
:101FA000BD465DF8047B70471C00274200380140A5
:101FB000684620F007018D4681B583B000AF0B4B1A
:101FC0001A683B1D104600211A460023FEF758F9F7
:101FD000074B01221A607B68002B01D0FEF710FC32
:101FE0000C37BD46BDE8814085467047300900206A
:101FF000B4004C42684620F007018D4681B583B09D
:1020000000AF00233B603CE0284B9B889BB2FB71F8
:10201000274B1B68591C264A1160254A1344FA793C
:102020005A71234B1B79012B06D1FB790A2B03D163
:102030001F4B02221A7109E0FB790D2B03D11C4BB7
:1020400001221A7102E01A4B00221A71184B1B6808
:102050000F2B03D8164B1B79022B12D1154B1A6884
:102060003B46104612491A460023FEF709F9104B69
:1020700000221A600E4B1B79022B02D10C4B00225E
:102080001A710D4B1B68002B0CBF00230123DBB220
:10209000002BB9D13B68002B01D0FEF7B1FB0C3708
:1020A000BD46BDE881408546704700BF003801400D
:1020B000340900202C0900201400274280B582B08A
:1020C00000AF00F013F80346FB7197F90730002BBF
:1020D00000D009E000F04AF80346FB7197F9073099
:1020E000002B00D000E0FEE7FEE700BF80B582B025
:1020F00000AF0023FB71174B01221A60164B164AE2
:10210000126822F4C05242F400621A6000BF124BFF
:102110005B6803F01003002B0CBF00230123DBB22C
:10212000002BF4D10D4B01221A6000BF0C4B1B6831
:10213000002B14BF00230123DBB2002BF6D10020BB
:102140000849094AFFF766FEFB795BB21846083773
:10215000BD4680BDF0044742007000400000474289
:10216000040047420024F4000048E80180B582B032
:1021700000AF0023FB710E48062140F20112FFF769
:10218000DBF90C4B01221A600948072140F20112C9
:10219000FFF7D2F9084B01221A60FFF783FA00F02B
:1021A00047F8FB795BB218460837BD4680BD00BFD3
:1021B00000040240988240429C824042684620F0DF
:1021C00007018D4681B400AF034B01225A61BD4621
:1021D00081BC8546704700BF0004014080B582B0D5
:1021E00000AF78607868FEF775FB0346184608373D
:1021F000BD4680BD80B582B000AF78607B68002BA3
:1022000002D07868FEF778FB0837BD4680BD00BF76
:1022100080B500AF034804493622044BFEF752FD57
:10222000FEE700BF58C0000880C00008A4C0000836
:1022300080B500AF6120002101220123FFF78CFB54
:102240006220012100220323FFF786FB80BD00BF2F
:1022500003460846194607F09DBD00BF4B68436022
:102260004B68016018604860704700BF08B50420E3
:1022700000F0FCF8024B03490360034A00F046FCFF
:10228000E8C10008F8C10008A12D000830B50546D6
:1022900085B0082000F0EAF82946044601AA03A800
:1022A00001F0AEF8204603A900F0D0FF039802A980
:1022B0000C3801F01DF820460749084A00F026FCBA
:1022C000204600F0FFF800F0A1FC039802A90C38AA
:1022D00001F00EF8F4E700BFD4C30008C9310008CC
:1022E00030B5054685B0082000F0C0F82946044600
:1022F00001AA03A801F084F8204603A900F0B6FF64
:10230000039802A90C3800F0F3FF20460749084A59
:1023100000F0FCFB204600F0D5F800F077FC0398B5
:1023200002A90C3800F0E4FFF4E700BF1CC4000869
:102330001D3200080048704780C1000800487047FF
:1023400088C10008014B0360704700BFF8C0000857
:1023500002604160704700BF10B5036882B0144648
:102360001B690A460146684698476368019A9A4283
:1023700002D0002002B010BD2068009B1B1A5842FA
:10238000584102B010BD00BF4B68834201D000200D
:1023900070470868831A584258417047014B0360E0
:1023A000704700BFF8C00008014B0360704700BFD2
:1023B000F8C0000810B5034B04460360FFF71AFF8E
:1023C000204610BDF8C0000810B5034B044603605A
:1023D000FFF710FF204610BDF8C0000810B5034BF2
:1023E00004460360FFF706FF204610BDF8C0000852
:1023F00010B5044682B0104609F0B0F801AA0146B3
:10240000204600F0FDFF204602B010BD10B5044686
:1024100082B0104609F0A2F801AA0146204600F059
:10242000EFFF204602B010BD38B5094B094C0A4DEC
:102430002246184609491D60FFF70AFF084D094B5F
:10244000224618461D600849BDE83840FFF700BF26
:10245000500900200000002060C10008A9230008E6
:1024600020C100084C0900209D23000838B500F168
:102470008005284607F0EAFE044638B120460021D0
:10248000802208F0E9FA04F1800038BD0B4AB5F566
:10249000007F116807D80B46D80706D50134042CF5
:1024A0004FEA5303F8D100F079FE0120A040044B1D
:1024B0000143116003EB4424E0E700BF540900200E
:1024C000580900200A4B984203D303F5006290425A
:1024D00002D3803807F0C2BEC31A01215B0A01FA99
:1024E00003F3044A116821EA03011160704700BF39
:1024F000580900205409002030B40024234610F865
:10250000012B02F07F059D402C43150603F10703C4
:10251000F5D41F2B06D8520604D54FF0FF3202FA2D
:1025200003F31C430C6030BC704700BF2DE9F04141
:10253000502884B00746884646D000F00F010C2989
:1025400040D8DFE801F0072C3B07193F3F3F3F2110
:102550001D071900164656F8044B44B107F07001E8
:10256000102908BF904644443A0648BF24683046C4
:102570001C6004B0BDE8F081146802F10806ECE7C5
:10258000164636F9024BE8E7104603A9019200937C
:10259000FFF7B2FF039C0646019A009BDDE700248B
:1025A0002546164616F8011B01F07F00A8400906D3
:1025B00044EA000405F10705F4D4CEE7164636F8E0
:1025C000024BCAE707F0DEFBD61C26F0030656F8DE
:1025D000044B30461C6004B0BDE8F081FF2808B50C
:1025E0000FD000F07003202B18D00CD9402B10D046
:1025F000502B06D0302B0AD1BDE80840084607F022
:10260000B9BB002008BD002BFBD0102BF9D007F080
:10261000B9FB0846BDE8084007F09CBB0846BDE88A
:10262000084007F0ABBB00BFF8B50C46164607469E
:1026300008B107F08FFB306025780134FF2D33D0CF
:1026400039462846FFF7CAFF22460146331D284671
:10265000FFF76CFF04462378601CFF2B337529D0ED
:10266000102300223375134610F8011B01F07F047C
:102670009C40090642EA040203F10703F4D4024431
:10268000F2600378002473750130234610F8011BB3
:1026900001F07F059D400A0644EA050403F10703A3
:1026A000F4D404443461F8BD70602378601CFF2BBF
:1026B0003375D5D10023F360E3E700BF2DE9F04F78
:1026C00000F0030393B00025012B0E461446069537
:1026D00000F0A6800ED3022B0AD13046214607F027
:1026E00025FB002800F0A480092013B0BDE8F08F7E
:1026F00007F048FB00F008005FFA80F84FF001098E
:1027000012AB43F82C6D002100930C220B4620469F
:1027100006F0C0FD204607F023FB07460028DCD06A
:102720000CAA394620460392FFF77EFF21468346D6
:102730009DF84400FFF752FF0BAD00210E900B46B1
:102740000F220095204606F07DFD0B9A109B22F08B
:1027500001029B4548EA090802F1FF3939D29DF888
:1027600045A000215046FFF739FF5A46014609AB04
:102770005046FFF7DBFE9DF845A0834600215046FA
:10278000FFF72CFF5A4601460AAB5046FFF7CEFE34
:102790009DF845A0834600215046FFF71FFF5A468B
:1027A00001462B465046FFF7C1FE002183460B46EB
:1027B0001BF801EB0EF07F029A401EF0800F41EAF9
:1027C000020103F10703F3D1099A0C9B13449945C5
:1027D0001DD24FF000094FF0010B002518F0010F3A
:1027E0004CD0BBF1020F3FF478AF0AAB002120467A
:1027F00000930D220B46069C06F024FD0A9B746292
:10280000B562F762C6F83090336206206DE70A9A27
:1028100013449945C0F09280109B9B459FD3D8E705
:1028200000F0080000F0FF0830B14FF0020967E740
:10283000082013B0BDE8F08F0CA900910391104659
:10284000434641460D22356A06F0FCFC0C9B9D4236
:10285000EBD112AB43F82C6D009341464346204622
:102860000C2206F1280506F015FD95E8A002B9F145
:10287000000F00F017814FF0030B3DE018F0080F38
:1028800036D0BBF1010F00F01C81002DC0F2158184
:1028900012AB002143F8286D0A46009320460B46F0
:1028A00006F0F8FC12AB43F8245D002100932046AB
:1028B0000B46012206F0EEFC0AAD00210B46204635
:1028C0000F22009506F0BEFC0A9B002103F00103D5
:1028D0002046009549EA03040F220B460A9406F0AD
:1028E000D9FCBBF1020F36D0072013B0BDE8F08F42
:1028F000BBF1010F00F0D680002DC9DA3946039AEA
:102900002046FFF791FE9DF844002146FFF766FE42
:10291000AA000F9F82F00302D2430E90BB581744C7
:1029200033B13A46002352F8041F01330029FAD18B
:102930000422B362F06277633263A9E70B9B7BB139
:102940000D9A03EB020969B9B9F1000F3FF4C5AE66
:102950004FF0020B41E7304600F0B4F90720C4E61F
:102960009946F0E7109B01395818B9F1000F3FF470
:10297000B4AE0028ECD018F0080305937ED04722AF
:102980004E2355213270737043224623B170F2708A
:102990004F215222337100237171B271F3714FF0E4
:1029A000000B049408A9FFF7A7FD09A98246FFF7C9
:1029B000A3FD089B002B2FD031DD9DF84400FF289C
:1029C0005AD000F00702042A3FF692AE01A151F856
:1029D00022F000BF132A0008F12600080D2A000883
:1029E000132A0008E9290008DB005B420F9A0E99C0
:1029F0001A440AABFFF79AFD0A99F9B1002E54D197
:102A0000099B002B45D00AEB0300CBE75B005B4240
:102A1000ECE79B005B42E9E74FF0010BF0E7013385
:102A20000EB1059A7AB10F9AC3EB837352F8233033
:102A3000D3F1010338BF0023002BE1D0049C089D93
:102A40004FF0030BCAE60F9AC3EB837352F82310BF
:102A5000069802EB83030B901C4619B917E054F853
:102A6000041FA1B12144304600222B4600F0D4F8C7
:102A70000028F4D00023DFE70023B7E7F379012B28
:102A80000CBF56F8203C06F15803069387E7012354
:102A9000D2E7049CBBF1000F3FF41FAE1D464FF080
:102AA000020B9BE6304600F0B9F93046002206AB37
:102AB00000F0B2F80028C1D1A2E700F07BFB00F0E3
:102AC000B5FC00F06BFB00BF012810B51AD8A1F1CE
:102AD0002803BFF35F8F53E8002F013A43E800203B
:102AE0000028F8D1BFF35F8F5AB951F81C3C01F1AF
:102AF00058040BB1204698472046BDE81040FFF728
:102B0000E1BC10BD51F8140C00F034FB2DE9F84F76
:102B100004460F46904600F05FF9034659681C488A
:102B20001C4AD0F800A04E1C10681B4A5E604FF093
:102B30004E0C2B234FF0550E0021A4F158054326CF
:102B40004FF0010B4FF0470944F86C0C04F857CCD8
:102B500004F856EC04F8511C44F8502C04F8533C8B
:102B600004F8523C44F8787C44F8748C44F880BCF7
:102B700044F870AC04F8589C284604F8556C04F8E6
:102B8000546C06F007FF284600F050FC00F006FBEE
:102B90001400002018000020C92A000810B500F019
:102BA0001BF942680368013242606BB193F8202040
:102BB000472A0BD00022026003F12004204606F0D1
:102BC0000DFF204600F032FC00F0E8FA93F82120D7
:102BD0004E2AEFD193F82220552AEBD193F82320E7
:102BE000432AE7D193F82420432AE3D193F8252000
:102BF0002B2ADFD193F826202B2ADBD193F827202C
:102C0000012AD7D85A6952425A61D5E71EB400F05A
:102C10008BF81EBC06F0D0FEF0B5027883B0472AD0
:102C20000D461E461AD00023244C019322682046EC
:102C30009368984780B1019B02271B6801932A681B
:102C4000214628461469012301AAA04710B1019B1F
:102C50003846336003B0F0BD0127F0E743784E2BD0
:102C6000E1D18378552BDED1C378432BDBD10379B7
:102C7000462B16D00379432BD5D143792B2BD2D1B8
:102C800083792B2BCFD1C379012BCCD804D050F82A
:102C9000204C58300190C9E750F8200C50F8784C7F
:102CA000F8E743794F2BE5D18379522BE2D1C379F1
:102CB000002BDFD10193024CB8E700BF0CC3000822
:102CC000A0C2000810B5044600F086F82378A4F1ED
:102CD0002002472B04D0836823BB8260012010BDF3
:102CE00063784E2BF7D1A378552BF4D1E378432B9F
:102CF000F1D12379432BEED163792B2BEBD1A3793F
:102D00002B2BE8D1E379012BE5D854F8043C0133AF
:102D1000012B44F8043CE1D1836844F8083C82600C
:102D2000012010BD00F03AFA08B500F055F88368AC
:102D300083B393F82020472A04D00022826003F155
:102D4000200008BD93F821204E2AF6D193F82220C6
:102D5000552AF2D193F82320432AEED193F8242068
:102D6000432AEAD193F825202B2AE6D193F826208E
:102D70002B2AE2D193F82720012ADED8DA69013A1A
:102D8000DA61002ADBD19A6900218260996103F13E
:102D9000200008BD00F002FA0048704704C2000895
:102DA00010B5034B0446036000F02EF9204610BD19
:102DB000E8C1000810B5054B0446036000F024F993
:102DC0002046FFF717FA204610BD00BFE8C10008F3
:102DD00000487047581100200048704758110020E3
:102DE0000378472B01D00020704743784E2BFAD14F
:102DF0008378552BF7D1C378432BF4D10379432B38
:102E0000F1D143792B2BEED183792B2BEBD1C079E8
:102E100001288CBF00200120704700BF10B5044678
:102E200028B100F003FB2046FFF7DAFF08B900F0F5
:102E3000B5F954F8140C00F09DF900BF2DE9F04FDE
:102E400083B00446FFF7CCFF68B154F8185C204605
:102E500054F8146CA76AD4F83080646B00F0E6FA7A
:102E6000284600F0A3F9204600F0E0FA00F0A2F9AD
:102E700000F0DCFA00F092F900F0D8FAFFF7A8FFB2
:102E8000036893F82720012A27D003F17802002550
:102E9000009228F0030803F1200BAA46BA4528DA6D
:102EA000236823B303EB04095846494600226B46C6
:102EB000FFF7B2FE98B9D9F8003002AA42F8040D23
:102EC000D3F810C0484611490123E047002818BF35
:102ED00001250AF1010A4444E0E71A68D7E7FFF741
:102EE0005DFE00F0E9FA00F0E7FAFFF78FFE994681
:102EF000DAE745B10420FFF7B9FA054B034903604F
:102F0000044AFFF703FE304600F034F960C30008BE
:102F100020C3000815300008F0B5036885B0002410
:102F2000102715469E6912686B4600948DF8044080
:102F300003940297B0479DF8043003F00603062B74
:102F400005BF009B012020462B6005B0F0BD00BFEF
:102F50000098904214BF01200620704710B5034B23
:102F60000446036000F078FB204610BD30C2000824
:102F700010B5054B0446036000F06EFB2046FFF7DA
:102F800039F9204610BD00BF30C2000838B51546DB
:102F90001C4600F077FB20B1082206232560E26082
:102FA000237138BDF8B516461C4607460D4600F09D
:102FB00069FB08B9032C00D9F8BD2B6839463246A5
:102FC0005B6928469847F8BDF0B583B0089C0A9D18
:102FD0001746AC4206460CD03046194600F052FB6C
:102FE00020B10B9A0123146017719371002003B074
:102FF000F0BD0999019300F045FB019B0028EBD03F
:103000000B9B5F71F2E700BF014B0360704700BF8D
:1030100090C20008014B0360704700BF90C20008D7
:1030200000487047C4C2000800487047D4C2000876
:1030300010B5034B04460360FFF7DCF8204610BDD3
:1030400090C2000810B5034B04460360FFF7D2F8A6
:10305000204610BD90C2000810B5034B0446036023
:10306000FFF77CFF204610BD78C3000810B5054B64
:1030700004460360FFF772FF2046FFF7BBF82046C7
:1030800010BD00BF78C3000870B584B0089C0D4621
:103090009442064607D0B0682946056800942C6A19
:1030A000A04704B070BD19460392029300F0EAFAFB
:1030B000039A029B0028EED00620F2E72DE9F04F9C
:1030C000884685B019461F46924683460E9EDDF817
:1030D0004090119D00F0D6FA044698B1B8F1000F67
:1030E0002E6085F804A022DB46440024B14514BFBD
:1030F0004FF001094FF00609204685F8069005B00B
:10310000BDE8F08F4E4517D0DBF808000F9B046830
:1031100001930096CDF808900395E4694146524624
:103120003B46A0470446204605B0BDE8F08F18F1A5
:10313000020F0AD00024F6E758460F9900F0A2FAD1
:103140000028E1D085F805A0EDE70123AB7100244C
:10315000E9E700BFF8B507460E4615461C46FFF7DF
:1031600015FF30B9B8683146066823462A46B46967
:10317000A047F8BD08B5804706F004FE00F056F9F8
:1031800006F000FE0C46054600F096F9013401D029
:10319000FFF73CFD2846FFF751FE00BF08B5024B84
:1031A0001868FFF7E7FF00BF1800002008B5804748
:1031B000FFF7F4FF08B5024B1868FFF7F7FF00BFF1
:1031C000140000204068704710B543680C4A04465C
:1031D0000C49A3F10C00904282B0216005D1204639
:1031E000FFF712FF204602B010BD53F8042C511E09
:1031F000002A43F8041CF2DC01A900F06DF8EEE7A8
:1032000064110020F8C3000810B50446FFF7DCFF86
:103210002046FEF7EFFF204610BD00BF10B5034B60
:1032200004460360FFF7D0FF204610BD30C40008FD
:1032300010B5054B04460360FFF7C6FF2046FEF7B6
:10324000D9FF204610BD00BF30C40008064B10B5A2
:10325000044640F8043B00F07BF8204610BD2046B1
:10326000FFF7D2FEFFF7D2FCF8C3000810B5044602
:10327000FFF7ECFF014B2046236010BD30C400086F
:10328000134B10B5984204461ED8884214D94A0000
:10329000944238BF144604F11D02B2F5805F04F178
:1032A0000D000BD9A14209D204F58054C2F30B02E0
:1032B000A41A9C4228BF1C4604F10D00FEF78EFFA5
:1032C00000224460826010BD0248FFF709F800BF89
:1032D000FCFFFF3F80C40008FEF78CBF836810B579
:1032E000002B03F1FF34846001DCFFF7F5FF10BD14
:1032F000024B834200D17047FFF7F0BF64110020FA
:1033000038B5044600680B46104461681A46FFF75A
:10331000B7FF2268054622B90C300C4B9D4210D1F4
:1033200038BD012A00F10C0306D0184604F10C0147
:1033300007F0B6FA2268F0E7227B18462A73226863
:10334000EBE700232A60AB608354E9E764110020B7
:1033500010B50B68044653F8042C82B0002AA3F180
:103360000C000BDB0949884218BF0132184618BF10
:1033700043F8042C2060204602B010BD01A90022B1
:10338000FFF7BEFF2060204602B010BD6411002090
:10339000884270B50B4604461ED000B30E1A304664
:1033A0000021FFF76DFF012E054600F10C030CD143
:1033B00022782A730F4A954216D1184670BDFFF73E
:1033C0005FFF2646054600F10C03184621463246AB
:1033D00007F066FA0346EDE7074B184670BD002B71
:1033E000EDD00648FEF752FF00222E60AA609A55E3
:1033F000E3E700BF641100207011002044C50008FD
:1034000070B50C460546164661B1084608F0B0F89E
:103410002118204632464FF00003FFF7B9FF28601D
:10342000284670BD4FF0FF31F3E700BF38B50446C2
:10343000FFF7D2FC217803684729A4F1200205D0C8
:10344000002B31D11C460260204638BD61784E29E0
:10345000F6D1A1785529F3D1E1784329F0D121792A
:103460004329EDD161792B29EAD1A1792B29E7D123
:10347000E1790129E4D854F80C5C002D11DB013509
:1034800041689A4201F1FF3144F80C5C41601CBF75
:1034900044F8103C02602046646A05F0C9FE2046EC
:1034A00038BDC5F10105EBE7FFF778FE013101D02A
:1034B000FFF7ACFBFFF7C2FC08B5FFF789FC02463B
:1034C000006800283DD090F82010472906D0BDE8BC
:1034D000084000212030116005F0ACBE90F82110AA
:1034E0004E29F4D190F822105529F0D190F82310EC
:1034F0004329ECD190F824104329E8D190F8251005
:103500002B29E4D190F826102B29E0D190F8271030
:103510000129DCD84169002905DB013908D04B1CA1
:103520000DD0416108BD0131FBD103691360F8E79B
:103530000169BDE808402030116005F07BBEFFF74F
:103540002DFE08BD70B53D4B82B01A78002A36D1E9
:1035500001241C7000F0B0F800285CD04068002105
:1035600003784FF0FF322A2B0CBF0519054602AB3A
:1035700043F8042D28460A4605F00CFC304C06465C
:1035800023683048DB680121302206F025FE019BCC
:103590007BB123682846D96806F058FC23682A487E
:1035A000DB680121022206F017FE019B8BB1FFF7B9
:1035B000F5FA23683046D96806F048FCEEE7204B60
:1035C00001211B681D22DB68204806F005FE06F07D
:1035D000D9FB304606F042FEE9E701290D4627D126
:1035E000FFF724FF03689B6898472368064629462F
:1035F000DB6817480B2206F0EFFD23683046D968D8
:1036000006F024FC23680A20D96806F0E5FBFFF7E2
:1036100053FF06F0B7FB0A4B21461B682D22DB68DF
:103620000C4806F0D9FDF4E7FFF746FFFFF7EEFA86
:10363000FFF7FCFEFFF740FFEBE700BF741100202F
:1036400048040020C4C50008F8C50008A4C5000847
:103650002CC60008FCC50008014B0360704700BF82
:1036600058C60008002070470020704700207047AF
:1036700010B5034B04460360FEF7BCFD204610BDA9
:1036800058C60008814208B511D0406803782A2B3B
:103690000BD049680B782A2B08BF013107F072FC68
:1036A000D0F1010038BF002008BD002008BD012076
:1036B00008BD00BFFFF7E6BF08B5FFF78DFB006848
:1036C00030B190F82730012B04BF006878380068CB
:1036D00008BD00BF70B44C1E4A2C2CD8DFE804F0A3
:1036E0003C3C3C3C2B2B2B2B26263C2626262626F8
:1036F000262626262626262B27272727272727275D
:103700003C26262626262B26273D3C2B3C27273DDC
:103710002B2B26263C3C3C3C3C263C3C263C2B2B85
:103720002626262B2B2B2626263C3C00CAB1446994
:103730008569AC4202DB002070BC704704EB440595
:1037400006690134AD00446174190CD07155626092
:10375000A360204670BC70471AB1002BE7D1184611
:10376000EAE71046E8E72046E6E700BF30B44369E1
:103770008469A34209DA03EB430405690133A40019
:1037800043612B1901D001B112B9002030BC704740
:103790000020285559609A60184630BC704700BF19
:1037A0002DE9F041C5680446884617462B780E4639
:1037B00017E0562B22D04B2B2DD1236B0135002F38
:1037C00003F10603E56023630CBF1B211E210022C9
:1037D00013462046FFF77EFF3060D0B1E568061D36
:1037E0002B78722BE5D1236B0135002F03F10903F0
:1037F000E56023630CBF19211C21E8E7236B013529
:10380000002F03F10903E56023630CBF1A211D217A
:10381000DDE7BDE8F081BFB9462B15D1464513D091
:103820001D241E201C2108E01B2A10D0192A00D1BB
:10383000197003F10408464506D0D8F800301A780C
:103840001A2AF1D11C70F4E73046BDE8F0811870F7
:10385000EFE700BF10B4C4680A462378522B10D09B
:103860004F2B03D008465DF8044B7047036B2021B3
:10387000033303630134C46000235DF8044BFFF796
:1038800029BF036B1F2102330363F3E72DE9F041E6
:10389000D0F80CE080469EF800400F462E2C29D030
:1038A00073462E2C14D15C78303C092C10D89C78AF
:1038B000981CA4F13002092A1AD8DD1C2C782B465A
:1038C000A4F13006092E05F10105F7D92E2CEAD016
:1038D000CEEB03027146C8F80C304046FFF746FFB6
:1038E0003A4603464B214046BDE8F041FFF7F2BEA1
:1038F0000346D6E79EF80130A3F16102192A0CD8DD
:103900000EF1020214781346A4F16101192902F1A3
:103910000102F7D95F2CF5D0C3E75F2BC0D1EFE7E9
:103920002DE9F003C2681378532B03D00020BDE8C3
:10393000F0037047531CC3605378ABB1931CC36052
:1039400053785F2B52D10024036A9C42EED2836AE3
:10395000C2690133836252F82400BDE8F003704766
:10396000A3F14102192A46D9826812076AD40029B4
:103970006AD13F4A02F1C40502E01C32AA42D5D006
:1039800014789C42F9D15569002D6AD04369846945
:10399000D2F81880A34262DA03EB4307D0F810C0D4
:1039A000BF0001331CEB070643615FD04FF01809DD
:1039B0000CF8079037467560C6F80880C762002982
:1039C0004AD0D5681269016BA34211440163ADDA94
:1039D00003EB43010469013389004361631843D059
:1039E0001820605418465D609A60A0E7A3F1300586
:1039F000EAB2092AB4D8002212E002EBC20403EBB7
:103A00008403A3F13004A24290D8C16822460B7807
:103A10004D1C1BB1C5600B785F2B11D0A3F1300595
:103A2000E9B2A3F141040929E4B2E6D9192C3FF621
:103A30007DAF02EBC20403EB8403A3F13704E2E79A
:103A4000013481E7012194E7C268117843390129E3
:103A50008CBF002101218CE755689268B3E70027ED
:103A6000ACE784694369AAE7184660E73746A5E7EB
:103A700070C60008D0F8003170B5FF2B04460D4623
:103A800006D05A1CC4F80021E55484F8045170BDD6
:103A900000261946D0F80C21D0F8083180F8FF60D4
:103AA0009847D4F8202133460132C4F8202101225E
:103AB000C4F80021E55484F8045170BD30B40268A4
:103AC000044613786E2B18D00025A3F13002092A82
:103AD00018D822680020013200EB8001226003EB3D
:103AE000410112F8013BA1F13000A3F13001092995
:103AF000F2D905B1404230BC7047531C0360537883
:103B00000125E2E70020F4E74369826910B593429A
:103B100013DA03EB43020169920001338C1843610D
:103B200008D040238B540C30FFF7C8FF2346606059
:103B3000184610BD2346184610BD0023184610BD78
:103B400010B5C36804461A785F2A0BD06E2A06D0D7
:103B50000C30FFF7B3FFE3681A785F2A06D04FF006
:103B6000FF3010BD00200133E36010BD0130FAE7E3
:103B700038B5C36804461A78542A01D0002038BDED
:103B80000133C360FFF7DCFF051EF7DBA16A636941
:103B9000A26901319342A162F0DA03EB4302216989
:103BA0000133920063618B18E8D005248C545D606A
:103BB000184638BD08B5C3681A785F2A01D00120BD
:103BC00008BD013340F80C3FFFF778FFC043C00F3A
:103BD00008BD00BF70B504460C30FFF76FFF061E2E
:103BE00032DDE56863685B1B9E422FDCA268AB197F
:103BF0005207E36015D4092E0CDD2846144908222B
:103C000006F01AFE30B92B7A2E2B10D05F2B0ED077
:103C1000242B0CD0294632462046FFF7A7FDE06250
:103C200070BDAA5D242A04BF0133E360E3E76B7A29
:103C30004E2BEFD1236B204616339E1B266305497E
:103C40001522FFF793FDEAE7002070BD0020E6E7AC
:103C5000A8CD0008B4CD000838B5044629B9C3681A
:103C60001A7832B15A1CC2601978682912D07629A4
:103C700001D0002038BD04F10C052846FFF71EFFD7
:103C8000E3681A785F2AF4D10133E3602846FFF72E
:103C900015FF03E004F10C00FFF710FFE3681A784A
:103CA0005F2AE6D10133E360012038BDD0F810313E
:103CB0000246C3B15A680B68906870B102782F2A27
:103CC0000DD1002B04DC09E002782F2A07D143B183
:103CD0008068013B0028F7D17047704701D0002071
:103CE00070474068704701211846C2F818117047A4
:103CF00038B50C46054691B323784A2B27D8DFE820
:103D000003F02E26262626302E2B2B262626262688
:103D1000262626262626262626262E26262626263B
:103D20002626262626262626262E2626262626262B
:103D30002626262E2B262626262626262626262616
:103D4000262E262626262E262E26262E2E002846EF
:103D50006168FFF7CDFF18B9A468002CCCD1002012
:103D600038BD2846211DFFF7A1FF0028F7D00378B2
:103D70002F2BF4D138BD00BFF0B5536894680133E0
:103D80000B44A34283B015460E46074613D8EC6891
:103D90000CB103B0F0BD95E809003246394618442D
:103DA00006F07EFD95E80C003244D4546B681E4446
:103DB0006E6003B0F0BDD268002AEAD11CB9022BB4
:103DC0004FF0020402D96400A342FCD828682146BF
:103DD00006F0BCFE034610B12860AC60D7E7286847
:103DE000019306F03BFA019B01222B606B60AB60F4
:103DF000EA60CEE72DE9F041C36805461A784C2AFF
:103E000002D00020BDE8F0815A1CC26059785F29B9
:103E10003AD05A290DD10132EA602846002100F03B
:103E2000EFFDEA681378452BEBD10132EA60BDE87B
:103E3000F08100F003FA07460028E2D00378272B30
:103E400033D0E9680B786E2B28D04FF03B08452B18
:103E500034D0002BD5D04B1C01E0002CD1D0EB602E
:103E60001E4613F8014B452CF7D1721A2846FFF76E
:103E70007DFC3A46034641462846FFF72BFCEA689C
:103E80001378452BBDD1D0E79A1CC2609B785A2B82
:103E9000C1D0452B4FF00000B3D1C6E74A1CEA6001
:103EA0004B784FF03C081146D1E743681A7C002A52
:103EB000C7D05A682B6B9B1A2B63C2E70022D5E749
:103EC000F0B5C16883B00B780446493B012BC76A43
:103ED0001ED84A1CC2604B78452B45D0002102AE4B
:103EE00046F8041D493B0F2B35D8DFE803F02F2F90
:103EF0003414343434343434343434343408013203
:103F0000E260204601F06CFAE3681A78452A27D06F
:103F1000002003B0F0BD2046FFF76CFF05462046A9
:103F20002F212A460023002DF2D0FFF7D3FB30606B
:103F300000F108060028EBD0E2681378452BD1D1B8
:103F400001980132E260E76203B0F0BD2046FFF75E
:103F5000B7FF0546E3E7204600F070F90546DEE7C7
:103F60000133E3600546DAE702310022C1601346FF
:103F70002F2103B0BDE8F040FFF7ACBB2DE9F041C5
:103F8000C26882B0137805464C3B0E2B6DD8DFE833
:103F900003F02C6C316C6C6C6C176C2C6C6C6C6C56
:103FA000080001320021C26000F02AFDEB680646DD
:103FB0001978452900F0D180002002B0BDE8F081D9
:103FC0005378742B69D00021FFF7AAFCEB680446F4
:103FD0001B78492B50D12846FFF772FF2246034633
:103FE00004212846FFF776FB01E001F0BBF802B0A0
:103FF000BDE8F0810132C26001A90122FFF7D0FBC8
:1040000007460028D8D028460021FFF723FCEB689C
:1040100080461C780026002C00F08E80442C00F096
:104020008280A4F13002D2B2092A5CD9A4F16102E3
:10403000D2B2192A57D9432C55D0552C53D04C2CD9
:1040400051D0532C00F08480492C7AD0542C00F0AD
:10405000B380452C00F0D8804D2C6DD1002E6BD054
:104060005A1CEA605C781346D5E701F07BF8EB68F0
:1040700004461B78492B03D0204602B0BDE8F081EE
:10408000002899D02B6A6A6A934295DAEA69591C2A
:1040900042F82300284629629EE702326549C26041
:1040A0000322FFF763FB0446284601F05BF8224633
:1040B000034601212846FFF70DFB2A6BEB6803320C
:1040C0002A631B780446492BD6D100283FF474AFED
:1040D0002B6A6A6A9342BFF66FAFEA69591C42F8CD
:1040E0002300296277E7284601F03CF8CEB1012190
:1040F000324603462846FFF7EDFA0646EB68532C96
:104100001C7888D0452C8CD0B6B12B6A6A6A934251
:1041100012DAEA69591C42F82360EB6829621C78BC
:1041200079E70646EAE75B7803F0DF03542BDAD140
:10413000284600F083F8D9E70020386002B0BDE8D7
:10414000F081002EF8D02846FFF7BAFE0421CFE711
:1041500028460121FFF7E4FBC8E75A1CEA605A78B9
:10416000732A3DD0642A2BD04FF0FF372846FFF743
:1041700005FF044620B10378442B01D0462B29D1FA
:104180007B1C25D06B69AA69934213DA03EB4302C7
:104190002969013392006B618B1803D04520885444
:1041A0009F605C60284632460221FFF793FA02B016
:1041B000BDE8F0810023F5E72846FFF7D9FC95E735
:1041C0000233EB602846FFF7BBFC071ECEDAF3E6AE
:1041D0002346E7E72846FFF7EDFC0028D0D1EBE6C1
:1041E0000233EB602846FFF7E5FC00283FF4E4AE1D
:1041F000284611490E22FFF7B9FA3246034602213A
:104200002846FFF767FAF2E63E60002E3FF4D4AE90
:10421000B8F1000F04D0019BCDF80480C8F8043039
:10422000EB681A78452A7FF4C7AE0133EB6001983A
:10423000DDE600BFDCCD0008CCCD0008F0B5C268DB
:1042400083B013780446722B54D0562B52D04B2B8C
:1042500050D0A3F130014A297DD8DFE811F0A20047
:10426000A200A200A200A200A200A200A200A2003E
:10427000A2007C007C007C007C007C007C007C0038
:10428000A7007C00CF00FF007C00DC00F2007C0077
:104290007C007C007C007C007101A200C101A701B0
:1042A0007C00B401CE01EF0107027C007C007C00A1
:1042B0007C00A2007C007C007C007C007C007C00F8
:1042C000180218021802180218021802180218021E
:1042D000180218027C0018021802180218027C004A
:1042E0007C007C00180218028900180218021802CB
:1042F00018021802204601A90022FFF751FA0546CC
:1043000048B32046FFF79AFF286020B302781F3A8F
:10431000012A23D9019AF2B1236A616A8B421ADA1F
:10432000E1695D1C41F823200198256203B0F0BDCE
:10433000204601F055F84121024600232046FFF7B0
:10434000C9F9019038B1E3681A7822B15A1CE260C9
:104350001B78452B1AD0002003B0F0BD019A4168AC
:1043600042602B6801932960019A002AD4D1F2E7B8
:104370000132E2602046FFF72DFC2821024600238F
:104380002046FFF7A7F901900028E4D0236A626A6B
:104390009342E0DAE269591C42F823000198216255
:1043A000DAE72046FFF7EAFD0190EDE7511CE160F6
:1043B00053785F2B00F07782303B092B00F27B8231
:1043C0000A460132E2601378303B092BF9D9521AC0
:1043D0002046FFF7CBF90546002830D0E1680B787E
:1043E0005F2B2CD10131E1602046FFF727FF2A46E1
:1043F00003462A212046FFF76DF9D5E70132E26036
:104400002046FFF71BFF2521024600232046FFF729
:1044100061F90190B8E7531CE36053780121592BEF
:1044200004BF0232E260204600F0CCFA014620468A
:10443000FFF710FAE3681A78452A00F03982002065
:10444000B2E70132E2602046FFF7F8FE262102467D
:1044500000232046FFF73EF9019095E7531CE360E7
:104460005378002B3FF477AF931CE3605378463BBF
:10447000302B3FF670AF01A151F823F093470008AD
:1044800057430008574300085743000857430008A4
:104490005743000857430008574300085743000894
:1044A0005743000857430008574300085743000884
:1044B000574300083143000857430008574300089A
:1044C0005743000857430008574300085743000864
:1044D0005743000857430008574300085743000854
:1044E0005743000857430008874700085743000810
:1044F000574300085F470008374700080F47000888
:1045000057430008E7460008B7460008574300082D
:1045100057430008574300085743000869480008FC
:104520005743000853480008574300085743000802
:104530002F4800083143000857430008F947000896
:104540000132E2602046FFF779FE01AE07463146B0
:1045500020460122FFF724F9054600283FF46FAFFB
:104560002046FFF76BFE286000283FF468AFB54295
:1045700015D00178A1F11F02012A40F2A481292956
:104580000DD0019A002A3FF45AAF236A616A8B4228
:10459000BFF655AFE169581C41F8232020623A4626
:1045A00020462B21019BFFF795F8FDE60132E260E2
:1045B0002046FFF743FE2221024600232046FFF754
:1045C00089F80190E0E60132E2602046FFF736FE0E
:1045D0002321024600232046FFF77CF80190D3E612
:1045E0000132E2602046FFF729FE24210246002323
:1045F0002046FFF76FF80190C6E65378A3F130022A
:10460000092A05D95F2B03D0413B192B00F26381A6
:1046100020460021FFF784F9E36801901B780546E6
:10462000492B7FF499AE2046FFF74AFC2A46034601
:1046300004212046FFF74EF80190A5E62046FFF73B
:1046400097FAE36801901B78492B7FF49DAE002810
:104650003FF481AE236A626A9342BFF67CAEE269A0
:10466000591C42F82300019D2162DCE70132E2601F
:104670002046FFF7AFFA01902046FFF7DFFD21212A
:104680000246019B2046FFF725F801907CE6616910
:10469000A069613BA04D03EB8303814205EB8303DB
:1046A000C0F2F480002043685968236B01320B4448
:1046B000E260236350E66369A269934280F2F58069
:1046C00003EB43022169920001338818636100F013
:1046D000ED80924D27238B542B4645605A68236BFF
:1046E0001344236338E66369A269934280F2DD8054
:1046F00003EB43022169920001338818636100F0E3
:10470000D580874D27238B542B464560E6E76369A8
:10471000A269934280F2C98003EB430221699200AF
:1047200001338818636100F0C1807E4D27238B54CC
:104730002B464560D2E76369A269934280F2B58057
:1047400003EB43022169920001338818636100F092
:10475000AD80754D27238B542B464560BEE76369BA
:10476000A269934280F2A18003EB43022169920087
:1047700001338818636100F099806C4D27238B54B6
:104780002B464560AAE7204669490422FEF7EEFF62
:10479000E2E56369A1698B4280F2A980216903EB9C
:1047A0004305013301EB850563612C2301952B70D3
:1047B0009378303B092B8CBF002301232B81002BE6
:1047C00040F097802046FFF739FD6860019B5B68E9
:1047D000002B3FF4C0AD04F10C00FFF76FF9E36864
:1047E0001A7832B15A1CE2601A78B2F173035A4255
:1047F0005A4101984281AFE593785F2B7FD02046E4
:10480000FFF782F90546002D00F08380E3681A78EF
:104810005F2A7FF414AE0133E3602046FFF70EFDFC
:104820002A4603462D212046FEF754FFBCE5636966
:10483000A269934239DA03EB430221699200013302
:104840008818636132D03B4D27238B542B4645603B
:1048500044E72046FFF7F2FC4921024600232046A8
:10486000FEF738FF01908FE56369A26993421CDA75
:1048700003EB43022169920001338818636115D06C
:104880002D4D27238B542B46456027E701EB410034
:104890002569013180006161291837D027262E54FF
:1048A00008464B6000E700259CE50020436815E7BB
:1048B0000133E36078E5204600F092FD05460028CC
:1048C0007FF48CADBBE50199426841602B6811789B
:1048D00001932A6053E62046FFF750FB0190002821
:1048E0003FF439AD0378182B7FF450AD34E5002543
:1048F0005BE704F10C00FFF7E1F8019D62E703328A
:10490000E260204600F06CFD05467CE74B680846F7
:10491000CAE6284648E500BF34C70008A0C9000819
:1049200078C900083CC9000864C9000850C90008DB
:10493000E0CD00088CC90008B4C9000870B5002398
:1049400082B0C2680193137804464BB3452B27D03D
:104950002E2B25D001AE17E04F2B17D02046FFF7A6
:104960006DFC05462E2120462A460023C5B1FEF7E0
:10497000B1FE3060A0B1E26800F10806137843B1DF
:10498000452B06D02E2B04D0522BE5D15378452B46
:10499000E4D1019B23B19A682AB1184602B070BDD8
:1049A000002002B070BD596808782728F5D1496801
:1049B000087C0928F1D14D68216B1846491B2163F9
:1049C0005A60EBE770B5C36804461A784A2A0DD0DE
:1049D00071B90D462046FFF7B1FF034670B120467E
:1049E0002A462921BDE87040FEF774BE0133C3603A
:1049F0002046FFF723FC05460028EBD1002070BDC0
:104A00002DE9F047C36805461A780E46472A34D088
:104A1000542A32D0FFF7B2FA044658B316B1AB6845
:104A2000DB071FD5EB681B7823B3452B22D021462B
:104A30000B78042BA3F11C0200F0A480C0F0A0802E
:104A4000042A00F29D8049680029F1D12846FFF729
:104A5000B9FF2246034603212846BDE8F047FEF78A
:104A600039BE64682378A3F11C02042AF9D9022B09
:104A700000F06E812046BDE8F087296B01F1140239
:104A80002A631A78542A05D0472A00F0ED800020C6
:104A9000BDE8F0875A1CEA605A78002AF7D09A1CC1
:104AA000EA605B78433B332BF1D801A252F823F044
:104AB000BD4F00088F4A00088F4A0008A74F000822
:104AC0008F4A0008914F00087B4F0008654F00088F
:104AD0008F4A00088F4A00088F4A00088F4A000852
:104AE0008F4A00088F4A00088F4A00088F4A000842
:104AF0004F4F0008354F00088F4A00081B4F000831
:104B0000DF4E00088F4A00088F4A00088F4A0008CD
:104B10008F4A00088F4A00088F4A00088F4A000811
:104B20008F4A00088F4A00088F4A00088F4A000801
:104B3000AB4E00088F4A00088F4A00088F4A0008D1
:104B40008F4A0008F54E00088F4A00088F4A000877
:104B50008F4A00088F4A00088F4A00088F4A0008D1
:104B60008F4A00088F4A00088F4A00088F4A0008C1
:104B70008F4A00088F4A00088F4A0008854E0008B7
:104B8000002163E74B68002B00F0F4801A78013AAB
:104B9000322A00F2EF8001A151F822F06D4D000899
:104BA0006D4D0008754D0008754D0008754D0008E5
:104BB000754D0008814B0008814B0008754D0008B9
:104BC000754D0008754D0008754D0008754D0008BD
:104BD000754D0008754D0008754D0008754D0008AD
:104BE000754D0008754D0008754D0008754D00089D
:104BF000754D0008754D0008754D0008754D00088D
:104C0000754D0008754D0008754D0008754D00087C
:104C1000754D0008754D0008754D0008754D00086C
:104C2000754D0008754D0008754D0008754D00085C
:104C3000754D0008754D0008754D0008754D00084C
:104C4000754D0008754D0008754D0008754D00083C
:104C5000754D0008754D0008754D0008754D00082C
:104C6000754D0008814B00085A1CEA605A78002AEA
:104C70003FF40DAF9A1CEA605A78413A312A3FF668
:104C800006AF01A151F822F0414E00088F4A0008FA
:104C90008F4A00088F4A00088F4A00088F4A000890
:104CA0008F4A00088F4A00088F4A00088F4A000880
:104CB0008F4A00088F4A00088F4A00088F4A000870
:104CC0008F4A00088F4A00088F4A0008234E0008C8
:104CD0008F4A0008594E00088F4A00080D4E000800
:104CE0008F4A00088F4A00088F4A00088F4A000840
:104CF0008F4A00088F4A00088F4A00088F4A000830
:104D00008F4A00088F4A00088F4A00088F4A00081F
:104D10008F4A00088F4A00088F4A00088F4A00080F
:104D20008F4A00088F4A00088F4A00088F4A0008FF
:104D30008F4A00088F4A00088F4A00088F4A0008EF
:104D40008F4A00088F4A00088F4A0008794D0008F2
:104D5000A3681A781C3A042A04D85B681A781C3AAB
:104D6000042AFAD9A3602046BDE8F0879B68002B8F
:104D70007FF40CAF012169E605F10C00FEF79EFE01
:104D800001287FF784AEEB681A78002A3FF47FAEE3
:104D90005E1CEE601B785F2B7FF479AE471E4FF0F0
:104DA00000084FF03F093378002B3FF470AE242BFE
:104DB00000F024810024335D23B1242B02D0013480
:104DC000BC42F8DB314628462246FEF7CFFCEE68AF
:104DD0003F1B2644EE6000283FF459AEB8F1000FA7
:104DE00000F02981424603463E212846FEF772FC28
:104DF000804600283FF44BAE002FD4DC28464246C4
:104E00003D210023BDE8F047FEF764BC2846FFF7CC
:104E1000B5F81321024600232846BDE8F047FEF707
:104E200059BC2846FFF7AAF804462846FEF76CFE50
:104E30002246034616212846BDE8F047FEF74ABC45
:104E400028460021FFF7DCFD1721024600232846F3
:104E5000BDE8F047FEF73EBC9A7828460021002ABC
:104E600000F0EB80DA1CEA609B786E2B40F0E58066
:104E7000FFF7C6FD4821024600232846BDE8F0475B
:104E8000FEF728BC28467621FEF7E6FE00283FF410
:104E9000FEAD28460021FFF7B3FD10210246002396
:104EA0002846BDE8F047FEF715BC28460021FEF76E
:104EB000D3FE00283FF4EBAD28460021FEF7CCFEE0
:104EC00000283FF4E4AD28460021FFF799FD1121A9
:104ED000024600232846BDE8F047FEF7FBBB284604
:104EE000FFF74CF81521024600232846BDE8F0479D
:104EF000FEF7F0BB28466821FEF7AEFE00283FF41F
:104F0000C6AD28460021FFF77BFD0F210246002396
:104F10002846BDE8F047FEF7DDBB0F312963284680
:104F2000FFF78CF90921024600232846BDE8F04727
:104F3000FEF7D0BB0A3129632846FFF77FF90A2123
:104F4000024600232846BDE8F047FEF7C3BB2846CB
:104F5000FFF774F90D21024600232846BDE8F0470B
:104F6000FEF7B8BB2846FFF769F912210246002375
:104F70002846BDE8F047FEF7ADBB2846FFF75EF9CF
:104F80000C21024600232846BDE8F047FEF7A2BBED
:104F90002846FEF7F3FF1421024600232846BDE809
:104FA000F047FEF797BB2846FFF748F90E21024667
:104FB00000232846BDE8F047FEF78CBB2846FFF7E4
:104FC0003DF9044605F10C00FEF778FD0028FFF6D8
:104FD0005EADEA6811785F297FF459AD0132EA606D
:104FE0002846FFF72BF92B6B0246591D29632346F0
:104FF00028460B21BDE8F047FEF76CBB7378532BB6
:1050000027D05F2B23D0242B7FF441AD1C466B6946
:10501000AA6993421FDA2A69581C03EB43016861AD
:1050200012EB810017D002F821904460EE68023F35
:105030000236EE60D2E68046DEE6FFF7E1FC47216D
:10504000024600232846BDE8F047FEF743BB2E2466
:10505000DDE72F24DBE7EB6800200233EB60BDE8DF
:10506000F08700BF2DE9F041C36880461A786AB323
:105070005A1CC260587893F800C018B19A1CC8F83E
:105080000C205878BCF1760F41D1A0F13004E3B286
:10509000092B1DD84046FEF79DFDD8F81430D8F8EE
:1050A0001820014693422FDA03EB4302D8F8100090
:1050B00001339200C8F81430831825D021B332256B
:1050C00085545C6099601846BDE8F08194461046AE
:1050D000234F3D25002304E0644512D90D46AB4221
:1050E00012D0EA1A02EBD27203EB62010A01BE5837
:1050F0003A443478A445EFD17478A04217D0844262
:10510000ECD84B1CAB42ECD10020BDE8F081BCF1E7
:10511000630FDDD17628DBD14046FFF78FF83321CE
:10512000024600234046BDE8F041FEF7D3BAD8F866
:105130001430D8F818108B42E6DA03EB4301D8F8A4
:10514000100001338900C8F81430431805D0312409
:1051500044545A601846BDE8F0811846BDE8F08115
:10516000C8C90008F8B5C26804461378A3F1300135
:1051700009292ED9A3F16101192933D9A3F14301DA
:10518000012971D94C2B00F08780552B40F08F807E
:1051900053786C2B30D0742B40F08980531CC36043
:1051A0005178742900F0C38042294FF0000517D1CF
:1051B0000133E3602046FEF70DFD2A4603464A21EF
:1051C0002046FEF787FAE36805461A78422AEFD0B0
:1051D00006E0FEF7FFFCE368054619784229E7D0B0
:1051E0002846F8BDFFF73EFF054610B10378312B86
:1051F0005FD0E3681978F1E7531CC36051786C29DC
:10520000D2D10232C260FFF799FBE368064600285C
:1052100000F0E18019784529C6D10133E3602046CA
:10522000FEF78EFC0028C0F29C806369A26993425D
:1052300080F2978003EB43022169920001338D18BD
:10524000636100F08E8044238B546E60A860236AF3
:10525000626A934280F28580E269591C42F82350C9
:10526000E36821621978B9E7C06A00283CD0017868
:10527000002937D1216B83680B44236311784329BC
:1052800078D0442973D15378303B052B4DD8DFE8D3
:1052900003F0482D464C4C4A0132C260FEF79AFC9E
:1052A000054620B12046FEF785FC0028A1D100204C
:1052B000F8BD4368226B996818680A440732226374
:1052C000464905F05FFE002893D12046FEF782FC98
:1052D0002A46034635212046FEF7FCF9E3680546D9
:1052E00019787BE71829C5D01946C8E702276169F4
:1052F000A569931CA942E36037DA01EB41052669F1
:105300000131AD00616171192FD070B34FF0080CFD
:1053100006F805C00D460F71886091785EE7032797
:10532000E5E70127E3E70427E1E7002558E7023234
:10533000C260FEF705FC002813DB6369A269934293
:105340000FDA03EB43022169920001338D18636188
:1053500007D046238B546860236A626A9342FFF643
:105360007BAFE3680025197838E70025D5E71346B9
:10537000002533E75378313B042BD6D801A151F8EF
:1053800023F000BFCB53000899530008D353000803
:105390002B530008CF53000802276169A569931CAD
:1053A000A942E360E1DA01EB410526690131AD0074
:1053B00061617119D9D00028D7D04FF0070C06F8D9
:1053C00005C00D460F718860A7E70127E5E70427B0
:1053D000E3E70327E1E705461978FFE6E8CD000893
:1053E0002DE9F041C16804460B784C2B00F09E80FB
:1053F000542B00F09F80732B57D0662B2DD0A3F138
:105400003002092A0DD82046FFF7ACFE05460028D9
:1054100000F08380E3681B78492B00F0A380BDE88F
:10542000F0816F2B7CD0692B00F0A780742B17D1F3
:105430004B786C2B14D1FEF701FFE1680546023171
:10544000E1602046452100F0A9F92A4603463021B3
:105450002046BDE8F041FEF73DB94B78702B40D0B7
:105460002046FFF7FFFD0546002856D00678312E6E
:1054700064D0322E2BD0332E4FD10027E3681A7818
:105480005F2A00F00D812046FFF7AAFF03462FB1E7
:105490001A4620463721FEF71DF9034620462A46C4
:1054A0003521BDE8F041FEF715B94B78722B00F0BD
:1054B000DE80702BD4D10231C160FFF791FF49210A
:1054C000024600232046BDE8F041FEF703B94368D9
:1054D0000027032B21D8DFE813F056003F019A0084
:1054E0005E008B1CC3608B78542B00F0D580FEF7D8
:1054F00027FB451C11D06369A26993420DDA03EBC7
:10550000430221690133920063618B1805D00620A4
:1055100088545D601846BDE8F0810020BDE8F08148
:105520004B786E2B9CD10231C1606CE7BDE8F04135
:10553000FEF760BCBDE8F041FEF71ABBD0F804806E
:10554000236BD8F80820D8F80070023A134423637C
:1055500038468D4905F016FD002800F0A980D8F8DE
:105560000C30B6E72046FEF7ABFC2A460346042182
:105570002046BDE8F041FEF7ADB84B786C2B7FF4C8
:105580006FAF00255BE720462A4634210023BDE8A3
:10559000F041FEF79FB838467C4905F0F3FC00283F
:1055A00000F08A803B786E2BB7D17B78772B01D0C7
:1055B000612BB2D15F21204600F0F0F8064620466C
:1055C000FEF73CFEE16807460B78452B00F0A9800A
:1055D000702B00F0B580692B9FD14B786C2B9CD140
:1055E0002046FFF7FDFE03463A4620463A21FEF7E5
:1055F00071F83246034639212046FEF76BF82A46F9
:10560000034638212046BDE8F041FEF763B86B68D9
:105610001B685A78632A62D02046FFF7E1FE804675
:1056200038465B4905F0AEFC002852D0384659494F
:1056300005F0A8FC28B13846574905F0A3FC00281E
:105640006AD12046FFF78EFDE36806461B78492B9A
:105650006BD04246334620463721FEF73BF82A46B8
:10566000034636212046BDE8F041FEF733B802314B
:10567000C160FEF7E3FD05462046FFF773FDE168D4
:10568000064609782046492936D02A463346012164
:10569000BDE8F041FEF71EB80331C16000252AE7DE
:1056A0000133E3602046452100F078F80346EEE63A
:1056B0002046FEF7C3FDF0E62046FFF791FE0646C2
:1056C0002046FFF78DFE07462046FFF789FE03467A
:1056D0008AE72046452100F061F80646B9E71B78C5
:1056E000A3F16302012A02D9723B012B94D8204610
:1056F000FEF7A4FD804693E7FEF7E2FB3246034641
:1057000004212046FDF7E6FF2A46034601212046F4
:10571000BDE8F041FDF7DEBF2046FFF761FE06461B
:1057200097E70131E16000235EE72046FEF7C8FB02
:105730003246034604212046FDF7CCFF064688E7A3
:105740004B78692B7FF4E9AE0231E16020464521B8
:1057500000F024F8034647E72FB13B78702B06D0C2
:105760006D2B04D00027332E7FF48DAE86E67A7839
:105770009A42F7D1E3681A785F2A01D00127F2E74D
:105780000133E3600027EEE794D20008F8CD00086B
:10579000ECCD0008F0CD0008F4CD0008F0B5C368EA
:1057A0000F46197883B00022B9420446019218BF0F
:1057B00001AE0AD11BE0FDF78DFF306000F1080655
:1057C00068B1E3681A78BA420CD02046FFF708FEA9
:1057D00005462E2120462A460023002DEBD100202D
:1057E00003B0F0BD01980133E36003B0F0BD0133B5
:1057F000C3602E21134603B0BDE8F040FDF76ABF39
:105800002DE9F041044608460D4605F0B1FE50B3BF
:10581000D4F800112F184FF0000809E00B46BD42E4
:1058200001F10101C4F80011E65484F804611AD0B2
:10583000FF2915F8016BF1D1D4F8083184F8FF8005
:105840002046D4F80C219847D4F8203101210B448C
:10585000C4F82031BD424FF00003C4F80011E654F3
:1058600084F80461E4D1BDE8F08100BF2DE9F04F78
:10587000137897B0154604460E464B2B01F29081E3
:10588000DFE813F08704A603A6031D03F704DF0473
:10589000600518030603DF02B80291026A022D02B6
:1058A0000602DF01B80191016A0143011C01F50004
:1058B000CE00A7007F006B006B006B004C004C001B
:1058C0004C004C004C004C004C00F108F1084C001E
:1058D0004C00C3081309B60742072507E20625074F
:1058E000AE06AE066909190942099C085A05460523
:1058F0003A05350575067006700631063106F9055C
:10590000EE05E005AF058805750827084E088E09E5
:10591000CB07F10760040A04D303B404D4F81411CC
:1059200016ABD4F8102143F8401D00210795C4F8A8
:105930001431099208916A682046314602F030FA23
:10594000089B23B931462A46204602F035FA069BC9
:10595000C4F8143117B0BDE8F08FD0F8147177B1E6
:105960003A46916841B951680978A1F119000228B5
:1059700005D88B4201F054851268002AF1D13946CE
:10598000CEE79768D2F80490002FE3D00025D0F836
:105990000011A84609E00B4601310135AF42C4F8B9
:1059A0000011E65484F80461D4D0FF2919F8056089
:1059B000F1D1D4F8083184F8FF802046D4F80C21C6
:1059C0009847D4F8203101210B44C4F8203100233A
:1059D000E3E7D64FD0F8001107F1110A4FF00009A4
:1059E0000AE00B4601315745C4F8001104F8038062
:1059F00084F8048101F00D82FF2917F8018FF0D19E
:105A0000D4F8083184F8FF902046D4F80C21984748
:105A1000D4F8203101210B44C4F820310023E2E7FF
:105A2000C34FD0F8001107F1150A4FF000090AE042
:105A30000B4601315745C4F8001104F8038084F87F
:105A4000048101F0F180FF2917F8018FF0D1D4F81B
:105A5000083184F8FF902046D4F80C219847D4F8F8
:105A6000203101210B44C4F820310023E2E7B14F7B
:105A7000D0F8001107F1190A4FF000090AE00B46AF
:105A800001315745C4F8001104F8038084F80481FB
:105A900001F0B980FF2917F8018FF0D1D4F808314F
:105AA00084F8FF902046D4F80C219847D4F8203190
:105AB00001210B44C4F820310023E2E79E4FD0F8C7
:105AC000001107F1160A4FF000090AE00B460131F8
:105AD0005745C4F8001104F8038084F8048101F0EC
