:020000040800F2
:100000009023002049010008E1010008E1010008F7
:10001000E1010008E1010008E1010008E101000838
:10002000E1010008E1010008E1010008E101000828
:10003000E1010008E1010008E1010008F502000803
:10004000E1010008E1010008E1010008E101000808
:10005000E1010008E1010008E1010008E1010008F8
:10006000E1010008E1010008E1010008E1010008E8
:10007000E1010008E1010008E1010008E1010008D8
:10008000E1010008E1010008E1010008E1010008C8
:1000900011030008E1010008E1010008E101000886
:1000A000E1010008E1010008E1010008E1010008A8
:1000B000E1010008E1010008E1010008E101000898
:1000C000E1010008E1010008E1010008E101000888
:1000D000E1010008E1010008E1010008E101000878
:1000E000E1010008E1010008E1010008E101000868
:1000F000E101000810B5054C237833B9044810B16C
:100100000448AFF300800121217010BD800500205C
:1001100000000000086E000808B5064B1BB1064839
:100120000649AFF300800648016811B1054A02B1E3
:10013000904708BD00000000086E000884050020FC
:1001400080050020000000001B4880F30988022081
:1001500080F31488BFF36F8F18488047184C194DEF
:10016000AC423DBF54F8041B54F8042B54F8043B34
:1001700007E09A423EBF51F8040B42F8040BF8E73F
:10018000EEE70020104B114CA3423ABF53F8041B7A
:1001900053F8042B05E091423CBF41F8040BFAE709
:1001A000F2E70B4880470B4880470B4880470B48D5
:1001B0008047FEE77047000090270020B501000847
:1001C000086E0008146E0008146E00081C6E00080B
:1001D000D56C0008B5010008F1010008856C000825
:1001E000684620F007018D4681B400AFFEE700BFEE
:1001F00080B500AF00F006F800F05EF800F058FDA2
:10020000FEE700BF80B592B000AF4FF46053C4F278
:1002100002034FF46052C4F20202526A42F080526A
:100220005A624FF4E043C4F200034FF4E042C4F2D8
:100230000002126822F4C05242F400621A604FF0C9
:1002400001033B604FF001037B604FF002037B62D0
:100250004FF48033BB624FF48013FB624FF44003D2
:100260003B633B46184604F05FFA4FF001037B63A3
:100270004FF00303BB634FF00003FB634FF0000339
:100280003B644FF000037B6407F1340318464FF0E2
:10029000010105F0DFFE4FF46053C4F202034FF496
:1002A0006052C4F20202126A42F001021A6207F1BD
:1002B0004807BD4680BD00BF80B400AF4FF4605317
:1002C000C4F202034FF46052C4F20202D26942F057
:1002D0002002DA614FF46053C4F202034FF460521B
:1002E000C4F20202D26942F00102DA61BD4680BC6A
:1002F000704700BF684620F007018D4689B500AF02
:1003000002F022F8BD46BDE889408546704700BF2F
:10031000684620F007018D4689B500AF40F6A01071
:10032000C2F2000002F056F9BD46BDE8894085469C
:10033000704700BF80B500AF40F69C13C2F20003C7
:1003400041F66452C2F200021A6040F69C13C2F2F7
:1003500000031B68184640F29C71C2F200014FF086
:10036000000200F0B5FE40F69C13C2F200031B68C9
:10037000184640F29C51C2F2000100F0C5FE4FF059
:1003800000035BB2184680BD80B400AF4FF000039D
:100390005BB21846BD4680BC704700BF80B483B0D6
:1003A00000AF396013460246FA71BB80FB79232BFC
:1003B0004AD801A252F823F0490400084904000871
:1003C00049040008490400084904000849040008D9
:1003D00049040008490400084904000849040008C9
:1003E00049040008490400084904000849040008B9
:1003F00049040008490400084904000849040008A9
:100400004904000849040008490400084904000898
:100410004904000849040008490400084904000888
:100420004904000849040008490400084904000878
:100430004904000849040008490400084904000868
:10044000490400084904000800BF4FF000035BB2F4
:10045000184607F10C07BD4680BC704780B483B0D6
:1004600000AF786039604FF000035BB2184607F1C7
:100470000C07BD4680BC704780B582B000AF786085
:100480007B681A684FF4B843C4F200039A4217D14C
:100490004FF46053C4F202034FF46052C4F20202FC
:1004A000526A42F400025A624FF014004FF0000109
:1004B0004FF0000201F0EEFE4FF0140001F008FFD3
:1004C00007F10807BD4680BD80B582B000AF7860F7
:1004D0007B68D3F81C227B6803F5F6731046194637
:1004E00000F0CEFE07F10807BD4680BD80B582B0A2
:1004F00000AF78600B46FB707B68D3F81C12FA786B
:10050000786813464FEAC3039B1A4FEA8303C31864
:1005100003F58C731B68FA78084611461A4600F0FA
:10052000FDFE07F10807BD4680BD00BF80B582B063
:1005300000AF78600B46FB707B68D3F81C12FA782A
:10054000786813464FEAC3039B1A4FEA8303C31824
:1005500003F138031B68FA78084611461A4600F082
:100560003FFF07F10807BD4680BD00BF80B582B0E0
:1005700000AF78607B68D3F81C32184601F030F881
:1005800007F10807BD4680BD80B584B000AF786034
:100590004FF00103FB737B689B68022B03D14FF084
:1005A0000103FB7303E04FF00103FB7300BF7B68A3
:1005B000D3F81C22FB7B1046194600F0D5FF7B6860
:1005C000D3F81C32184600F095FF07F11007BD461E
:1005D00080BD00BF80B582B000AF78607B68D3F883
:1005E0001C32184600F0D2FF7B689B69002B0BD0B1
:1005F0004FF46D43CEF200034FF46D42CEF2000291
:10060000126942F006021A6107F10807BD4680BD73
:1006100080B582B000AF78607B689B69002B09D001
:1006200040F6C033C2F200031B68002B02D14FF02A
:10063000010301E04FF00003002B0DD000F0C6F9DC
:100640004FF46D43CEF200034FF46D42CEF2000240
:10065000126922F006021A6140F6C033C2F20003AA
:100660004FF000021A607B68D3F81C32184600F085
:10067000A5FF07F10807BD4680BD00BF80B582B069
:1006800000AF786040F6A013C2F200037A68C3F8A6
:100690001C227A6840F6A013C2F20003C2F820328E
:1006A00040F6A013C2F200034FF4B842C4F20002B5
:1006B0001A6040F6A013C2F200034FF008025A601D
:1006C00040F6A013C2F200034FF002029A6040F617
:1006D000A013C2F200034FF00302DA6040F6A01349
:1006E000C2F200034FF002021A6140F6A013C2F2F8
:1006F00000034FF000025A6140F6A013C2F200035B
:100700004FF000029A6140F6A013C2F200034FF0CE
:1007100000021A6240F6A010C2F2000001F032FEA0
:100720007B68D3F8203218464FF000014FF00002EA
:100730004FF0180303F0ACFF7B68D3F82032184663
:100740004FF080014FF000024FF0580303F0A0FF7C
:100750007B68D3F8203218464FF081014FF0000239
:100760004FF0C00303F094FF7B68D3F820321846A3
:100770004FF001014FF000024FF4887303F088FF3F
:100780007B68D3F8203218464FF082014FF0000208
:100790004FF4807303F07CFF4FF00003184607F11D
:1007A0000807BD4680BD00BF80B582B000AF78604D
:1007B0007B68D3F82032184601F0FCFE4FF00003AE
:1007C000184607F10807BD4680BD00BF80B582B05E
:1007D00000AF7860F970BA703B807B68D3F8200274
:1007E000F9783A88BB7802F03FF84FF000031846DA
:1007F00007F10807BD4680BD80B582B000AF7860C4
:100800000B46FB707B68D3F82022FB781046194614
:1008100002F01AFC4FF00003184607F10807BD4626
:1008200080BD00BF80B582B000AF78600B46FB7022
:100830007B68D3F82022FB781046194603F034F980
:100840004FF00003184607F10807BD4680BD00BF02
:1008500080B582B000AF78600B46FB707B68D3F840
:100860002022FB781046194603F0DCF94FF0000314
:10087000184607F10807BD4680BD00BF80B485B0AB
:1008800000AF78600B46FB707B68D3F82032FB60CA
:10089000FB785BB2002B0EDAFB7803F07F02F9687D
:1008A00013464FEAC3039B1A4FEA8303CB1803F1A5
:1008B00028039B780DE0FB7803F07F02F96813466C
:1008C0004FEAC3039B1A4FEA8303CB1803F58473E3
:1008D0009B78184607F11407BD4680BC704700BFDF
:1008E00080B582B000AF78600B46FB707B68D3F8B0
:1008F0002022FB781046194601F088FF4FF00003D4
:10090000184607F10807BD4680BD00BF80B584B01A
:1009100000AFF8607A600A46FA723B81FB68D3F850
:1009200020123B89FA7A084611467A6802F048FF9D
:100930004FF00003184607F11007BD4680BD00BF09
:1009400080B584B000AFF8607A600A46FA723B81E5
:10095000FB68D3F820123B89FA7A084611467A6878
:1009600002F0E0FD4FF00003184607F11007BD4606
:1009700080BD00BF80B582B000AF78600B46FB70D1
:100980007B68D3F82022FB781046194602F0FCFE63
:100990000346184607F10807BD4680BD80B483B002
:1009A00000AF786040F6C433C2F20003184607F186
:1009B0000C07BD4680BC704780B483B000AF786040
:1009C00007F10C07BD4680BC704700BF80B500AF83
:1009D00000F02AF880BD00BF80B483B000AF78601B
:1009E0000B46FB70FB78012B0CD14FF00003C4F2D7
:1009F00001034FF00002C4F20102526842F001020A
:100A00005A600BE04FF00003C4F201034FF0000204
:100A1000C4F20102526822F001025A6007F10C0789
:100A2000BD4680BC704700BF80B592B000AF4FF4A8
:100A30006053C4F202034FF46052C4F20202526ADD
:100A400042F080525A624FF4E043C4F200034FF484
:100A5000E042C4F20002126822F4C05242F4006282
:100A60001A604FF001033B604FF001037B604FF0D1
:100A700002037B624FF48033BB624FF48013FB624E
:100A80004FF440033B633B46184603F04DFE4FF0E6
:100A900001037B634FF00303BB634FF00003FB6371
:100AA0004FF000033B644FF000037B6407F1340315
:100AB00018464FF0010105F0CDFA4FF46053C4F22F
:100AC00002034FF46052C4F20202126A42F00102C1
:100AD0001A6207F14807BD4680BD00BF80B483B0ED
:100AE00000AF03463960FB713B684FF012021A8079
:100AF00040F23003C2F20003184607F10C07BD466E
:100B000080BC704780B483B000AF03463960FB718E
:100B10003B684FF004021A8040F24403C2F2000323
:100B2000184607F10C07BD4680BC704780B582B0FF
:100B300000AF03463960FB71FB79002B0BD146F601
:100B40008850C0F6000041F66431C2F200013A68F4
:100B500001F0C2F90AE046F68850C0F6000041F6FE
:100B60006431C2F200013A6801F0B6F941F664332B
:100B7000C2F20003184607F10807BD4680BD00BF5A
:100B800080B582B000AF03463960FB7146F6A050D5
:100B9000C0F6000041F66431C2F200013A6801F08B
:100BA0009BF941F66433C2F20003184607F10807C7
:100BB000BD4680BD80B582B000AF03463960FB7191
:100BC000FB79002B0BD146F6B450C0F6000041F67D
:100BD0006431C2F200013A6801F07EF90AE046F69B
:100BE000B450C0F6000041F66431C2F200013A6828
:100BF00001F072F941F66433C2F20003184607F1BE
:100C00000807BD4680BD00BF80B582B000AF034677
:100C10003960FB71FB79002B0BD146F6C450C0F64E
:100C2000000041F66431C2F200013A6801F054F963
:100C30000AE046F6C450C0F6000041F66431C2F244
:100C400000013A6801F048F941F66433C2F200034A
:100C5000184607F10807BD4680BD00BF80B582B0C9
:100C600000AF03463960FB71FB79002B0BD146F6D0
:100C7000D050C0F6000041F66431C2F200013A687B
:100C800001F02AF90AE046F6D050C0F6000041F61D
:100C90006431C2F200013A6801F01EF941F6643392
:100CA000C2F20003184607F10807BD4680BD00BF29
:100CB00080B500AF41F66450C2F2000040F214016A
:100CC000C2F200014FF0000200F034FA41F6645025
:100CD000C2F2000040F25401C2F2000100F05AFAE0
:100CE00041F66450C2F2000040F20401C2F2000179
:100CF00000F0D4F941F66450C2F2000000F068FA46
:100D000080BD00BF80B584B000AF78600B46FB703B
:100D10004FF00003FB737B681B7C002B12D17868BB
:100D20004FF081014FF002024FF40073FFF74EFDC8
:100D300078684FF001014FF002024FF40073FFF7A3
:100D400045FD11E078684FF081014FF002024FF04D
:100D50004003FFF73BFD78684FF001014FF00202BE
:100D60004FF04003FFF732FD78684FF082014FF0FB
:100D700003024FF00803FFF729FD4FF40770FFF758
:100D80000DFE02467B68C3F818227B68D3F8183240
:100D9000002B03D14FF00103FB732DE07B68D3F8E8
:100DA0001832BB607B68D3F81C321B689847BB685D
:100DB0004FF00002C3F81422BB684FF00002C3F8E2
:100DC00018227B681B7C002B0BD1BB68D3F8043244
:100DD00078684FF001011A464FF40073FFF7B0FD39
:100DE0000AE0BB68D3F8043278684FF001011A4674
:100DF0004FF04003FFF7A4FDFB7B184607F11007F7
:100E0000BD4680BD80B584B000AF78600B46FB70F6
:100E10004FF00003FB7378684FF08101FFF7ECFCA3
:100E200078684FF00101FFF7E7FC78684FF0820126
:100E3000FFF7E2FC7B68D3F81832002B0FD07B68F9
:100E4000D3F81C325B6898477B68D3F81832184691
:100E5000FFF7B2FD7B684FF00002C3F81822FB7B5E
:100E6000184607F11007BD4680BD00BF80B584B0AD
:100E700000AF786039607B68D3F81832FB603B685C
:100E80001B7803F06003202B3DD13B68DB88002BEF
:100E90002CD03B681B78DBB25BB2002B12DA7B688C
:100EA000D3F81C329B683A685078F9683A68D2885F
:100EB0009847FA683B68DB88786811461A4601F063
:100EC0007FF821E03B685A78FB6883F800223B6892
:100ED000DB88DAB2FB6883F80122FA683B68DB88BA
:100EE000786811461A4601F0A1F80DE07B68D3F846
:100EF0001C329B683A68527810464FF000014FF060
:100F00000002984700E000BF4FF00003184607F1C9
:100F10001007BD4680BD00BF80B485B000AF7860CB
:100F20000B46FB707B68D3F81832FB607B68D3F804
:100F30001832002B07D0FB684FF00002C3F81422D0
:100F40004FF0000301E04FF00203184607F11407C9
:100F5000BD4680BC704700BF80B584B000AF7860EC
:100F60000B46FB707B68D3F81832FB60FB7878681F
:100F70001946FFF7FFFC0246FB68C3F80C227B68AA
:100F8000D3F81832002B0FD07B68D3F81C32DB6803
:100F9000FA68D2F80412FA6802F50372084611469C
:100FA00098474FF0000301E04FF00203184607F1A5
:100FB0001007BD4680BD00BF80B584B000AF78602B
:100FC0007B68D3F81832FB607B68D3F81C32002BA7
:100FD00015D0FB6893F80032FF2B10D07B68D3F854
:100FE0001C329B68FA6892F80002F968FA6892F875
:100FF00001229847FB684FF0FF0283F800224FF070
:101000000003184607F11007BD4680BD80B483B0C9
:1010100000AF78607B684FF043021A8040F2D00343
:10102000C2F20003184607F10C07BD4680BC7047AA
:1010300080B483B000AF78607B684FF043021A80C1
:1010400040F28C03C2F20003184607F10C07BD46BC
:1010500080BC704780B483B000AF78607B684FF08D
:1010600043021A8040F21413C2F20003184607F13B
:101070000C07BD4680BC704780B483B000AF786079
:101080007B684FF00A021A8040F24803C2F2000364
:10109000184607F10C07BD4680BC704780B485B088
:1010A00000AF786039604FF00203FB733B68002BA0
:1010B00006D07B683A68C3F81C224FF00003FB732C
:1010C000FB7B184607F11407BD4680BC704700BF84
:1010D00080B487B000AFF860B9601346FB80FB684E
:1010E000D3F818327B617B69BA68C3F80822FA88A2
:1010F0007B69C3F810224FF00003184607F11C0764
:10110000BD4680BC704700BF80B485B000AF78603A
:1011100039607B68D3F81832FB60FB683A68C3F823
:1011200004224FF00003184607F11407BD4680BCA7
:10113000704700BF80B584B000AFF860B960134657
:10114000FB71FB68002B02D14FF002031DE0FB682E
:10115000D3F81432002B04D0FB684FF00002C3F820
:101160001422BB68002B03D0FB68BA68C3F81022B6
:10117000FB684FF0010283F8FC21FB68FA791A70D2
:10118000F868FFF77BFA4FF00003184607F11007E5
:10119000BD4680BD80B485B000AF786039604FF047
:1011A0000003FB733B68002B07D07B683A68C3F8E9
:1011B00014224FF00003FB7302E04FF00203FB73B5
:1011C000FB7B184607F11407BD4680BC704700BF83
:1011D00080B582B000AF78607868FFF7E5FA4FF02D
:1011E0000003184607F10807BD4680BD80B483B0F0
:1011F00000AF78604FF00003184607F10C07BD46BA
:1012000080BC704780B584B000AF78600B46FB703F
:101210004FF00203FB737B68D3F81432002B12D01B
:101220007B68D3F814321B68FA78786811469847BF
:101230000346002B14BF00230123DBB2002B02D096
:101240004FF00003FB73FB7B184607F11007BD4608
:1012500080BD00BF80B582B000AF78600B46FB70E8
:101260007B68D3F814325B68FA787868114698473F
:101270004FF00003184607F10807BD4680BD00BFC8
:1012800080B582B000AF786039607B6803F5027387
:101290001846396800F0CAFD7B684FF00102C3F8B8
:1012A000F4217B68B3F80E321A467B68C3F8F82144
:1012B0007B6893F8083203F01F03012B0BD0022B3D
:1012C00011D0002B17D17B6803F50273786819469B
:1012D00000F0A2F91AE07B6803F5027378681946FA
:1012E00000F0ECF912E07B6803F5027378681946A8
:1012F00000F01AFA0AE07B6893F8083223F07F03C3
:10130000DBB278681946FFF78DFA00BF4FF0000393
:10131000184607F10807BD4680BD00BF80B586B0FE
:1013200000AFF8600B467A60FB72FB7A002B3DD170
:10133000FB6803F582737B61FB68D3F8F431032B00
:1013400047D17B699A687B69DB689A4219D97B69C6
:101350009A687B69DB68D21A7B699A607B699A68B4
:101360007B69DB689A4203D27B699B689BB202E08F
:101370007B69DB689BB2F86879681A4600F078FEF2
:1013800027E0FB68D3F814321B69002B0AD0FB68F6
:1013900093F8FC31032B05D1FB68D3F814321B6999
:1013A000F8689847F86800F079FE12E0FB68D3F817
:1013B00014329B69002B0CD0FB6893F8FC31032B93
:1013C00007D1FB68D3F814329B69FA7AF8681146A2
:1013D00098474FF00003184607F11807BD4680BD37
:1013E00080B586B000AFF8600B467A60FB72FB7A7E
:1013F000002B65D1FB6803F114037B61FB68D3F814
:10140000F431022B4ED17B699A687B69DB689A4282
:101410000FD97B699A687B69DB68D21A7B699A600D
:101420007B699B689BB2F86879681A4600F0E8FD12
:1014300038E07B695B687A69D268B3FBF2F102FB42
:1014400001F29B1A002B19D17B695A687B69DB6812
:101450009A4213D37B695A68FB68D3F8F8319A42F1
:101460000CD2F8684FF000014FF0000200F0C8FD08
:10147000FB684FF00002C3F8F82113E0FB68D3F8D3
:101480001432DB68002B0AD0FB6893F8FC31032B85
:1014900005D1FB68D3F81432DB68F8689847F86820
:1014A00000F016FEFB6893F80032012B1BD1F868A0
:1014B000FFF79CFEFB684FF0000283F8002212E069
:1014C000FB68D3F814325B69002B0CD0FB6893F8EF
:1014D000FC31032B07D1FB68D3F814325B69FA7A2D
:1014E000F868114698474FF00003184607F11807AF
:1014F000BD4680BD80B582B000AF786078684FF09F
:1015000000014FF000024FF04003FFF75FF97B68E6
:101510004FF04002C3F8102178684FF080014FF07F
:1015200000024FF04003FFF751F97B684FF0400293
:101530001A627B684FF0010283F8FC217B68D3F8C4
:101540001832002B09D07B68D3F814325B687A68B4
:101550005268D2B27868114698474FF00003184697
:1015600007F10807BD4680BD80B483B000AF786046
:101570000B46FB707B68FA781A744FF0000318462C
:1015800007F10C07BD4680BC704700BF80B483B034
:1015900000AF78607B6893F8FC217B6883F8FD21BD
:1015A0007B684FF0040283F8FC214FF000031846DB
:1015B00007F10C07BD4680BC704700BF80B483B004
:1015C00000AF78607B6893F8FD217B6883F8FC218D
:1015D0004FF00003184607F10C07BD4680BC70476A
:1015E00080B582B000AF78607B6893F8FC31032B44
:1015F0000BD17B68D3F81432DB69002B05D07B68F4
:10160000D3F81432DB69786898474FF00003184626
:1016100007F10807BD4680BD80B584B000AF786093
:1016200039604FF00003FB733B685B78092B3AD8B5
:1016300001A252F823F000BF891600089D16000889
:10164000A716000893160008A71600086B160008D6
:1016500061160008A71600087F1600087516000816
:101660007868396800F03AF922E07868396800F063
:101670003BFA1DE07868396800F076FA18E078687F
:10168000396800F025FB13E07868396800F058FBF2
:101690000EE07868396800F081FB09E07868396805
:1016A00000F098FB04E07868396800F001FC00BFA6
:1016B000FB7B184607F11007BD4680BD80B584B09E
:1016C00000AF786039604FF00003FB737B6893F8DC
:1016D000FC31032B1BD13B689B88DBB2012B11D85B
:1016E0007B68D3F814329B687868396898473B6800
:1016F000DB88002B10D1FB7B002B0DD1786800F02C
:10170000CDFC09E07868396800F0D2FB04E0786825
:10171000396800F0CDFB00E000BF4FF00003184631
:1017200007F11007BD4680BD80B584B000AF78607A
:1017300039604FF00003FB733B689B88BB733B68C9
:101740005B78012B39D0032B02D0002B6BD0BEE08D
:101750007B6893F8FC31022B02D0032B0CD025E0E0
:10176000BB7B002B27D0BB7B802B24D0BB7B786836
:101770001946FFF757F81EE03B685B88002B0AD13B
:10178000BB7B002B07D0BB7B802B04D0BB7B786856
:101790001946FFF747F87B68D3F814329B687868DE
:1017A00039689847786800F079FC05E0786839680E
:1017B00000F07EFB00E000BF8AE07B6893F8FC311C
:1017C000022B02D0032B0CD024E0BB7B002B26D0B5
:1017D000BB7B802B23D0BB7B78681946FFF722F8B0
:1017E0001DE03B685B88002B1BD1BB7B03F07F03B4
:1017F000002B0BD0BB7B78681946FFF729F87B6874
:10180000D3F814329B68786839689847786800F094
:1018100045FC06E07868396800F04AFB02E000BF4A
:1018200000E000BF54E07B6893F8FC31022B02D04B
:10183000032B0BD044E0BB7B03F07F03002B44D091
:10184000BB7B78681946FEF7EDFF3EE0BB7B5BB2E1
:10185000002B0BDABB7B03F07F0303F101034FEA9C
:1018600003137A68D31803F104030AE0BB7B03F087
:101870007F0303F110034FEA03137A68D31803F1CF
:101880000403BB60BB7B78681946FEF7F7FF03468D
:10189000002B0CBF00230123DBB2002B04D0BB685C
:1018A0004FF001021A6003E0BB684FF000021A60BB
:1018B000BB68786819464FF0020200F081FB05E032
:1018C0007868396800F0F4FA00E000BF00E000BF7B
:1018D000FB7B184607F11007BD4680BD80B584B07C
:1018E00000AF786039603B685B884FEA232303F1DF
:1018F000FF33062B00F2D88001A252F823F000BF7C
:101900001D190008371900087F190008A91A0008D6
:10191000A91A0008511A0008771A00087B68D3F842
:1019200010321B687A68117C07F10A0208461146DA
:101930009847F860BDE07B681B7C002B0FD17B686B
:10194000D3F814329B6A07F10A0210469847F860F0
:10195000FB6803F101034FF002021A70A9E07B68F3
:10196000D3F81432DB6A07F10A0210469847F86090
:10197000FB6803F101034FF002021A7099E03B6823
:101980005B88DBB2052B5DD801A252F823F000BFC3
:10199000A9190008C3190008DD190008F719000883
:1019A000111A00082B1A00087B68D3F810325B6804
:1019B0007A68117C07F10A02084611469847F860D8
:1019C00045E07B68D3F810329B687A68117C07F198
:1019D0000A02084611469847F86038E07B68D3F859
:1019E0001032DB687A68117C07F10A02084611465A
:1019F0009847F8602BE07B68D3F810321B697A684F
:101A0000117C07F10A02084611469847F8601EE06B
:101A10007B68D3F810325B697A68117C07F10A029F
:101A2000084611469847F86011E07B68D3F81032F9
:101A30009B697A68117C07F10A02084611469847AB
:101A4000F86004E07868396800F032FA48E030E085
:101A50007B681B7C002B09D17B68D3F814325B6B4D
:101A600007F10A0210469847F86022E07868396862
:101A700000F01EFA34E07B681B7C002B0FD17B68E2
:101A8000D3F814321B6B07F10A0210469847F8602E
:101A9000FB6803F101034FF007021A7009E0786850
:101AA000396800F005FA1BE07868396800F000FA40
:101AB00016E07B89002B13D03B68DB88002B0FD00E
:101AC0003B68DA887B899A4202D83B68DB8800E071
:101AD0007B897B817B897868F9681A4600F070FA07
:101AE00007F11007BD4680BD80B584B000AF7860B7
:101AF00039603B689B88002B2ED13B68DB88002B2C
:101B00002AD13B685B88DBB203F07F03FB737B6801
:101B100093F8FC31032B04D17868396800F0C8F9D8
:101B20001EE07B68FA7B83F8FE21FB7B7868194610
:101B3000FEF7D6FE786800F0B1FAFB7B002B05D0EB
:101B40007B684FF0020283F8FC2109E07B684FF0CC
:101B5000010283F8FC2103E07868396800F0A8F9F5
:101B600007F11007BD4680BD80B582B000AF786038
:101B700039603B685B88DAB241F68873C2F20003D1
:101B80001A7041F68873C2F200031B78012B04D946
:101B90007868396800F08CF996E07B6893F8FC313E
:101BA000022B02D0032B32D089E041F68873C2F2B7
:101BB00000031B78002B26D041F68873C2F2000385
:101BC0001B781A467B685A607B684FF0030283F8E3
:101BD000FC2141F68873C2F200031B78786819462D
:101BE000FFF710FB0346022B14BF00230123DBB2D7
:101BF000002B04D07868396800F05AF964E07868FE
:101C000000F04CFA60E0786800F048FA5CE041F6D9
:101C10008873C2F200031B78002B19D17B684FF048
:101C2000020283F8FC2141F68873C2F200031B789C
:101C30001A467B685A6041F68873C2F200031B782B
:101C400078681946FFF706FB786800F027FA3BE052
:101C500041F68873C2F200031B781A467B685B6802
:101C60009A4228D07B685B68DBB278681946FFF738
:101C7000F1FA41F68873C2F200031B781A467B68BA
:101C80005A6041F68873C2F200031B7878681946DF
:101C9000FFF7B8FA0346022B14BF00230123DBB27F
:101CA000002B04D07868396800F002F90CE07868FD
:101CB00000F0F4F908E0786800F0F0F904E07868E2
:101CC000396800F0F5F800BF07F10807BD4680BD90
:101CD00080B582B000AF786039603B68DB88012B4B
:101CE00004D07868396800F0E3F824E07B6893F862
:101CF000FC31022B02D0032B0ED017E07B684FF093
:101D000000029A607B6803F10803786819464FF077
:101D1000010200F055F90EE07B6803F104037868D6
:101D200019464FF0010200F04BF904E07868396879
:101D300000F0BEF800BF07F10807BD4680BD00BF38
:101D400080B582B000AF786039607B6893F8FC3171
:101D5000A3F10203012B18D87B684FF00102DA606F
:101D60007B68D3F80432002B05D07B68DB6843F036
:101D700002027B68DA607B6803F10C03786819461D
:101D80004FF0020200F01CF904E07868396800F0B6
:101D90008FF800BF07F10807BD4680BD80B582B04F
:101DA00000AF786039603B685B88012B0ED17B689F
:101DB0004FF00102C3F804227B68D3F814329B6809
:101DC000786839689847786800F068F907F108077B
:101DD000BD4680BD80B582B000AF786039607B6859
:101DE00093F8FC31A3F10203012B13D83B685B8805
:101DF000012B15D17B684FF00002C3F804227B68E9
:101E0000D3F814329B68786839689847786800F08E
:101E100045F905E07868396800F04AF800BF00E04D
:101E200000BF07F10807BD4680BD00BF80B483B086
:101E300000AF786039603B681A787B681A703B683D
:101E40005A787B685A703B6803F102031B781A4684
:101E50003B6803F103031B784FEA03239BB2D318BB
:101E60009AB27B685A803B6803F104031B781A46D8
:101E70003B6803F105031B784FEA03239BB2D31899
:101E80009AB27B689A803B6803F106031B781A4676
:101E90003B6803F107031B784FEA03239BB2D31877
:101EA0009AB27B68DA8007F10C07BD4680BC7047A8
:101EB00080B582B000AF7860396078684FF08001FB
:101EC000FEF7B0FC78684FF00001FEF7ABFC07F1BD
:101ED0000807BD4680BD00BF80B586B000AFF86082
:101EE000B9607A604FF00003FB75FB68002B42D0AD
:101EF000F86800F045F8034603F101039BB24FEA8E
:101F000043039AB27B681A80FB7DBA68D3187A685B
:101F10001288D2B21A70FB7D03F10103FB75FB7DC1
:101F2000BA68D3184FF003021A70FB7D03F1010366
:101F3000FB7517E0FB7DBA68D318FA6812781A703F
:101F4000FB7D03F10103FB75FB6803F10103FB60FB
:101F5000FB7DBA68D3184FF000021A70FB7D03F1C5
:101F60000103FB75FB681B78002B0CBF00230123CA
:101F7000DBB2002BDED107F11807BD4680BD00BFE4
:101F800080B485B000AF78604FF00003FB7307E0CA
:101F9000FB7B03F10103FB737B6803F101037B60AF
:101FA0007B681B78002B0CBF00230123DBB2002BC6
:101FB000EED1FB7B184607F11407BD4680BC704785
:101FC00080B584B000AFF860B9601346FB80FB6851
:101FD0004FF00202C3F8F421FA88FB689A61FA888C
:101FE000FB68DA61FB88F8684FF00001BA68FEF719
:101FF0008DFC4FF00003184607F11007BD4680BD69
:1020000080B584B000AFF860B9601346FB80FB88F0
:10201000F8684FF00001BA68FEF778FC4FF0000353
:10202000184607F11007BD4680BD00BF80B584B0DB
:1020300000AFF860B9601346FB80FB684FF0030205
:10204000C3F8F421FA88FB68C3F80821FA88FB6812
:10205000C3F80C21FB88F8684FF00001BA68FEF75E
:102060006FFC4FF00003184607F11007BD4680BD16
:1020700080B584B000AFF860B9601346FB80FB8880
:10208000F8684FF00001BA68FEF75AFC4FF0000301
:10209000184607F11007BD4680BD00BF80B582B06D
:1020A00000AF78607B684FF00402C3F8F4217868D1
:1020B0004FF000014FF000024FF00003FEF726FC46
:1020C0004FF00003184607F10807BD4680BD00BF6A
:1020D00080B582B000AF78607B684FF00502C3F82E
:1020E000F42178684FF000014FF000024FF0000338
:1020F000FEF726FC4FF00003184607F10807BD461F
:1021000080BD00BF80B400AF4FF46D43CEF200033A
:10211000DB6803F4E0634FEA13231846BD4680BC36
:10212000704700BF80B483B000AF0346FB714FF42B
:102130006143CEF2000397F907204FEA5212F97972
:1021400001F01F014FF0010000FA01F143F82210E5
:1021500007F10C07BD4680BC704700BF80B483B058
:1021600000AF03463960FB7197F90730002B10DA96
:102170004FF46D43CEF20003FA7902F00F02A2F1A0
:1021800004013A68D2B24FEA0212D2B25B181A7650
:102190000DE04FF46143CEF2000397F907103A685F
:1021A000D2B24FEA0212D2B25B1883F8002307F1D1
:1021B0000C07BD4680BC704780B489B000AFF860A2
:1021C000B9607A60FB6803F00703FB61FB69C3F148
:1021D0000703042B28BF0423BB61FB6903F104033D
:1021E000062B03D9FB69A3F1030301E04FF00003C1
:1021F0007B61BB694FF0010202FA03F303F1FF3385
:102200001A46BB681A407B6902FA03F27B694FF0F9
:10221000010101FA03F303F1FF3319467B680B4018
:102220001343184607F12407BD4680BC704700BF22
:1022300080B582B000AF78607B6803F1FF326FF049
:102240007F439A4202D94FF001031DE04EF2100382
:10225000CEF200037A6802F1FF325A604FF0FF308D
:102260004FF00F01FFF77AFF4EF21003CEF200039A
:102270004FF000029A604EF21003CEF200034FF0CE
:1022800007021A604FF00003184607F10807BD4621
:1022900080BD00BF80B586B000AF0346B9607A60EC
:1022A000FB734FF000037B61FFF72CFF78617869C7
:1022B000B9687A68FFF780FF034697F90F20104648
:1022C0001946FFF74BFF07F11807BD4680BD00BF59
:1022D00080B582B000AF0346FB7197F9073018460E
:1022E000FFF720FF07F10807BD4680BD80B582B02B
:1022F00000AF78607868FFF79BFF0346184607F148
:102300000807BD4680BD00BF80B582B000AF7860D1
:1023100004F02EFC024644F6D353C1F26203A3FB41
:1023200002134FEA93131846FFF7E0FF4FF0FF3018
:1023300079684FF00002FFF7ADFF4FF00003184639
:1023400007F10807BD4680BD80B400AF41F68C732D
:10235000C2F200031B6803F1010241F68C73C2F262
:1023600000031A60BD4680BC704700BF80B400AF58
:1023700041F68C73C2F200031B681846BD4680BC50
:10238000704700BF80B584B000AF78604FF00003A5
:10239000FB604FF00003BB607B68002B02D14FF065
:1023A000010302E17B684FF0020283F8E9217868BB
:1023B000FEF762F84FF00003FB6058E07968FA68B6
:1023C00013464FEAC3039B1A4FEA8303CB1803F16A
:1023D00028034FF001025A70FB68D9B27868FA6896
:1023E00013464FEAC3039B1A4FEA8303C31803F152
:1023F00028030A461A707968FA6813464FEAC3033D
:102400009B1A4FEA8303CB1803F128034FF0000215
:10241000DA707968FA6813464FEAC3039B1A4FEAE9
:102420008303CB1803F134034FF000021A6079687C
:10243000FA6813464FEAC3039B1A4FEA8303CB188B
:1024400003F138034FF000021A607968FA68134606
:102450004FEAC3039B1A4FEA8303CB1803F13C03F3
:102460004FF000021A60FB6803F10103FB607B6818
:102470005A68FB689A4294BF00230123DBB2002B09
:102480009CD14FF00003FB6058E07968FA6813466E
:102490004FEAC3039B1A4FEA8303CB1803F58473F7
:1024A0004FF000025A70FB68D9B27868FA68134698
:1024B0004FEAC3039B1A4FEA8303C31803F58473DF
:1024C0000A461A707968FA6813464FEAC3039B1AE2
:1024D0004FEA8303CB1803F584734FF00002DA70E0
:1024E0007968FA6813464FEAC3039B1A4FEA8303DD
:1024F000CB1803F58A734FF000021A607968FA6806
:1025000013464FEAC3039B1A4FEA8303CB1803F524
:102510008C734FF000021A607968FA6813464FEA2C
:10252000C3039B1A4FEA8303CB1803F58E734FF056
:1025300000021A60FB6803F10103FB607B685A68C4
:10254000FB689A4294BF00230123DBB2002B9CD18D
:102550007B681B684FF00102A3F840207B681B6872
:102560004FF00002A3F840207B681B684FF0000288
:10257000A3F844207B681B684FF00002A3F85020AA
:102580004FF43D43BB607B681B68BA6892B2A3F806
:1025900040207B684FF0000283F824207B684FF0D6
:1025A000000283F8E9214FF00003184607F11007F5
:1025B000BD4680BD80B582B000AF786078684FF0CE
:1025C0000101FEF709FA4FF00003184607F108076A
:1025D000BD4680BD80B584B000AF78604FF0000389
:1025E000FB607B681B68B3F844309BB29BB24FEA38
:1025F000D333DBB2002B02D0786801F011FC7B688A
:102600001B68B3F844309BB203F48063002B0CBF0B
:1026100000230123DBB2002B13D07B681B687A6890
:102620001268B2F8442092B222F4806292B2A3F807
:1026300044207868FDF7A8FF78684FF0000100F0AB
:10264000E5F87B681B68B3F844309BB203F4804321
:10265000002B0CBF00230123DBB2002B0BD07B68C7
:102660001B687A681268B2F8442092B222F4804261
:1026700092B2A3F844207B681B68B3F844309BB245
:1026800003F40053002B0CBF00230123DBB2002B0B
:102690000BD07B681B687A681268B2F8442092B24B
:1026A00022F4005292B2A3F844207B681B68B3F86E
:1026B00044309BB203F48053002B0CBF0023012352
:1026C000DBB2002B23D07B681B687A681268B2F8F3
:1026D000402092B222F0040292B2A3F840204FF4BC
:1026E0003D43FB607B681B68FA6892B2A3F8402008
:1026F0007868FDF78DFF7B681B687A681268B2F80E
:10270000442092B222F4805292B2A3F844207B6813
:102710001B68B3F844309BB203F40063002B0CBF7A
:1027200000230123DBB2002B34D07B681B687A685E
:102730001268B2F8442092B222F4006292B2A3F876
:1027400044207B681B687A681268B2F8402092B215
:1027500042F0080292B2A3F840207B681B687A68B6
:102760001268B2F8402092B242F0040292B2A3F88A
:1027700040207B681B68B3F844309BB203F480535D
:10278000002B14BF00230123DBB2002B02D078689A
:10279000FDF720FF7B681B68B3F844309BB203F45D
:1027A0000073002B0CBF00230123DBB2002B0ED0E3
:1027B0007B681B687A681268B2F8442092B222F4EF
:1027C000007292B2A3F844207868FDF7CFFE7B68D0
:1027D0001B68B3F844309BB203F48073002B0CBF2A
:1027E00000230123DBB2002B0BD07B681B687A68C7
:1027F0001268B2F8442092B222F4807292B2A3F826
:10280000442007F11007BD4680BD00BF80B483B0EF
:1028100000AF78600B46FB707B6893F8E831012BC2
:1028200002D14FF0020319E07B684FF0010283F8F8
:10283000E821FB78002B06D17B681B684FF08002F3
:10284000A3F84C2003E07B68FA7883F824207B68A7
:102850004FF0000283F8E8214FF00003184607F11B
:102860000C07BD4680BC704790B486B000AF78605E
:10287000F9703A80BB704FF000037B74FB785BB259
:10288000002B0EDAFB7803F07F0213464FEAC303F6
:102890009B1A4FEA830303F128037A68D3187B61FC
:1028A0000DE0FB7803F07F0213464FEAC3039B1A47
:1028B0004FEA830303F584737A68D3187B61FB784E
:1028C00003F07F03DAB27B691A70FB784FEAD31307
:1028D000DBB21A467B695A703A887B69DA607B6999
:1028E000BA78DA707B6893F8E831012B02D14FF0A7
:1028F0000203A3E37B684FF0010283F8E8217B69C0
:10290000DB78032B77D801A252F823F01D290008A9
:10291000BF29000855290008872900087B681B6823
:102920001A467B691B784FEA8303D2187B681B68C1
:1029300019467B691B784FEA8303CB181B889BB22F
:1029400023F4EC4323F070039BB243F400739BB277
:10295000138051E07B681B681A467B691B784FEA3D
:102960008303D2187B681B6819467B691B784FEA82
:102970008303CB181B889BB223F4EC4323F0700332
:102980009BB2138038E07B681B681A467B691B7812
:102990004FEA8303D2187B681B6819467B691B7852
:1029A0004FEA8303CB181B889BB223F4EC4323F03C
:1029B00070039BB243F4C0639BB213801CE07B683E
:1029C0001B681A467B691B784FEA8303D2187B6821
:1029D0001B6819467B691B784FEA8303CB181B8859
:1029E0009BB223F4EC4323F070039BB243F4806367
:1029F0009BB2138000E000BF7B681B681A467B69AE
:102A00001B784FEA8303D2187B681B6819467B69E1
:102A10001B784FEA8303CB181B8899B240F60F73DB
:102A20000B4099B27B691B780B4399B248F2800343
:102A3000CFF6FF730B439BB213807B699B7A002B0D
:102A400040F029817B695B78002B69D07B681B682B
:102A5000B3F850309BB21A467B691B784FEAC30328
:102A6000D3184FEA43031A467B681B68D31803F553
:102A700080637A69928822F001021A607B681B6881
:102A80001A467B691B784FEA8303D3181B889BB2D5
:102A900003F04003002B0CBF00230123DBB2002B0B
:102AA0001CD07B681B681A467B691B784FEA83033E
:102AB000D2187B681B6819467B691B784FEA830331
:102AC000CB181B8899B240F60F730B4099B248F2AD
:102AD000C003CFF6FF730B439BB213807B681B6868
:102AE0001A467B691B784FEA8303D3181B889BB275
:102AF00023F4E04323F040039CB284F020039CB213
:102B00007B681B681A467B691B784FEA8303D218DF
:102B100048F28003CFF6FF7323439BB2138087E212
:102B20007B681B68B3F850309BB21A467B691B78F0
:102B30004FEAC303D31803F104034FEA43031A46D1
:102B40007B681B68D31803F580637A69928822F04A
:102B500001021A607B681B68B3F850309BB21A46BA
:102B60007B691B784FEAC303D31803F106034FEACE
:102B700043031A467B681B68D31803F58063FB6028
:102B80007B69DB683E2B1BD97B69DB684FEA5313FB
:102B90007B827B69DB6803F01F03002B03D17B8AF8
:102BA00003F1FF337B827B8A4FEA83239BB26FEA78
:102BB00043436FEA53439BB21A46FB681A6015E021
:102BC0007B69DB684FEA53037B827B69DB6803F038
:102BD0000103002B03D07B8A03F101037B827B8AF4
:102BE0004FEA83239BB21A46FB681A607B681B6816
:102BF0001A467B691B784FEA8303D3181B889BB264
:102C000003F48043002B0CBF00230123DBB2002B15
:102C10001CD07B681B681A467B691B784FEA8303CC
:102C2000D2187B681B6819467B691B784FEA8303BF
:102C3000CB181B8899B240F60F730B4099B24CF237
:102C40008003CFF6FF730B439BB213807B681B6836
:102C50001A467B691B784FEA8303D3181B889BB203
:102C600023F4804323F070039CB284F480539CB21D
:102C700084F400539CB27B681B681A467B691B78FE
:102C80004FEA8303D21848F28003CFF6FF73234341
:102C90009BB21380CCE17B681B681A467B691B786A
:102CA0004FEA8303D2187B681B6819467B691B783F
:102CB0004FEA8303CB181B8899B240F60F630B4091
:102CC00099B248F28013CFF6FF730B439BB2138087
:102CD0007B681B68B3F850309BB21A467B691B783F
:102CE0004FEAC303D3184FEA43031A467B681B68B5
:102CF000D31803F580637A69D28822F001021A6042
:102D00007B681B68B3F850309BB21A467B691B780E
:102D10004FEAC303D31803F104034FEA43031A46EF
:102D20007B681B68D31803F580637A69128922F0E7
:102D300001021A607B695B78002B40F0C0807B68E1
:102D40001B681A467B691B784FEA8303D3181B88DC
:102D50009BB203F48043002B0CBF00230123DBB2A2
:102D6000002B1CD07B681B681A467B691B784FEAD6
:102D70008303D2187B681B6819467B691B784FEA6E
:102D80008303CB181B8899B240F60F730B4099B29E
:102D90004CF28003CFF6FF730B439BB213807B682A
:102DA0001B681A467B691B784FEA8303D3181B887C
:102DB0009BB203F04003002B0CBF00230123DBB2C6
:102DC000002B1CD07B681B681A467B691B784FEA76
:102DD0008303D2187B681B6819467B691B784FEA0E
:102DE0008303CB181B8899B240F60F730B4099B23E
:102DF00048F2C003CFF6FF730B439BB213807B688E
:102E00001B681A467B691B784FEA8303D2187B68DC
:102E10001B6819467B691B784FEA8303CB181B8814
:102E200099B240F60F730B4099B248F2C003CFF647
:102E3000FF730B439BB213807B681B681A467B6948
:102E40001B784FEA8303D3181B889BB223F480437B
:102E500023F070039CB284F480539CB284F400533A
:102E60009CB27B681B681A467B691B784FEA830318
:102E7000D21848F28003CFF6FF7323439BB213802E
:102E80007B681B681A467B691B784FEA8303D3185B
:102E90001B889BB223F4E04323F040039CB27B6881
:102EA0001B681A467B691B784FEA8303D21848F2E5
:102EB0008003CFF6FF7323439BB21380B8E07B6897
:102EC0001B681A467B691B784FEA8303D3181B885B
:102ED0009BB203F48043002B0CBF00230123DBB221
:102EE000002B1CD07B681B681A467B691B784FEA55
:102EF0008303D2187B681B6819467B691B784FEAED
:102F00008303CB181B8899B240F60F730B4099B21C
:102F10004CF28003CFF6FF730B439BB213807B68A8
:102F20001B681A467B691B784FEA8303D3181B88FA
:102F30009BB203F04003002B0CBF00230123DBB244
:102F4000002B1CD07B681B681A467B691B784FEAF4
:102F50008303D2187B681B6819467B691B784FEA8C
:102F60008303CB181B8899B240F60F730B4099B2BC
:102F700048F2C003CFF6FF730B439BB213807B680C
:102F80001B681A467B691B784FEA8303D2187B685B
:102F90001B6819467B691B784FEA8303CB181B8893
:102FA00099B240F60F730B4099B24CF28003CFF602
:102FB000FF730B439BB213807B681B681A467B69C7
:102FC0001B784FEA8303D3181B889BB223F4E0439A
:102FD00023F040039CB27B681B681A467B691B7810
:102FE0004FEA8303D21848F28003CFF6FF732343DE
:102FF0009BB213807B681B681A467B691B784FEA7B
:103000008303D3181B889BB223F4804323F07003FF
:103010009CB27B681B681A467B691B784FEA830366
:10302000D21848F28003CFF6FF7323439BB213807C
:103030007B684FF0000283F8E8217B7C184607F19B
:103040001807BD4690BC704790B484B000AF78605C
:103050000B46FB70FB785BB2002B0EDAFB7803F0BB
:103060007F0213464FEAC3039B1A4FEA830303F11F
:1030700028037A68D318FB600DE0FB7803F07F0229
:1030800013464FEAC3039B1A4FEA830303F5847385
:103090007A68D318FB60FB7803F07F03DAB2FB6831
:1030A0001A70FB784FEAD313DBB21A46FB685A70EA
:1030B0007B6893F8E831012B02D14FF002032AE23A
:1030C0007B684FF0010283F8E821FB689B7A002BB4
:1030D00040F0A280FB685B78002B4ED07B681B68B9
:1030E0001A46FB681B784FEA8303D3181B889BB2F0
:1030F00003F04003002B0CBF00230123DBB2002BA5
:103100001CD07B681B681A46FB681B784FEA830358
:10311000D2187B681B681946FB681B784FEA83034B
:10312000CB181B8899B240F60F730B4099B248F246
:10313000C003CFF6FF730B439BB213807B681B6801
:103140001A46FB681B784FEA8303D3181B889BB28F
:1031500023F4E04323F040039CB27B681B681A46CB
:10316000FB681B784FEA8303D21848F28003CFF63E
:10317000FF7323439BB21380C6E17B681B681A462A
:10318000FB681B784FEA8303D3181B889BB203F4B8
:103190008043002B0CBF00230123DBB2002B1CD08B
:1031A0007B681B681A46FB681B784FEA8303D218BA
:1031B0007B681B681946FB681B784FEA8303CB18B2
:1031C0001B8899B240F60F730B4099B24CF2800302
:1031D000CFF6FF730B439BB213807B681B681A46C4
:1031E000FB681B784FEA8303D3181B889BB223F438
:1031F000804323F070039CB27B681B681A46FB680F
:103200001B784FEA8303D21848F28003CFF6FF738E
:1032100023439BB2138077E1FB685B78002B40F07F
:10322000BA807B681B681A46FB681B784FEA8303E9
:10323000D3181B889BB203F48043002B0CBF0023E0
:103240000123DBB2002B1CD07B681B681A46FB688D
:103250001B784FEA8303D2187B681B681946FB680A
:103260001B784FEA8303CB181B8899B240F60F7383
:103270000B4099B24CF28003CFF6FF730B439BB225
:1032800013807B681B681A46FB681B784FEA830330
:10329000D3181B889BB203F04003002B0CBF002304
:1032A0000123DBB2002B1CD07B681B681A46FB682D
:1032B0001B784FEA8303D2187B681B681946FB68AA
:1032C0001B784FEA8303CB181B8899B240F60F7323
:1032D0000B4099B248F2C003CFF6FF730B439BB289
:1032E00013807B681B681A46FB681B784FEA8303D0
:1032F000D2187B681B681946FB681B784FEA83036A
:10330000CB181B8899B240F60F730B4099B248F264
:10331000C003CFF6FF730B439BB213807B681B681F
:103320001A46FB681B784FEA8303D3181B889BB2AD
:1033300023F4804323F070039CB27B681B681A4619
:10334000FB681B784FEA8303D21848F28003CFF65C
:10335000FF7323439BB213807B681B681A46FB688C
:103360001B784FEA8303D3181B889BB223F4E043F6
:1033700023F040039CB27B681B681A46FB681B78ED
:103380004FEA8303D21848F28003CFF6FF7323433A
:103390009BB21380B8E07B681B681A46FB681B78F9
:1033A0004FEA8303D3181B889BB203F48043002B9E
:1033B0000CBF00230123DBB2002B1CD07B681B68F1
:1033C0001A46FB681B784FEA8303D2187B681B6898
:1033D0001946FB681B784FEA8303CB181B8899B208
:1033E00040F60F730B4099B24CF28003CFF6FF7397
:1033F0000B439BB213807B681B681A46FB681B78E3
:103400004FEA8303D3181B889BB203F04003002BC1
:103410000CBF00230123DBB2002B1CD07B681B6890
:103420001A46FB681B784FEA8303D2187B681B6837
:103430001946FB681B784FEA8303CB181B8899B2A7
:1034400040F60F730B4099B248F2C003CFF6FF73FA
:103450000B439BB213807B681B681A46FB681B7882
:103460004FEA8303D2187B681B681946FB681B78F8
:103470004FEA8303CB181B8899B240F60F730B40B9
:1034800099B24CF28003CFF6FF730B439BB21380CB
:103490007B681B681A46FB681B784FEA8303D318C6
:1034A0001B889BB223F4E04323F040039CB27B686B
:1034B0001B681A46FB681B784FEA8303D21848F250
:1034C0008003CFF6FF7323439BB213807B681B6896
:1034D0001A46FB681B784FEA8303D3181B889BB2FC
:1034E00023F4804323F070039CB27B681B681A4668
:1034F000FB681B784FEA8303D21848F28003CFF6AB
:10350000FF7323439BB213807B684FF0000283F864
:10351000E8214FF00003184607F11007BD4690BCA4
:10352000704700BF90B488B000AFF8607A603B602D
:103530000B46FB72FB7A03F07F0213464FEAC3038C
:103540009B1A4FEA830303F58473FA68D318BB61AF
:10355000BB697A681A61BB693A685A61BB694FF006
:1035600000029A61BB694FF000025A70FB7A03F0C7
:103570007F03DAB2BB691A70FB6893F8E831012B5C
:1035800002D14FF00203F9E0FB684FF0010283F82B
:10359000E821BB695A69BB69DB689A4209D9BB69F2
:1035A000DB683B60BB695A693B68D21ABB695A61E8
:1035B00006E0BB695B693B60BB694FF000025A6182
:1035C000BB699B7A002B47D1FB681B68B3F850306E
:1035D0009BB21A46BB691B784FEAC303D31803F1A9
:1035E00006034FEA43031A46FB681B68D31803F52A
:1035F00080637B613B683E2B19D93B684FEA5313CC
:10360000FB833B6803F01F03002B03D1FB8B03F10B
:10361000FF33FB83FB8B4FEA83239BB26FEA434369
:103620006FEA53439BB21A467B691A607BE03B68A2
:103630004FEA5303FB833B6803F00103002B03D0E5
:10364000FB8B03F10103FB83FB8B4FEA83239BB2CC
:103650001A467B691A6066E0BB695B78002B47D12C
:10366000FB681B68B3F850309BB21A46BB691B78E5
:103670004FEAC303D31803F106034FEA43031A4684
:10368000FB681B68D31803F580633B613B683E2BE6
:1036900019D93B684FEA5313BB833B6803F01F0300
:1036A000002B03D1BB8B03F1FF33BB83BB8B4FEAF2
:1036B00083239BB26FEA43436FEA53439BB21A469C
:1036C0003B691A602FE03B684FEA5303BB833B68BA
:1036D00003F00103002B03D0BB8B03F10103BB8379
:1036E000BB8B4FEA83239BB21A463B691A601AE0F0
:1036F000BB695B78012B16D1FB681B68B3F85030AF
:103700009BB21A46BB691B784FEAC303D31803F177
:1037100006034FEA43031A46FB681B68D31803F5F8
:1037200080633A681A60FB681B681A46BB691B789D
:103730004FEA8303D3181B889BB223F4804323F002
:1037400070039CB284F480539CB284F400539CB206
:10375000FB681B681A46BB691B784FEA8303D218C3
:1037600048F28003CFF6FF7323439BB21380FB68BC
:103770004FF0000283F8E8214FF00003184607F1EC
:103780002007BD4690BC704780B483B000AF78601E
:103790000B46FB70FB7803F07F02796813464FEA13
:1037A000C3039B1A4FEA8303CB1803F590731B687E
:1037B0009BB2184607F10C07BD4680BC704700BF9E
:1037C00090B589B000AFF8607A603B600B46FB7241
:1037D0004FF00003FB83FB7A03F07F0213464FEAAE
:1037E000C3039B1A4FEA830303F12803FA68D31833
:1037F000BB61BB697A681A61BB693A685A61BB6987
:103800004FF000029A61BB694FF001025A70FB7AD7
:1038100003F07F03DAB2BB691A70FB6893F8E831F2
:10382000012B02D14FF0020339E1FB684FF0010296
:1038300083F8E821BB695A69BB69DB689A4209D9F8
:10384000BB69DB683B60BB695A693B68D21ABB69DC
:103850005A6106E0BB695B693B60BB694FF00002DF
:103860005A61BB699B7A002B21D1FB681868BB6940
:103870001969BB699A883B689BB200F083FEFB68BC
:103880001B68B3F850309BB21A46BB691B784FEAED
:10389000C303D31803F102034FEA43031A46FB683C
:1038A0001B68D31803F580633A681A60CCE0BB69E3
:1038B0005B78002B47D1FB681B68B3F850309BB294
:1038C0001A46BB691B784FEAC303D31803F10603FA
:1038D0004FEA43031A46FB681B68D31803F580635D
:1038E0007B613B683E2B19D93B684FEA5313BB837E
:1038F0003B6803F01F03002B03D1BB8B03F1FF33A5
:10390000BB83BB8B4FEA83239BB26FEA43436FEACF
:1039100053439BB21A467B691A602FE03B684FEA1B
:103920005303BB833B6803F00103002B03D0BB8B25
:1039300003F10103BB83BB8B4FEA83239BB21A467F
:103940007B691A601AE0BB695B78012B16D1FB68B2
:103950001B68B3F850309BB21A46BB691B784FEA1C
:10396000C303D31803F106034FEA43031A46FB6867
:103970001B68D31803F580633A681A60FB681B68FC
:103980001A46BB691B784FEA8303D3181B889BB286
:1039900003F04003002B0CBF00230123DBB2002BFC
:1039A00003D0BB691B89FB8302E0BB69DB88FB8317
:1039B000FB681868BB6919693B689BB2FA8B00F019
:1039C000E1FDBB695B78002B1DD1FB681B681A46C3
:1039D000BB691B784FEA8303D218FB681B68194642
:1039E000BB691B784FEA8303CB181B8899B240F65A
:1039F0000F730B4099B248F2C003CFF6FF730B432D
:103A00009BB2138020E0BB695B78012B1CD1FB6863
:103A10001B681A46BB691B784FEA8303D218FB6800
:103A20001B681946BB691B784FEA8303CB181B88B8
:103A300099B240F60F730B4099B24CF28003CFF667
:103A4000FF730B439BB21380FB681B681A46BB696C
:103A50001B784FEA8303D3181B889BB223F4E043FF
:103A600023F040039CB284F010039CB284F0200346
:103A70009CB2FB681B681A46BB691B784FEA83033C
:103A8000D21848F28003CFF6FF7323439BB2138012
:103A9000FB684FF0000283F8E8214FF0000318465E
:103AA00007F12407BD4690BD90B484B000AF7860A4
:103AB0000B46FB707B6893F8E831012B02D14FF085
:103AC0000203A8E07B684FF0010283F8E821FB784D
:103AD0005BB2002B0EDAFB7803F07F0213464FEA4D
:103AE000C3039B1A4FEA830303F128037A68D318B0
:103AF000FB600BE0FA7813464FEAC3039B1A4FEAC8
:103B0000830303F584737A68D318FB60FB684FF076
:103B100001029A70FB7803F07F03DAB2FB681A7037
:103B2000FB784FEAD313DBB21A46FB685A70FB6886
:103B30001B78002B21D17B681B681A46FB681B7819
:103B40004FEA8303D3181B889BB24BF6BF741C400B
:103B500084F4805484F010047B681B681A46FB6868
:103B60001B784FEA8303D218A1B248F28003CFF644
:103B7000FF730B439BB2138046E0FB685B78002B1E
:103B800021D07B681B681A46FB681B784FEA8303C9
:103B9000D3181B889BB223F4E04323F040039CB26C
:103BA00084F010039CB27B681B681A46FB681B7884
:103BB0004FEA8303D21848F28003CFF6FF73234302
:103BC0009BB2138020E07B681B681A46FB681B7859
:103BD0004FEA8303D3181B889BB223F4804323F05E
:103BE00070039CB284F480539CB27B681B681A46B5
:103BF000FB681B784FEA8303D21848F28003CFF6A4
:103C0000FF7323439BB213807B684FF0000283F85D
:103C1000E8214FF00003184607F11007BD4690BC9D
:103C2000704700BF90B484B000AF78600B46FB7063
:103C3000FB785BB2002B0EDAFB7803F07F021346B1
:103C40004FEAC3039B1A4FEA830303F128037A6800
:103C5000D318FB600BE0FA7813464FEAC3039B1AB4
:103C60004FEA830303F584737A68D318FB60FB681B
:103C70004FF000029A70FB7803F07F03DAB2FB6822
:103C80001A70FB784FEAD313DBB21A46FB685A70FE
:103C90007B6893F8E831012B02D14FF00203B8E0C2
:103CA0007B684FF0010283F8E821FB685B78002B0A
:103CB00054D07B681B681A46FB681B784FEA830365
:103CC000D3181B889BB203F04003002B0CBF0023CA
:103CD0000123DBB2002B1CD07B681B681A46FB68F3
:103CE0001B784FEA8303D2187B681B681946FB6870
:103CF0001B784FEA8303CB181B8899B240F60F73E9
:103D00000B4099B248F2C003CFF6FF730B439BB24E
:103D100013807B681B681A46FB681B784FEA830395
:103D2000D3181B889BB223F4E04323F040039CB2DA
:103D300084F010039CB284F020039CB27B681B6863
:103D40001A46FB681B784FEA8303D21848F28003B7
:103D5000CFF6FF7323439BB2138053E07B681B684D
:103D60001A46FB681B784FEA8303D3181B889BB263
:103D700003F48043002B0CBF00230123DBB2002B94
:103D80001CD07B681B681A46FB681B784FEA8303CC
:103D9000D2187B681B681946FB681B784FEA8303BF
:103DA000CB181B8899B240F60F730B4099B24CF2B6
:103DB0008003CFF6FF730B439BB213807B681B68B5
:103DC0001A46FB681B784FEA8303D3181B889BB203
:103DD00023F4804323F070039CB284F480539CB29C
:103DE00084F400539CB27B681B681A46FB681B78FE
:103DF0004FEA8303D21848F28003CFF6FF732343C0
:103E00009BB213807B684FF0000283F8E8214FF0EB
:103E10000003184607F11007BD4690BC704700BF6D
:103E200090B589B000AF78604FF00003FB834FF08E
:103E30000003BB8190E3FB899BB2DBB203F00F036D
:103E4000FB76FB7E002B40F05E81FB899BB203F08A
:103E50001003002B14BF00230123DBB2002B5BD027
:103E60007B681A687B681B681B889BB223F4E1435C
:103E700023F070039BB213807B6803F128037B61FE
:103E80007B681B68B3F850309BB21A467B691B787D
:103E90004FEAC303D31803F102034FEA43031A4660
:103EA0007B681B68D31803F580631B689BB24FEADD
:103EB00083534FEA93537A6993617B691A697B69EB
:103EC0009B69D2187B691A6178684FF00001FCF792
:103ED0002DFB7B6893F82430DBB2002B06D07B6986
:103EE0005B69002B02D14FF0010301E04FF00003AA
:103EF000002B00F031837B681B687A6892F82420DD
:103F0000D2B262F07F02D2B2A3F84C207B684FF0AD
:103F1000000283F824201FE37B6803F584737B6130
:103F20007B681B681B889BB2BB81BB899BB203F477
:103F30000063002B0CBF00230123DBB2002B37D022
:103F40007B681B68B3F850309BB21A467B691B78BC
:103F50004FEAC303D31803F106034FEA43031A469B
:103F60007B681B68D31803F580631B689BB24FEA1C
:103F700083534FEA93537A6993617B6818687B682F
:103F800003F5F6717B699A887B699B699BB200F0A7
:103F900043FB7B681A687B681B681B8899B240F6F4
:103FA0008F730B409BB213807868FCF78DFAD3E2D5
:103FB000BB899BB29BB24FEAD333DBB2002B00F03C
:103FC000CB827B681A687B681B681B8899B240F6B5
:103FD0008F730B409BB213807B681B68B3F8503023
:103FE0009BB21A467B691B784FEAC303D31803F1CF
:103FF00006034FEA43031A467B681B68D31803F590
:1040000080631B689BB24FEA83534FEA93537A69EC
:1040100093617B699B69002B11D07B6818687B6971
:1040200019697B699A887B699B699BB200F0F4FAF5
:104030007B691A697B699B69D2187B691A61786808
:104040004FF00001FCF752FA7B681B68B3F8503060
:104050009BB203F106034FEA43031A467B681B68D1
:10406000D31803F580633B617B69DB683E2B1BD96A
:104070007B69DB684FEA5313BB837B69DB6803F022
:104080001F03002B03D1BB8B03F1FF33BB83BB8B1F
:104090004FEA83239BB26FEA43436FEA53439BB2D9
:1040A0001A463B691A6015E07B69DB684FEA5303E7
:1040B000BB837B69DB6803F00103002B03D0BB8B60
:1040C00003F10103BB83BB8B4FEA83239BB21A46E8
:1040D0003B691A607B681B681B889BB223F4804392
:1040E00023F070039CB284F480539CB284F4005398
:1040F0009CB27B681A6848F28003CFF6FF732343B3
:104100009BB2138028E27B681B681A46FB7E4FEA4D
:104110008303D3181B889BB2BB81BB899BB29BB224
:104120004FEAD333DBB2002B00F0F5807B681B68CD
:104130001A46FB7E4FEA8303D2187B681B68194638
:10414000FB7E4FEA8303CB181B8899B240F68F732E
:104150000B409BB21380FA7E13464FEAC3039B1AAF
:104160004FEA830303F584737A68D3187B617B6914
:104170009B7A002B29D17B681B68B3F850309BB227
:104180001A467B691B784FEAC303D31803F1060371
:104190004FEA43031A467B681B68D31803F5806314
:1041A0001B689BB24FEA83534FEA9353FB83FB8B0D
:1041B000002B00F08B807B6818687B6919697B692C
:1041C0009A88FB8B00F028FA80E07B681B681A460F
:1041D0007B691B784FEA8303D3181B889BB203F4D7
:1041E0008043002B0CBF00230123DBB2002B28D01F
:1041F0007B681B68B3F850309BB21A467B691B780A
:104200004FEAC303D31803F102034FEA43031A46EC
:104210007B681B68D31803F580631B689BB24FEA69
:1042200083534FEA9353FB83FB8B002B31D07B6886
:1042300018687B6919697B69DA88FB8B00F0ECF9F7
:1042400027E07B681B68B3F850309BB21A467B6945
:104250001B784FEAC303D31803F106034FEA430365
:104260001A467B681B68D31803F580631B689BB2F2
:104270004FEA83534FEA9353FB83FB8B002B08D009
:104280007B6818687B6919697B691A89FB8B00F068
:10429000C3F97B681B681A467B691B784FEA830366
:1042A000D2187B681B6819467B691B784FEA830329
:1042B000CB181B8899B240F60F730B4099B248F2A5
:1042C000C003CFF6FF730B439BB213807B699A69DF
:1042D000FB8BD2187B699A617B691A69FB8BD218B8
:1042E0007B691A617B695B69002B04D0FA8B7B695F
:1042F000DB689A4206D27B691B7878681946FCF71E
:10430000F5F808E07B6919787B691A697B695B6954
:104310007868FFF707F9BB899BB203F08003002B95
:104320000CBF00230123DBB2002B00F01581FA7EC5
:1043300013464FEAC3039B1A4FEA830303F1280392
:104340007A68D3187B617B681B681A46FB7E4FEA4C
:104350008303D2187B681B681946FB7E4FEA8303F0
:10436000CB181B889BB223F4E14323F070039BB26C
:1043700013807B699B7A002B2DD17B681B68B3F877
:1043800050309BB21A467B691B784FEAC303D3189F
:1043900003F102034FEA43031A467B681B68D318F4
:1043A00003F580631B689BB24FEA83534FEA935334
:1043B0007A6993617B699B69002B00F095807B682B
:1043C00018687B6919697B699A887B699B699BB2CC
:1043D00000F0D8F888E07B681B681A467B691B7878
:1043E0004FEA8303D3181B889BB203F04003002BD2
:1043F0000CBF00230123DBB2002B2CD07B681B6891
:10440000B3F850309BB21A467B691B784FEAC3035E
:10441000D31803F102034FEA43031A467B681B6873
:10442000D31803F580631B689BB24FEA83534FEAAE
:1044300093537A6993617B699B69002B37D07B68C2
:1044400018687B6919697B69DA887B699B699BB20B
:1044500000F098F82BE07B681B68B3F850309BB2F3
:104460001A467B691B784FEAC303D31803F106038E
:104470004FEA43031A467B681B68D31803F5806331
:104480001B689BB24FEA83534FEA93537A69936157
:104490007B699B69002B0AD07B6818687B69196966
:1044A0007B691A897B699B699BB200F06BF87B681A
:1044B0001B681A467B691B784FEA8303D2187B6816
:1044C0001B6819467B691B784FEA8303CB181B884E
:1044D00099B240F60F730B4099B24CF28003CFF6BD
:1044E000FF730B439BB213807B681B68B3F850309B
:1044F0009BB21A467B691B784FEAC303D31803F1BA
:1045000002034FEA43031A467B681B68D31803F57E
:1045100080631B689BB24FEA83534FEA93537A69D7
:1045200093617B691A697B699B69D2187B691A61FF
:104530007B695B69002B06D17B691B78786819461B
:10454000FBF7F4FF08E07B6919787B691A697B69DE
:104550005B697868FFF734F97B681B68B3F844300F
:104560009BB21A46FA819BB24FEAD333DBB2002BDF
:104570007FF461AC4FF00003184607F12407BD46F5
:1045800090BD00BF80B48BB000AFF860B960FA8016
:10459000BB80BB8803F101034FEA6303FB61FB8827
:1045A0004FEA43031A46FB68D31803F580633B6266
:1045B000FB697B6222E0BB681B78BB61BB6803F1CF
:1045C0000103BB60BB681B784FEA03231A46BB6933
:1045D00013437B617B699AB23B6A1A803B6A03F1A1
:1045E00002033B623B6A03F102033B62BB6803F1D7
:1045F0000103BB607B6A03F1FF337B627B6A002BA4
:104600000CBF00230123DBB2002BD4D107F12C0710
:10461000BD4680BC704700BF80B489B000AFF86071
:10462000B960FA80BB80BB8803F101034FEA6303E2
:104630007B61FB884FEA43031A46FB68D31803F5F6
:104640008063BB617B69FB6114E0BB691B689AB244
:10465000BB681A80BB6803F10103BB60BB6903F14F
:104660000403BB61BB6803F10103BB60FB6903F199
:10467000FF33FB61FB69002B0CBF00230123DBB27E
:10468000002BE2D107F12407BD4680BC704700BF74
:1046900080B487B000AFF8607B600B467B81134627
:1046A0003B817B8903F08003002B0ED07B8903F0D4
:1046B0007F0213464FEAC3039B1A4FEA830303F1B9
:1046C0002803FA68D3187B610BE07A8913464FEA16
:1046D000C3039B1A4FEA830303F58473FA68D31864
:1046E0007B613B89002B08D17B694FF000029A72F5
:1046F0007B689AB27B699A800DE07B694FF001027A
:104700009A727B689AB27B69DA807B684FEA1343BE
:104710009AB27B691A814FF00003184607F11C0713
:10472000BD4680BC704700BF90B5ADF5697D00AF58
:1047300007F1040318604FF00003C7F89C3307F13A
:1047400004031B681B6803F00103002B00F0C38106
:104750004FF46053C4F202039B6803F00C03082B70
:1047600011D04FF46053C4F202039B6803F00C03B2
:104770000C2B0BD14FF46053C4F202039B6803F47B
:104780008033002B02D04FF0010301E04FF0000313
:10479000002B59D04FF40033C7F89833D7F898332B
:1047A00093FAA3F4C7F89443D7F89433C7F8903337
:1047B000D7F89033B3FA83F4C7F88C43D7F88C3327
:1047C000DBB243F02003DBB24FEA6313012B05D1C8
:1047D0004FF46053C4F202031B6804E04FF46053CB
:1047E000C4F202035B6B4FF40032C7F88823D7F89A
:1047F000882392FAA2F4C7F88443D7F88423C7F831
:104800008023D7F88023B2FA82F4C7F87C43D7F824
:104810007C23D2B202F01F0223FA02F303F0010359
:10482000002B08D007F104031B685B68012B02D042
:104830004FF0010301E04FF00003002B00F04B812B
:104840004FF0010301F001BC43F60203C4F202037E
:104850004FF000021A70FDF789FDC7F89C0312E0C3
:10486000FDF784FD0246D7F89C33D21A41F2883313
:104870009A4294BF00230123DBB2002B03D04FF0F8
:10488000030301F0E2BB4FF40033C7F87833D7F8E5
:10489000783393FAA3F4C7F87443D7F87433C7F89E
:1048A0007033D7F87033B3FA83F4C7F86C43D7F892
:1048B0006C33DBB243F02003DBB24FEA6313012B0E
:1048C00005D14FF46053C4F202031B6804E04FF4B7
:1048D0006053C4F202035B6B4FF40032C7F86823E5
:1048E000D7F8682392FAA2F4C7F86443D7F8642390
:1048F000C7F86023D7F86023B2FA82F4C7F85C43A4
:10490000D7F85C23D2B202F01F0223FA02F303F0BD
:104910000103002B0CBF00230123DBB2002B9FD12E
:1049200043F60203C4F2020307F10402126852685C
:10493000D2B21A7007F104031B685B68002B65D0C4
:10494000FDF714FDC7F89C0312E0FDF70FFD0246CA
:10495000D7F89C33D21A41F288339A4294BF00238D
:104960000123DBB2002B03D04FF0030301F06DBB3A
:104970004FF40033C7F85833D7F8583393FAA3F4F9
:10498000C7F85443D7F85433C7F85033D7F85033E7
:10499000B3FA83F4C7F84C43D7F84C33DBB243F097
:1049A0002003DBB24FEA6313012B05D14FF46053B0
:1049B000C4F202031B6804E04FF46053C4F2020324
:1049C0005B6B4FF40032C7F84823D7F8482392FABC
:1049D000A2F4C7F84443D7F84423C7F84023D7F8D4
:1049E0004023B2FA82F4C7F83C43D7F83C23D2B252
:1049F00002F01F0223FA02F303F00103002B14BF9D
:104A000000230123DBB2002B9FD164E0FDF7AEFC55
:104A1000C7F89C0312E0FDF7A9FC0246D7F89C33C7
:104A2000D21A41F288339A4294BF00230123DBB2A9
:104A3000002B03D04FF0030301F007BB4FF400330A
:104A4000C7F83833D7F8383393FAA3F4C7F83443A8
:104A5000D7F83433C7F83033D7F83033B3FA83F4A8
:104A6000C7F82C43D7F82C33DBB243F02003DBB27A
:104A70004FEA6313012B05D14FF46053C4F20203D4
:104A80001B6804E04FF46053C4F202035B6B4FF405
:104A90000032C7F82823D7F8282392FAA2F4C7F8DF
:104AA0002443D7F82423C7F82023D7F82023B2FAC9
:104AB00082F4C7F81C43D7F81C23D2B202F01F02BD
:104AC00023FA02F303F00103002B0CBF00230123A0
:104AD000DBB2002B9FD107F104031B681B6803F0B6
:104AE0000203002B00F0F6814FF46053C4F202037E
:104AF0009B6803F00C03042B11D04FF46053C4F2F5
:104B000002039B6803F00C030C2B0BD14FF4605392
:104B1000C4F202039B6803F48033002B02D14FF0F0
:104B2000010301E04FF00003002B00F084804FF000
:104B30000203C7F81833D7F8183393FAA3F4C7F869
:104B40001443D7F81433C7F81033D7F81033B3FA37
:104B500083F4C7F80C43D7F80C33DBB243F02003DF
:104B6000DBB24FEA6313012B05D14FF46053C4F25B
:104B700002031B6804E04FF46053C4F202035B6B52
:104B80004FF00202C7F80823D7F8082392FAA2F4DC
:104B9000C7F80443D7F80423C7F80023D7F8002345
:104BA000B2FA82F4C7F8FC42D7F8FC22D2B202F083
:104BB0001F0223FA02F303F00103002B08D007F1D0
:104BC00004031B68DB68012B02D04FF0010301E0F6
:104BD0004FF00003002B03D04FF0010301F035BA72
:104BE0004FF46053C4F202034FF46052C4F2020265
:104BF000526822F4F85107F10402126810694FF468
:104C0000F852C7F8F822D7F8F82292FAA2F4C7F8B7
:104C1000F442D7F8F422C7F8F022D7F8F022B2FA1B
:104C200082F4C7F8EC42D7F8EC22D2B200FA02F2D2
:104C30000A435A604EE107F104031B68DB68002B4E
:104C400000F0AE804FF00103C7F8E832D7F8E83241
:104C500093FAA3F4C7F8E442D7F8E432C7F8E03295
:104C6000D7F8E032B3FA83F4C7F8DC42D7F8DC3285
:104C7000DBB24FEA830303F1844303F58E034FF065
:104C800001021A60FDF772FBC7F89C0310E0FDF704
:104C90006DFB0246D7F89C33D31A642B94BF0023D4
:104CA0000123DBB2002B03D04FF0030301F0CDB999
:104CB0004FF00203C7F8D832D7F8D83293FAA3F4EA
:104CC000C7F8D442D7F8D432C7F8D032D7F8D032A8
:104CD000B3FA83F4C7F8CC42D7F8CC32DBB243F056
:104CE0002003DBB24FEA6313012B05D14FF460536D
:104CF000C4F202031B6804E04FF46053C4F20203E1
:104D00005B6B4FF00202C7F8C822D7F8C82292FAAC
:104D1000A2F4C7F8C442D7F8C422C7F8C022D7F813
:104D2000C022B2FA82F4C7F8BC42D7F8BC22D2B291
:104D300002F01F0223FA02F303F00103002B14BF59
:104D400000230123DBB2002BA1D14FF46053C4F246
:104D500002034FF46052C4F20202526822F4F85186
:104D600007F10402126810694FF4F852C7F8B8222C
:104D7000D7F8B82292FAA2F4C7F8B442D7F8B4220E
:104D8000C7F8B022D7F8B022B2FA82F4C7F8AC4222
:104D9000D7F8AC22D2B200FA02F20A435A6099E084
:104DA0004FF00103C7F8A832D7F8A83293FAA3F45A
:104DB000C7F8A442D7F8A4321A4607F528731A6038
:104DC00007F528731B68B3FA83F407F527731C6093
:104DD00007F527731B68DBB24FEA830303F18443B3
:104DE00003F58E034FF000021A60FDF7BFFAC7F813
:104DF0009C0310E0FDF7BAFA0246D7F89C33D31AA9
:104E0000642B94BF00230123DBB2002B03D04FF0AF
:104E1000030301F01AB907F526734FF002021A6076
:104E200007F526731B6893FAA3F407F525731C6036
:104E300007F525731B681A4607F524731A6007F5F2
:104E400024731B68B3FA83F407F523731C6007F51A
:104E500023731B68DBB243F02003DBB24FEA63131A
:104E6000012B05D14FF46053C4F202031B6804E028
:104E70004FF46053C4F202035B6B07F522724FF0EC
:104E80000201116007F52272126892FAA2F407F586
:104E90002172146007F521721268114607F520721D
:104EA000116007F520721268B2FA82F407F51F72DA
:104EB000146007F51F721268D2B202F01F0223FAC3
:104EC00002F303F00103002B0CBF00230123DBB22C
:104ED000002B8FD107F104031B681B6803F010033C
:104EE000002B00F036824FF46053C4F202034FF4FB
:104EF0006052C4F20202526822F4604107F10402D7
:104F00001268126A0A435A604FF46053C4F20203F3
:104F10009B6803F00C03002B14BF00230123DBB2BA
:104F2000002B00F09F8007F51E734FF400721A608B
:104F300007F51E731B6893FAA3F407F51D731C6035
:104F400007F51D731B681A4607F51C731A6007F5F1
:104F50001C731B68B3FA83F407F51B731C6007F519
:104F60001B731B68DBB243F02003DBB24FEA631311
:104F7000012B05D14FF46053C4F202031B6804E017
:104F80004FF46053C4F202035B6B07F51A724FF4DF
:104F90000071116007F51A72126892FAA2F407F50F
:104FA0001972146007F519721268114607F5187224
:104FB000116007F518721268B2FA82F407F51772D9
:104FC000146007F517721268D2B202F01F0223FABA
:104FD00002F303F00103002B08D007F104031B6860
:104FE0009B69012B02D04FF0010301E04FF0000359
:104FF000002B03D04FF0010301F027B84FF46053AA
:10500000C4F202034FF46052C4F20202526822F06A
:105010007F4107F104021268D06907F516724FF05C
:105020007F44146007F51672126892FAA2F407F52D
:105030001572146007F515721268144607F514729C
:10504000146007F514721268B2FA82F407F513724D
:10505000146007F513721268D2B200FA02F20A4322
:105060005A6076E107F104031B689B69002B00F08E
:10507000D28007F512734FF480721A6007F512732D
:105080001B6893FAA3F407F511731C6007F51173FD
:105090001B681A4607F510731A6007F510731B6832
:1050A000B3FA83F407F50F731C6007F50F731B68E1
:1050B000DBB24FEA830303F1844303F58E034FF021
:1050C00001021A60FDF752F9C7F89C0310E0FDF7E2
:1050D0004DF90246D7F89C33D31A642B94BF0023B2
:1050E0000123DBB2002B03D04FF0030300F0ADBF70
:1050F00007F50E734FF400721A6007F50E731B6804
:1051000093FAA3F407F50D731C6007F50D731B6884
:105110001A4607F50C731A6007F50C731B68B3FA8F
:1051200083F407F50B731C6007F50B731B68DBB288
:1051300043F02003DBB24FEA6313012B05D14FF498
:105140006053C4F202031B6804E04FF46053C4F2DE
:1051500002035B6B07F50A724FF40071116007F5EB
:105160000A72126892FAA2F407F50972146007F540
:1051700009721268114607F50872116007F5087286
:105180001268B2FA82F407F50772146007F5077225
:105190001268D2B202F01F0223FA02F303F00103F5
:1051A000002B14BF00230123DBB2002B8FD14FF45F
:1051B0006053C4F202034FF46052C4F20202526818
:1051C00022F07F4107F104021268D06907F50672E8
:1051D0004FF07F44146007F50672126892FAA2F449
:1051E00007F50572146007F505721268144607F595
:1051F0000472146007F504721268B2FA82F407F5BB
:105200000372146007F503721268D2B200FA02F258
:105210000A435A609DE007F502734FF480721A60EA
:1052200007F502731B6893FAA3F407F501731C607A
:1052300007F501731B681A4607F500731A6007F536
:1052400000731B68B3FA83F407F5FE731C6007F55F
:10525000FE731B68DBB24FEA830303F1844303F55B
:105260008E034FF000021A60FDF780F8C7F89C0328
:1052700010E0FDF77BF80246D7F89C33D31A642B75
:1052800094BF00230123DBB2002B03D04FF00303B4
:1052900000F0DBBE07F5FC734FF400721A6007F5EF
:1052A000FC731B6893FAA3F407F5FA731C6007F507
:1052B000FA731B681A4607F5F8731A6007F5F87356
:1052C0001B68B3FA83F407F5F6731C6007F5F673F1
:1052D0001B68DBB243F02003DBB24FEA6313012B00
:1052E00005D14FF46053C4F202031B6804E04FF48D
:1052F0006053C4F202035B6B07F5F4724FF4007164
:10530000116007F5F472126892FAA2F407F5F272CE
:10531000146007F5F2721268114607F5F072116019
:1053200007F5F0721268B2FA82F407F5EE721460B3
:1053300007F5EE721268D2B202F01F0223FA02F3EE
:1053400003F00103002B0CBF00230123DBB2002B71
:105350008FD107F104031B681B6803F00803002BBF
:1053600000F0488107F104031B685B69002B00F023
:10537000A18007F5EC734FF001021A6007F5EC739A
:105380001B6893FAA3F407F5EA731C6007F5EA7348
:105390001B681A4607F5E8731A6007F5E8731B687F
:1053A000B3FA83F407F5E6731C6007F5E6731B6830
:1053B000DBB24FEA83031A464FF4D063C4F24723AB
:1053C000D3184FF001021A60FCF7D0FFC7F89C0316
:1053D00010E0FCF7CBFF0246D7F89C33D31A642BBE
:1053E00094BF00230123DBB2002B03D04FF0030353
:1053F00000F02BBE07F5E4734FF002021A6007F5C8
:10540000E4731B6893FAA3F407F5E2731C6007F5D5
:10541000E2731B681A4607F5E0731A6007F5E0733C
:105420001B68B3FA83F407F5DE731C6007F5DE73BF
:105430001B68DBB243F06003DBB24FEA6313012B5E
:1054400005D14FF46053C4F202031B6804E04FF42B
:105450006053C4F202035B6B07F5DC724FF002018C
:10546000116007F5DC72126892FAA2F407F5DA729D
:10547000146007F5DA721268114607F5D8721160E8
:1054800007F5D8721268B2FA82F407F5D672146082
:1054900007F5D6721268D2B202F01F0223FA02F3A5
:1054A00003F00103002B14BF00230123DBB2002B08
:1054B0008FD19FE007F5D4734FF001021A6007F512
:1054C000D4731B6893FAA3F407F5D2731C6007F535
:1054D000D2731B681A4607F5D0731A6007F5D073AC
:1054E0001B68B3FA83F407F5CE731C6007F5CE731F
:1054F0001B68DBB24FEA83031A464FF4D063C4F251
:105500004723D3184FF000021A60FCF72FFFC7F8AB
:105510009C0310E0FCF72AFF0246D7F89C33D31A0D
:10552000642B94BF00230123DBB2002B03D04FF088
:10553000030300F08ABD07F5CC734FF002021A6036
:1055400007F5CC731B6893FAA3F407F5CA731C60C4
:1055500007F5CA731B681A4607F5C8731A6007F582
:10556000C8731B68B3FA83F407F5C6731C6007F5AC
:10557000C6731B68DBB243F06003DBB24FEA631310
:10558000012B05D14FF46053C4F202031B6804E001
:105590004FF46053C4F202035B6B07F5C4724FF023
:1055A0000201116007F5C472126892FAA2F407F5BD
:1055B000C272146007F5C2721268114607F5C07214
:1055C000116007F5C0721268B2FA82F407F5BE7274
:1055D000146007F5BE721268D2B202F01F0223FAFD
:1055E00002F303F00103002B0CBF00230123DBB205
:1055F000002B8FD107F104031B681B6803F0040321
:10560000002B00F00C834FF46053C4F202034FF4FC
:105610006052C4F20202526A42F080525A624FF45F
:10562000E043C4F200034FF4E042C4F20002126807
:1056300042F480721A60FCF799FEC7F89C0310E0F0
:10564000FCF794FE0246D7F89C33D31A642B94BF20
:1056500000230123DBB2002B03D04FF0030300F043
:10566000F4BC4FF4E043C4F200031B6803F48073FE
:10567000002B14BF00230123DBB2002BE0D107F580
:10568000BC734FF480721A6007F5BC731B6893FA01
:10569000A3F407F5BA731C6007F5BA731B681A46C2
:1056A00007F5B8731A6007F5B8731B68B3FA83F48B
:1056B00007F5B6731C6007F5B6731B68DBB24FEADB
:1056C00083031A464FF4D063C4F24723D3184FF034
:1056D00000021A6007F5B4734FF480621A6007F590
:1056E000B4731B6893FAA3F407F5B2731C6007F553
:1056F000B2731B681A4607F5B0731A6007F5B073EA
:105700001B68B3FA83F407F5AE731C6007F5AE733C
:105710001B68DBB24FEA83031A464FF4D063C4F22E
:105720004723D3184FF000021A60FCF71FFEC7F89A
:105730009C0312E0FCF71AFE0246D7F89C33D21AFB
:1057400041F288339A4294BF00230123DBB2002B3D
:1057500003D04FF0030300F078BC07F5AC734FF4AF
:1057600000721A6007F5AC731B6893FAA3F407F58F
:10577000AA731C6007F5AA731B681A4607F5A8737D
:105780001A6007F5A8731B68B3FA83F407F5A673CC
:105790001C6007F5A6731B68DBB243F06003DBB245
:1057A0004FEA6313012B05D14FF46053C4F2020397
:1057B0001B6804E04FF46053C4F202035B6B07F50F
:1057C000A4724FF40071116007F5A472126892FA86
:1057D000A2F407F5A272146007F5A27212681146CE
:1057E00007F5A072116007F5A0721268B2FA82F490
:1057F00007F59E72146007F59E721268D2B202F02D
:105800001F0223FA02F303F00103002B0CBF002355
:105810000123DBB2002B8DD107F104031B689B68C9
:10582000002B56D107F59C734FF480721A6007F570
:105830009C731B6893FAA3F407F59A731C6007F531
:105840009A731B681A4607F598731A6007F59873E0
:105850001B68B3FA83F407F596731C6007F596731B
:105860001B68DBB24FEA83031A464FF4D063C4F2DD
:105870004723D3184FF000021A6007F594734FF4D2
:1058800080621A6007F594731B6893FAA3F407F516
:1058900092731C6007F592731B681A4607F59073A4
:1058A0001A6007F590731B68B3FA83F407F58E73DB
:1058B0001C6007F58E731B68DBB24FEA83031A4640
:1058C0004FF4D063C4F24723D3184FF000021A609C
:1058D000B2E007F104031B689B68012B56D107F562
:1058E0008C734FF480621A6007F58C731B6893FA0F
:1058F000A3F407F58A731C6007F58A731B681A46C0
:1059000007F588731A6007F588731B68B3FA83F488
:1059100007F586731C6007F586731B68DBB24FEAD8
:1059200083031A464FF4D063C4F24723D3184FF0D1
:1059300000021A6007F584734FF480721A6007F54D
:1059400084731B6893FAA3F407F582731C6007F550
:1059500082731B681A4607F580731A6007F5807317
:105960001B68B3FA83F407F1FC031C6007F1FC0326
:105970001B68DBB24FEA83031A464FF4D063C4F2CC
:105980004723D3184FF001021A6055E007F1F803DE
:105990004FF480721A6007F1F8031B6893FAA3F4BE
:1059A00007F1F4031C6007F1F4031B681A4607F1C2
:1059B000F0031A6007F1F0031B68B3FA83F407F1F0
:1059C000EC031C6007F1EC031B68DBB24FEA8303B6
:1059D0001A464FF4D063C4F24723D3184FF00002A5
:1059E0001A6007F1E8034FF480621A6007F1E803D8
:1059F0001B6893FAA3F407F1E4031C6007F1E403C6
:105A00001B681A4607F1E0031A6007F1E0031B6800
:105A1000B3FA83F407F1DC031C6007F1DC031B68B5
:105A2000DBB24FEA83031A464FF4D063C4F2472334
:105A3000D3184FF001021A6007F104031B689B683A
:105A4000012B76D1FCF792FCC7F89C0311E0FCF720
:105A50008DFC0246D7F89C33D21A41F288339A4221
:105A600094BF00230123DBB2002B02D04FF00303CD
:105A7000EBE207F1D8034FF400721A6007F1D80384
:105A80001B6893FAA3F407F1D4031C6007F1D40355
:105A90001B681A4607F1D0031A6007F1D0031B6890
:105AA000B3FA83F407F1CC031C6007F1CC031B6845
:105AB000DBB243F06003DBB24FEA6313012B05D185
:105AC0004FF46053C4F202031B6804E04FF46053C8
:105AD000C4F202035B6B07F1C8024FF4007111605E
